{
	"data": {
		"bytecode": {
			"linkReferences": {},
			"object": "61018060405234801562000011575f80fd5b5060405162007c0c38038062007c0c833981810160405281019062000037919062000b49565b806004836040518060400160405280600981526020017f50617a69746f44616f00000000000000000000000000000000000000000000008152508062000082620001a660201b60201c565b620000975f83620001e360201b90919060201c565b6101208181525050620000b5600182620001e360201b90919060201c565b6101408181525050818051906020012060e08181525050808051906020012061010081815250504660a08181525050620000f46200023860201b60201c565b608081815250503073ffffffffffffffffffffffffffffffffffffffff1660c08173ffffffffffffffffffffffffffffffffffffffff16815250505050806003908162000142919062000df2565b50508073ffffffffffffffffffffffffffffffffffffffff166101608173ffffffffffffffffffffffffffffffffffffffff1681525050506200018b816200029460201b60201c565b506200019d816200037d60201b60201c565b505050620012c8565b60606040518060400160405280600181526020017f3100000000000000000000000000000000000000000000000000000000000000815250905090565b5f602083511015620002085762000200836200041c60201b60201c565b905062000232565b826200021a836200048660201b60201c565b5f0190816200022a919062000df2565b5060ff5f1b90505b92915050565b5f7f8b73c3c69bb8fe3d512ecc4cf759cc79239f7b179b0ffacaa9a75d522b39400f60e0516101005146306040516020016200027995949392919062000f12565b60405160208183030381529060405280519060200120905090565b5f620002a56200048f60201b60201c565b905080821115620002f15781816040517f243e5445000000000000000000000000000000000000000000000000000000008152600401620002e892919062000f6d565b60405180910390fd5b5f620003026200049760201b60201c565b90506200033b62000318620004cb60201b60201c565b62000329856200056b60201b60201c565b6008620005db60201b9092919060201c565b50507f0553476bf02ef2726e8ce5ced78d63e26e602e4a2257b1f559418e24b463399781846040516200037092919062000f6d565b60405180910390a1505050565b7f08f74ea46ef7894f65eabfb5e6e695de773a000b47c529ab559178069b22640160095f9054906101000a900473ffffffffffffffffffffffffffffffffffffffff1682604051620003d192919062000f98565b60405180910390a18060095f6101000a81548173ffffffffffffffffffffffffffffffffffffffff021916908373ffffffffffffffffffffffffffffffffffffffff16021790555050565b5f80829050601f815111156200046b57826040517f305a27a90000000000000000000000000000000000000000000000000000000081526004016200046291906200104d565b60405180910390fd5b80518162000479906200109e565b5f1c175f1b915050919050565b5f819050919050565b5f6064905090565b5f620004aa6008620005fe60201b60201c565b79ffffffffffffffffffffffffffffffffffffffffffffffffffff16905090565b5f620004dc6200066c60201b60201c565b73ffffffffffffffffffffffffffffffffffffffff166391ddadf46040518163ffffffff1660e01b8152600401602060405180830381865afa9250505080156200054657506040513d601f19601f820116820180604052508101906200054391906200114d565b60015b62000563576200055b6200067660201b60201c565b905062000568565b809150505b90565b5f79ffffffffffffffffffffffffffffffffffffffffffffffffffff8016821115620005d35760d0826040517f6dfcc650000000000000000000000000000000000000000000000000000000008152600401620005ca929190620011ca565b60405180910390fd5b819050919050565b5f80620005f2855f0185856200068d60201b60201c565b91509150935093915050565b5f80825f018054905090505f8114620006625762000633835f0160018362000627919062001222565b62000a0e60201b60201c565b5f0160069054906101000a900479ffffffffffffffffffffffffffffffffffffffffffffffffffff1662000664565b5f5b915050919050565b5f61016051905090565b5f620006884362000a2060201b60201c565b905090565b5f805f858054905090505f81111562000926575f620006c187600184620006b5919062001222565b62000a0e60201b60201c565b6040518060400160405290815f82015f9054906101000a900465ffffffffffff1665ffffffffffff1665ffffffffffff1681526020015f820160069054906101000a900479ffffffffffffffffffffffffffffffffffffffffffffffffffff1679ffffffffffffffffffffffffffffffffffffffffffffffffffff1679ffffffffffffffffffffffffffffffffffffffffffffffffffff168152505090508565ffffffffffff16815f015165ffffffffffff161115620007ad576040517f2520601d00000000000000000000000000000000000000000000000000000000815260040160405180910390fd5b8565ffffffffffff16815f015165ffffffffffff16036200083b5784620007e988600185620007dd919062001222565b62000a0e60201b60201c565b5f0160066101000a81548179ffffffffffffffffffffffffffffffffffffffffffffffffffff021916908379ffffffffffffffffffffffffffffffffffffffffffffffffffff16021790555062000914565b8660405180604001604052808865ffffffffffff1681526020018779ffffffffffffffffffffffffffffffffffffffffffffffffffff16815250908060018154018082558091505060019003905f5260205f20015f909190919091505f820151815f015f6101000a81548165ffffffffffff021916908365ffffffffffff1602179055506020820151815f0160066101000a81548179ffffffffffffffffffffffffffffffffffffffffffffffffffff021916908379ffffffffffffffffffffffffffffffffffffffffffffffffffff16021790555050505b80602001518593509350505062000a06565b8560405180604001604052808765ffffffffffff1681526020018679ffffffffffffffffffffffffffffffffffffffffffffffffffff16815250908060018154018082558091505060019003905f5260205f20015f909190919091505f820151815f015f6101000a81548165ffffffffffff021916908365ffffffffffff1602179055506020820151815f0160066101000a81548179ffffffffffffffffffffffffffffffffffffffffffffffffffff021916908379ffffffffffffffffffffffffffffffffffffffffffffffffffff16021790555050505f8492509250505b935093915050565b5f825f528160205f2001905092915050565b5f65ffffffffffff801682111562000a74576030826040517f6dfcc65000000000000000000000000000000000000000000000000000000000815260040162000a6b9291906200129d565b60405180910390fd5b819050919050565b5f80fd5b5f73ffffffffffffffffffffffffffffffffffffffff82169050919050565b5f62000aab8262000a80565b9050919050565b5f62000abe8262000a9f565b9050919050565b62000ad08162000ab2565b811462000adb575f80fd5b50565b5f8151905062000aee8162000ac5565b92915050565b5f62000b008262000a80565b9050919050565b5f62000b138262000af4565b9050919050565b62000b258162000b07565b811462000b30575f80fd5b50565b5f8151905062000b438162000b1a565b92915050565b5f806040838503121562000b625762000b6162000a7c565b5b5f62000b718582860162000ade565b925050602062000b848582860162000b33565b9150509250929050565b5f81519050919050565b7f4e487b71000000000000000000000000000000000000000000000000000000005f52604160045260245ffd5b7f4e487b71000000000000000000000000000000000000000000000000000000005f52602260045260245ffd5b5f600282049050600182168062000c0a57607f821691505b60208210810362000c205762000c1f62000bc5565b5b50919050565b5f819050815f5260205f209050919050565b5f6020601f8301049050919050565b5f82821b905092915050565b5f6008830262000c847fffffffffffffffffffffffffffffffffffffffffffffffffffffffffffffffff8262000c47565b62000c90868362000c47565b95508019841693508086168417925050509392505050565b5f819050919050565b5f819050919050565b5f62000cda62000cd462000cce8462000ca8565b62000cb1565b62000ca8565b9050919050565b5f819050919050565b62000cf58362000cba565b62000d0d62000d048262000ce1565b84845462000c53565b825550505050565b5f90565b62000d2362000d15565b62000d3081848462000cea565b505050565b5b8181101562000d575762000d4b5f8262000d19565b60018101905062000d36565b5050565b601f82111562000da65762000d708162000c26565b62000d7b8462000c38565b8101602085101562000d8b578190505b62000da362000d9a8562000c38565b83018262000d35565b50505b505050565b5f82821c905092915050565b5f62000dc85f198460080262000dab565b1980831691505092915050565b5f62000de2838362000db7565b9150826002028217905092915050565b62000dfd8262000b8e565b67ffffffffffffffff81111562000e195762000e1862000b98565b5b62000e25825462000bf2565b62000e3282828562000d5b565b5f60209050601f83116001811462000e68575f841562000e53578287015190505b62000e5f858262000dd5565b86555062000ece565b601f19841662000e788662000c26565b5f5b8281101562000ea15784890151825560018201915060208501945060208101905062000e7a565b8683101562000ec1578489015162000ebd601f89168262000db7565b8355505b6001600288020188555050505b505050505050565b5f819050919050565b62000eea8162000ed6565b82525050565b62000efb8162000ca8565b82525050565b62000f0c8162000a9f565b82525050565b5f60a08201905062000f275f83018862000edf565b62000f36602083018762000edf565b62000f45604083018662000edf565b62000f54606083018562000ef0565b62000f63608083018462000f01565b9695505050505050565b5f60408201905062000f825f83018562000ef0565b62000f91602083018462000ef0565b9392505050565b5f60408201905062000fad5f83018562000f01565b62000fbc602083018462000f01565b9392505050565b5f82825260208201905092915050565b5f5b8381101562000ff257808201518184015260208101905062000fd5565b5f8484015250505050565b5f601f19601f8301169050919050565b5f620010198262000b8e565b62001025818562000fc3565b93506200103781856020860162000fd3565b620010428162000ffd565b840191505092915050565b5f6020820190508181035f8301526200106781846200100d565b905092915050565b5f81519050919050565b5f819050602082019050919050565b5f62001095825162000ed6565b80915050919050565b5f620010aa826200106f565b82620010b68462001079565b9050620010c38162001088565b925060208210156200110657620011017fffffffffffffffffffffffffffffffffffffffffffffffffffffffffffffffff8360200360080262000c47565b831692505b5050919050565b5f65ffffffffffff82169050919050565b62001129816200110d565b811462001134575f80fd5b50565b5f8151905062001147816200111e565b92915050565b5f6020828403121562001165576200116462000a7c565b5b5f620011748482850162001137565b91505092915050565b5f819050919050565b5f60ff82169050919050565b5f620011b2620011ac620011a6846200117d565b62000cb1565b62001186565b9050919050565b620011c48162001192565b82525050565b5f604082019050620011df5f830185620011b9565b620011ee602083018462000ef0565b9392505050565b7f4e487b71000000000000000000000000000000000000000000000000000000005f52601160045260245ffd5b5f6200122e8262000ca8565b91506200123b8362000ca8565b9250828203905081811115620012565762001255620011f5565b5b92915050565b5f819050919050565b5f620012856200127f62001279846200125c565b62000cb1565b62001186565b9050919050565b620012978162001265565b82525050565b5f604082019050620012b25f8301856200128c565b620012c1602083018462000ef0565b9392505050565b60805160a05160c05160e051610100516101205161014051610160516168e8620013245f395f611e9001525f612cf701525f612cbc01525f6142a301525f61428201525f6135da01525f61363001525f61365901526168e85ff3fe608060405260043610610275575f3560e01c80637d5e81e21161014e578063b58131b0116100c0578063dd4e2ba511610079578063dd4e2ba514610aec578063deaaa7cc14610b16578063eb9019d414610b40578063f23a6e6114610b7c578063f8ce560a14610bb8578063fc0c546a14610bf4576102e8565b8063b58131b0146109c8578063bc197c81146109f2578063c01f9e3714610a2e578063c28bc2fa14610a6a578063c59057e414610a86578063d33219b414610ac2576102e8565b806397c3d3341161011257806397c3d334146108985780639a802a6d146108c2578063a7713a70146108fe578063a890c91014610928578063a9a9529414610950578063ab58fb8e1461098c576102e8565b80637d5e81e21461078a5780637ecebe00146107c657806384b0196e146108025780638ff262e31461083257806391ddadf41461086e576102e8565b80633e4f49e6116101e757806354fd4d50116101ab57806354fd4d5014610634578063567813881461065e5780635b8d0e0d1461069a5780635f398a14146106d657806360c4247f146107125780637b3c71d31461074e576102e8565b80633e4f49e6146105185780634385963214610554578063452115d6146105905780634bf5d7e9146105cc578063544ffc9c146105f6576102e8565b8063150b7a0211610239578063150b7a02146103e0578063160cbed71461041c5780632656227d146104585780632d63f693146104885780632fe3e261146104c45780633932abb1146104ee576102e8565b806301ffc9a7146102ec57806302a251a31461032857806306f3f9e61461035257806306fdde031461037a578063143489d0146103a4576102e8565b366102e8573073ffffffffffffffffffffffffffffffffffffffff16610299610c1e565b73ffffffffffffffffffffffffffffffffffffffff16146102e6576040517fe90a651e00000000000000000000000000000000000000000000000000000000815260040160405180910390fd5b005b5f80fd5b3480156102f7575f80fd5b50610312600480360381019061030d9190614614565b610c2c565b60405161031f9190614659565b60405180910390f35b348015610333575f80fd5b5061033c610d0d565b604051610349919061468a565b60405180910390f35b34801561035d575f80fd5b50610378600480360381019061037391906146cd565b610d17565b005b348015610385575f80fd5b5061038e610d2b565b60405161039b9190614782565b60405180910390f35b3480156103af575f80fd5b506103ca60048036038101906103c591906146cd565b610dbb565b6040516103d791906147e1565b60405180910390f35b3480156103eb575f80fd5b5061040660048036038101906104019190614950565b610df6565b60405161041391906149df565b60405180910390f35b348015610427575f80fd5b50610442600480360381019061043d9190614c8d565b610e75565b60405161044f919061468a565b60405180910390f35b610472600480360381019061046d9190614c8d565b610f6b565b60405161047f919061468a565b60405180910390f35b348015610493575f80fd5b506104ae60048036038101906104a991906146cd565b611145565b6040516104bb919061468a565b60405180910390f35b3480156104cf575f80fd5b506104d861117b565b6040516104e59190614d54565b60405180910390f35b3480156104f9575f80fd5b5061050261119f565b60405161050f919061468a565b60405180910390f35b348015610523575f80fd5b5061053e600480360381019061053991906146cd565b6111a9565b60405161054b9190614de0565b60405180910390f35b34801561055f575f80fd5b5061057a60048036038101906105759190614df9565b6111ba565b6040516105879190614659565b60405180910390f35b34801561059b575f80fd5b506105b660048036038101906105b19190614c8d565b61121f565b6040516105c3919061468a565b60405180910390f35b3480156105d7575f80fd5b506105e06112df565b6040516105ed9190614782565b60405180910390f35b348015610601575f80fd5b5061061c600480360381019061061791906146cd565b61139c565b60405161062b93929190614e37565b60405180910390f35b34801561063f575f80fd5b506106486113cf565b6040516106559190614782565b60405180910390f35b348015610669575f80fd5b50610684600480360381019061067f9190614ea2565b61140c565b604051610691919061468a565b60405180910390f35b3480156106a5575f80fd5b506106c060048036038101906106bb9190614f39565b61143b565b6040516106cd919061468a565b60405180910390f35b3480156106e1575f80fd5b506106fc60048036038101906106f7919061501b565b61156a565b604051610709919061468a565b60405180910390f35b34801561071d575f80fd5b50610738600480360381019061073391906146cd565b6115d2565b604051610745919061468a565b60405180910390f35b348015610759575f80fd5b50610774600480360381019061076f91906150bb565b6116cb565b604051610781919061468a565b60405180910390f35b348015610795575f80fd5b506107b060048036038101906107ab91906151ca565b611731565b6040516107bd919061468a565b60405180910390f35b3480156107d1575f80fd5b506107ec60048036038101906107e7919061529e565b61181e565b6040516107f9919061468a565b60405180910390f35b34801561080d575f80fd5b50610816611864565b60405161082997969594939291906153ba565b60405180910390f35b34801561083d575f80fd5b506108586004803603810190610853919061543c565b611909565b604051610865919061468a565b60405180910390f35b348015610879575f80fd5b506108826119dd565b60405161088f91906154dc565b60405180910390f35b3480156108a3575f80fd5b506108ac611a68565b6040516108b9919061468a565b60405180910390f35b3480156108cd575f80fd5b506108e860048036038101906108e391906154f5565b611a70565b6040516108f5919061468a565b60405180910390f35b348015610909575f80fd5b50610912611a85565b60405161091f919061468a565b60405180910390f35b348015610933575f80fd5b5061094e600480360381019061094991906155ad565b611ab1565b005b34801561095b575f80fd5b50610976600480360381019061097191906146cd565b611ac5565b6040516109839190614659565b60405180910390f35b348015610997575f80fd5b506109b260048036038101906109ad91906146cd565b611ad6565b6040516109bf919061468a565b60405180910390f35b3480156109d3575f80fd5b506109dc611b0c565b6040516109e9919061468a565b60405180910390f35b3480156109fd575f80fd5b50610a186004803603810190610a1391906155d8565b611b10565b604051610a2591906149df565b60405180910390f35b348015610a39575f80fd5b50610a546004803603810190610a4f91906146cd565b611b90565b604051610a61919061468a565b60405180910390f35b610a846004803603810190610a7f91906156f8565b611bfa565b005b348015610a91575f80fd5b50610aac6004803603810190610aa79190614c8d565b611c83565b604051610ab9919061468a565b60405180910390f35b348015610acd575f80fd5b50610ad6611cbd565b604051610ae391906147e1565b60405180910390f35b348015610af7575f80fd5b50610b00611ce5565b604051610b0d9190614782565b60405180910390f35b348015610b21575f80fd5b50610b2a611d22565b604051610b379190614d54565b60405180910390f35b348015610b4b575f80fd5b50610b666004803603810190610b619190615769565b611d46565b604051610b73919061468a565b60405180910390f35b348015610b87575f80fd5b50610ba26004803603810190610b9d91906157a7565b611d61565b604051610baf91906149df565b60405180910390f35b348015610bc3575f80fd5b50610bde6004803603810190610bd991906146cd565b611de1565b604051610beb919061468a565b60405180910390f35b348015610bff575f80fd5b50610c08611e8d565b604051610c159190615895565b60405180910390f35b5f610c27611eb4565b905090565b5f7f65455a86000000000000000000000000000000000000000000000000000000007bffffffffffffffffffffffffffffffffffffffffffffffffffffffff1916827bffffffffffffffffffffffffffffffffffffffffffffffffffffffff19161480610cf657507f4e2312e0000000000000000000000000000000000000000000000000000000007bffffffffffffffffffffffffffffffffffffffffffffffffffffffff1916827bffffffffffffffffffffffffffffffffffffffffffffffffffffffff1916145b80610d065750610d0582611edc565b5b9050919050565b5f62093a80905090565b610d1f611f45565b610d288161203a565b50565b606060038054610d3a906158db565b80601f0160208091040260200160405190810160405280929190818152602001828054610d66906158db565b8015610db15780601f10610d8857610100808354040283529160200191610db1565b820191905f5260205f20905b815481529060010190602001808311610d9457829003601f168201915b5050505050905090565b5f60045f8381526020019081526020015f205f015f9054906101000a900473ffffffffffffffffffffffffffffffffffffffff169050919050565b5f3073ffffffffffffffffffffffffffffffffffffffff16610e16610c1e565b73ffffffffffffffffffffffffffffffffffffffff1614610e63576040517fe90a651e00000000000000000000000000000000000000000000000000000000815260040160405180910390fd5b63150b7a0260e01b9050949350505050565b5f80610e8386868686611c83565b9050610e9881610e9360046120fc565b612120565b505f610ea7828888888861218b565b90505f8165ffffffffffff1614610f2c578060045f8481526020019081526020015f206001015f6101000a81548165ffffffffffff021916908365ffffffffffff1602179055507f9a2e42fd6722813d69113e7d0079d3d940171428df7373df9c7f7617cfda28928282604051610f1f92919061593b565b60405180910390a1610f5e565b6040517f90884a4600000000000000000000000000000000000000000000000000000000815260040160405180910390fd5b8192505050949350505050565b5f80610f7986868686611c83565b9050610f9981610f8960056120fc565b610f9360046120fc565b17612120565b50600160045f8381526020019081526020015f205f01601e6101000a81548160ff0219169083151502179055503073ffffffffffffffffffffffffffffffffffffffff16610fe5610c1e565b73ffffffffffffffffffffffffffffffffffffffff161461109b575f5b8651811015611099573073ffffffffffffffffffffffffffffffffffffffff1687828151811061103557611034615962565b5b602002602001015173ffffffffffffffffffffffffffffffffffffffff160361108e5761108d85828151811061106e5761106d615962565b5b60200260200101518051906020012060056121a490919063ffffffff16565b5b806001019050611002565b505b6110a881878787876122c3565b3073ffffffffffffffffffffffffffffffffffffffff166110c7610c1e565b73ffffffffffffffffffffffffffffffffffffffff16141580156110f257506110f060056122d7565b155b15611102576111016005612343565b5b7f712ae1383f79ac853f8d882153778e0260ef8f03b504e2866e0593e04d2b291f81604051611131919061468a565b60405180910390a180915050949350505050565b5f60045f8381526020019081526020015f205f0160149054906101000a900465ffffffffffff1665ffffffffffff169050919050565b7f3e83946653575f9a39005e1545185629e92736b7528ab20ca3816f315424a81181565b5f62015180905090565b5f6111b3826123b9565b9050919050565b5f60075f8481526020019081526020015f206003015f8373ffffffffffffffffffffffffffffffffffffffff1673ffffffffffffffffffffffffffffffffffffffff1681526020019081526020015f205f9054906101000a900460ff16905092915050565b5f8061122d86868686611c83565b90506112418161123c5f6120fc565b612120565b5061124b81610dbb565b73ffffffffffffffffffffffffffffffffffffffff1661126961256e565b73ffffffffffffffffffffffffffffffffffffffff16146112c85761128c61256e565b6040517f233d98e30000000000000000000000000000000000000000000000000000000081526004016112bf91906147e1565b60405180910390fd5b6112d486868686612575565b915050949350505050565b60606112e9611e8d565b73ffffffffffffffffffffffffffffffffffffffff16634bf5d7e96040518163ffffffff1660e01b81526004015f60405180830381865afa92505050801561135357506040513d5f823e3d601f19601f8201168201806040525081019061135091906159fd565b60015b611394576040518060400160405280601d81526020017f6d6f64653d626c6f636b6e756d6265722666726f6d3d64656661756c740000008152509050611399565b809150505b90565b5f805f8060075f8681526020019081526020015f209050805f015481600101548260020154935093509350509193909250565b60606040518060400160405280600181526020017f3100000000000000000000000000000000000000000000000000000000000000815250905090565b5f8061141661256e565b905061143284828560405180602001604052805f81525061258c565b91505092915050565b5f806114c8876114c27f3e83946653575f9a39005e1545185629e92736b7528ab20ca3816f315424a8118c8c8c6114718e6125ab565b8d8d604051611481929190615a72565b60405180910390208c805190602001206040516020016114a79796959493929190615a99565b604051602081830303815290604052805190602001206125fe565b85612617565b90508061150c57866040517f94ab6c0700000000000000000000000000000000000000000000000000000000815260040161150391906147e1565b60405180910390fd5b61155c89888a89898080601f0160208091040260200160405190810160405280939291908181526020018383808284375f81840152601f19601f82011690508083019250505050505050886126a4565b915050979650505050505050565b5f8061157461256e565b90506115c687828888888080601f0160208091040260200160405190810160405280939291908181526020018383808284375f81840152601f19601f82011690508083019250505050505050876126a4565b91505095945050505050565b5f8060085f018054905090505f60085f016001836115f09190615b33565b8154811061160157611600615962565b5b905f5260205f200190505f815f015f9054906101000a900465ffffffffffff1690505f825f0160069054906101000a900479ffffffffffffffffffffffffffffffffffffffffffffffffffff169050858265ffffffffffff1611611687578079ffffffffffffffffffffffffffffffffffffffffffffffffffff169450505050506116c6565b6116a3611693876127a1565b60086127fa90919063ffffffff16565b79ffffffffffffffffffffffffffffffffffffffffffffffffffff169450505050505b919050565b5f806116d561256e565b905061172686828787878080601f0160208091040260200160405190810160405280939291908181526020018383808284375f81840152601f19601f8201169050808301925050505050505061258c565b915050949350505050565b5f8061173b61256e565b905061174781846128e7565b61178857806040517fd9b3955700000000000000000000000000000000000000000000000000000000815260040161177f91906147e1565b60405180910390fd5b5f6117ae8260016117976119dd565b6117a19190615b66565b65ffffffffffff16611d46565b90505f6117b9611b0c565b905080821015611804578282826040517fc242ee160000000000000000000000000000000000000000000000000000000081526004016117fb93929190615b9f565b60405180910390fd5b6118118888888887612a2f565b9350505050949350505050565b5f60025f8373ffffffffffffffffffffffffffffffffffffffff1673ffffffffffffffffffffffffffffffffffffffff1681526020019081526020015f20549050919050565b5f6060805f805f6060611875612cb4565b61187d612cee565b46305f801b5f67ffffffffffffffff81111561189c5761189b61482c565b5b6040519080825280602002602001820160405280156118ca5781602001602082028036833780820191505090505b507f0f00000000000000000000000000000000000000000000000000000000000000959493929190965096509650965096509650965090919293949596565b5f806119748461196e7ff2aad550cf55f045cb27e9c559f9889fdfb6e6cdaa032301d6ea397784ae51d789898961193f8b6125ab565b604051602001611953959493929190615bd4565b604051602081830303815290604052805190602001206125fe565b85612617565b9050806119b857836040517f94ab6c070000000000000000000000000000000000000000000000000000000081526004016119af91906147e1565b60405180910390fd5b6119d286858760405180602001604052805f81525061258c565b915050949350505050565b5f6119e6611e8d565b73ffffffffffffffffffffffffffffffffffffffff166391ddadf46040518163ffffffff1660e01b8152600401602060405180830381865afa925050508015611a4d57506040513d601f19601f82011682018060405250810190611a4a9190615c4f565b60015b611a6057611a59612d29565b9050611a65565b809150505b90565b5f6064905090565b5f611a7c848484612d38565b90509392505050565b5f611a906008612dc3565b79ffffffffffffffffffffffffffffffffffffffffffffffffffff16905090565b611ab9611f45565b611ac281612e25565b50565b5f611acf82612ec2565b9050919050565b5f60045f8381526020019081526020015f206001015f9054906101000a900465ffffffffffff1665ffffffffffff169050919050565b5f90565b5f3073ffffffffffffffffffffffffffffffffffffffff16611b30610c1e565b73ffffffffffffffffffffffffffffffffffffffff1614611b7d576040517fe90a651e00000000000000000000000000000000000000000000000000000000815260040160405180910390fd5b63bc197c8160e01b905095945050505050565b5f60045f8381526020019081526020015f205f01601a9054906101000a900463ffffffff1663ffffffff1660045f8481526020019081526020015f205f0160149054906101000a900465ffffffffffff16611beb9190615c7a565b65ffffffffffff169050919050565b611c02611f45565b5f808573ffffffffffffffffffffffffffffffffffffffff16858585604051611c2c929190615a72565b5f6040518083038185875af1925050503d805f8114611c66576040519150601f19603f3d011682016040523d82523d5f602084013e611c6b565b606091505b5091509150611c7a8282612ecc565b50505050505050565b5f84848484604051602001611c9b9493929190615e77565b604051602081830303815290604052805190602001205f1c9050949350505050565b5f60095f9054906101000a900473ffffffffffffffffffffffffffffffffffffffff16905090565b60606040518060400160405280602081526020017f737570706f72743d627261766f2671756f72756d3d666f722c6162737461696e815250905090565b7ff2aad550cf55f045cb27e9c559f9889fdfb6e6cdaa032301d6ea397784ae51d781565b5f611d598383611d54612ef0565b612d38565b905092915050565b5f3073ffffffffffffffffffffffffffffffffffffffff16611d81610c1e565b73ffffffffffffffffffffffffffffffffffffffff1614611dce576040517fe90a651e00000000000000000000000000000000000000000000000000000000815260040160405180910390fd5b63f23a6e6160e01b905095945050505050565b5f611dea611a68565b611df3836115d2565b611dfb611e8d565b73ffffffffffffffffffffffffffffffffffffffff16638e539e8c856040518263ffffffff1660e01b8152600401611e33919061468a565b602060405180830381865afa158015611e4e573d5f803e3d5ffd5b505050506040513d601f19601f82011682018060405250810190611e729190615ee3565b611e7c9190615f0e565b611e869190615f7c565b9050919050565b5f7f0000000000000000000000000000000000000000000000000000000000000000905090565b5f60095f9054906101000a900473ffffffffffffffffffffffffffffffffffffffff16905090565b5f7f01ffc9a7000000000000000000000000000000000000000000000000000000007bffffffffffffffffffffffffffffffffffffffffffffffffffffffff1916827bffffffffffffffffffffffffffffffffffffffffffffffffffffffff1916149050919050565b611f4d61256e565b73ffffffffffffffffffffffffffffffffffffffff16611f6b610c1e565b73ffffffffffffffffffffffffffffffffffffffff1614611fca57611f8e61256e565b6040517f47096e47000000000000000000000000000000000000000000000000000000008152600401611fc191906147e1565b60405180910390fd5b3073ffffffffffffffffffffffffffffffffffffffff16611fe9610c1e565b73ffffffffffffffffffffffffffffffffffffffff1614612038575f61200d612f06565b60405161201b929190615a72565b604051809103902090505b806120316005612f12565b0361202657505b565b5f612043611a68565b90508082111561208c5781816040517f243e5445000000000000000000000000000000000000000000000000000000008152600401612083929190615fac565b60405180910390fd5b5f612095611a85565b90506120bc6120a26119dd565b6120ab85613067565b60086130d49092919063ffffffff16565b50507f0553476bf02ef2726e8ce5ced78d63e26e602e4a2257b1f559418e24b463399781846040516120ef929190615fac565b60405180910390a1505050565b5f8160078111156121105761210f614d6d565b5b60ff166001901b5f1b9050919050565b5f8061212b846111a9565b90505f801b8361213a836120fc565b1603612181578381846040517f31b75e4d00000000000000000000000000000000000000000000000000000000815260040161217893929190615fd3565b60405180910390fd5b8091505092915050565b5f61219986868686866130ef565b905095945050505050565b5f825f0160109054906101000a90046fffffffffffffffffffffffffffffffff169050825f015f9054906101000a90046fffffffffffffffffffffffffffffffff166fffffffffffffffffffffffffffffffff16600182016fffffffffffffffffffffffffffffffff1603612245576040517f8acb5f2700000000000000000000000000000000000000000000000000000000815260040160405180910390fd5b81836001015f836fffffffffffffffffffffffffffffffff166fffffffffffffffffffffffffffffffff1681526020019081526020015f208190555060018101835f0160106101000a8154816fffffffffffffffffffffffffffffffff02191690836fffffffffffffffffffffffffffffffff160217905550505050565b6122d085858585856132f5565b5050505050565b5f815f015f9054906101000a90046fffffffffffffffffffffffffffffffff166fffffffffffffffffffffffffffffffff16825f0160109054906101000a90046fffffffffffffffffffffffffffffffff166fffffffffffffffffffffffffffffffff16149050919050565b5f815f015f6101000a8154816fffffffffffffffffffffffffffffffff02191690836fffffffffffffffffffffffffffffffff1602179055505f815f0160106101000a8154816fffffffffffffffffffffffffffffffff02191690836fffffffffffffffffffffffffffffffff16021790555050565b5f806123c4836133a9565b9050600560078111156123da576123d9614d6d565b5b8160078111156123ed576123ec614d6d565b5b146123fb5780915050612569565b5f600a5f8581526020019081526020015f2054905060095f9054906101000a900473ffffffffffffffffffffffffffffffffffffffff1673ffffffffffffffffffffffffffffffffffffffff1663584b153e826040518263ffffffff1660e01b815260040161246a9190614d54565b602060405180830381865afa158015612485573d5f803e3d5ffd5b505050506040513d601f19601f820116820180604052508101906124a99190616032565b156124b957600592505050612569565b60095f9054906101000a900473ffffffffffffffffffffffffffffffffffffffff1673ffffffffffffffffffffffffffffffffffffffff16632ab0f529826040518263ffffffff1660e01b81526004016125139190614d54565b602060405180830381865afa15801561252e573d5f803e3d5ffd5b505050506040513d601f19601f820116820180604052508101906125529190616032565b1561256257600792505050612569565b6002925050505b919050565b5f33905090565b5f61258285858585613500565b9050949350505050565b5f6125a18585858561259c612ef0565b6126a4565b9050949350505050565b5f60025f8373ffffffffffffffffffffffffffffffffffffffff1673ffffffffffffffffffffffffffffffffffffffff1681526020019081526020015f205f815480929190600101919050559050919050565b5f61261061260a6135d7565b8361368d565b9050919050565b5f805f61262485856136cd565b50915091505f600381111561263c5761263b614d6d565b5b81600381111561264f5761264e614d6d565b5b14801561268757508573ffffffffffffffffffffffffffffffffffffffff168273ffffffffffffffffffffffffffffffffffffffff16145b806126995750612698868686613722565b5b925050509392505050565b5f6126b8866126b360016120fc565b612120565b505f6126cd866126c789611145565b85612d38565b90506126dc8787878487613841565b5f83510361273d578573ffffffffffffffffffffffffffffffffffffffff167fb8e138887d0aa13bab447e82de9d5c1777041ecd21ca36ba824ff1e6c07ddda488878488604051612730949392919061605d565b60405180910390a2612794565b8573ffffffffffffffffffffffffffffffffffffffff167fe2babfbac5889a709b63bb7f598b324e08bc5a4fb9ec647fb3cbc9ec07eb8712888784888860405161278b9594939291906160ef565b60405180910390a25b8091505095945050505050565b5f65ffffffffffff80168211156127f2576030826040517f6dfcc6500000000000000000000000000000000000000000000000000000000081526004016127e9929190616187565b60405180910390fd5b819050919050565b5f80835f018054905090505f80829050600583111561287b575f61281d84613a30565b846128289190615b33565b9050612836875f0182613b26565b5f015f9054906101000a900465ffffffffffff1665ffffffffffff168665ffffffffffff16101561286957809150612879565b60018161287691906161ae565b92505b505b5f61288a875f01878585613b38565b90505f81146128d9576128ab875f016001836128a69190615b33565b613b26565b5f0160069054906101000a900479ffffffffffffffffffffffffffffffffffffffffffffffffffff166128db565b5f5b94505050505092915050565b5f80825190506034811015612900576001915050612a29565b5f6014820384015190507f2370726f706f7365723d3078000000000000000000000000000000000000000073ffffffffffffffffffffffffffffffffffffffff19168173ffffffffffffffffffffffffffffffffffffffff19161461296a57600192505050612a29565b5f806028846129799190615b33565b90505b838110156129f3575f806129ac88848151811061299c5761299b615962565b5b602001015160f81c60f81b613bad565b91509150816129c45760019650505050505050612a29565b8060ff1660048573ffffffffffffffffffffffffffffffffffffffff16901b179350505080600101905061297c565b508573ffffffffffffffffffffffffffffffffffffffff168173ffffffffffffffffffffffffffffffffffffffff161493505050505b92915050565b5f612a438686868680519060200120611c83565b905084518651141580612a5857508351865114155b80612a6357505f8651145b15612aac578551845186516040517f447b05d0000000000000000000000000000000000000000000000000000000008152600401612aa393929190614e37565b60405180910390fd5b5f60045f8381526020019081526020015f205f0160149054906101000a900465ffffffffffff1665ffffffffffff1614612b2b5780612aea826111a9565b5f801b6040517f31b75e4d000000000000000000000000000000000000000000000000000000008152600401612b2293929190615fd3565b60405180910390fd5b5f612b3461119f565b612b3c6119dd565b65ffffffffffff16612b4e91906161ae565b90505f612b59610d0d565b90505f60045f8581526020019081526020015f20905084815f015f6101000a81548173ffffffffffffffffffffffffffffffffffffffff021916908373ffffffffffffffffffffffffffffffffffffffff160217905550612bb9836127a1565b815f0160146101000a81548165ffffffffffff021916908365ffffffffffff160217905550612be782613c44565b815f01601a6101000a81548163ffffffff021916908363ffffffff1602179055507f7d84a6263ae0d98d3329bd7b46bb4e8d6f98cd35a7adb45c274c8b7fd5ebd5e084868b8b8d5167ffffffffffffffff811115612c4857612c4761482c565b5b604051908082528060200260200182016040528015612c7b57816020015b6060815260200190600190039081612c665790505b508c89898b612c8a91906161ae565b8e604051612ca0999897969594939291906162e4565b60405180910390a150505095945050505050565b6060612ce95f7f0000000000000000000000000000000000000000000000000000000000000000613c9b90919063ffffffff16565b905090565b6060612d2460017f0000000000000000000000000000000000000000000000000000000000000000613c9b90919063ffffffff16565b905090565b5f612d33436127a1565b905090565b5f612d41611e8d565b73ffffffffffffffffffffffffffffffffffffffff16633a46b1a885856040518363ffffffff1660e01b8152600401612d7b929190616392565b602060405180830381865afa158015612d96573d5f803e3d5ffd5b505050506040513d601f19601f82011682018060405250810190612dba9190615ee3565b90509392505050565b5f80825f018054905090505f8114612e1b57612ded835f01600183612de89190615b33565b613b26565b5f0160069054906101000a900479ffffffffffffffffffffffffffffffffffffffffffffffffffff16612e1d565b5f5b915050919050565b7f08f74ea46ef7894f65eabfb5e6e695de773a000b47c529ab559178069b22640160095f9054906101000a900473ffffffffffffffffffffffffffffffffffffffff1682604051612e779291906163b9565b60405180910390a18060095f6101000a81548173ffffffffffffffffffffffffffffffffffffffff021916908373ffffffffffffffffffffffffffffffffffffffff16021790555050565b5f60019050919050565b606082612ee157612edc82613d48565b612ee9565b819050612eea565b5b92915050565b606060405180602001604052805f815250905090565b365f8036915091509091565b5f80825f015f9054906101000a90046fffffffffffffffffffffffffffffffff169050825f0160109054906101000a90046fffffffffffffffffffffffffffffffff166fffffffffffffffffffffffffffffffff16816fffffffffffffffffffffffffffffffff1603612fb1576040517f75e52f4f00000000000000000000000000000000000000000000000000000000815260040160405180910390fd5b826001015f826fffffffffffffffffffffffffffffffff166fffffffffffffffffffffffffffffffff1681526020019081526020015f20549150826001015f826fffffffffffffffffffffffffffffffff166fffffffffffffffffffffffffffffffff1681526020019081526020015f205f905560018101835f015f6101000a8154816fffffffffffffffffffffffffffffffff02191690836fffffffffffffffffffffffffffffffff16021790555050919050565b5f79ffffffffffffffffffffffffffffffffffffffffffffffffffff80168211156130cc5760d0826040517f6dfcc6500000000000000000000000000000000000000000000000000000000081526004016130c3929190616419565b60405180910390fd5b819050919050565b5f806130e3855f018585613d8c565b91509150935093915050565b5f8060095f9054906101000a900473ffffffffffffffffffffffffffffffffffffffff1673ffffffffffffffffffffffffffffffffffffffff1663f27a0c926040518163ffffffff1660e01b8152600401602060405180830381865afa15801561315b573d5f803e3d5ffd5b505050506040513d601f19601f8201168201806040525081019061317f9190615ee3565b90505f61318b846140f4565b905060095f9054906101000a900473ffffffffffffffffffffffffffffffffffffffff1673ffffffffffffffffffffffffffffffffffffffff1663b1c5f4278888885f866040518663ffffffff1660e01b81526004016131ef959493929190616484565b602060405180830381865afa15801561320a573d5f803e3d5ffd5b505050506040513d601f19601f8201168201806040525081019061322e91906164fe565b600a5f8a81526020019081526020015f208190555060095f9054906101000a900473ffffffffffffffffffffffffffffffffffffffff1673ffffffffffffffffffffffffffffffffffffffff16638f2a0bb08888885f86886040518763ffffffff1660e01b81526004016132a796959493929190616529565b5f604051808303815f87803b1580156132be575f80fd5b505af11580156132d0573d5f803e3d5ffd5b505050506132e882426132e391906161ae565b6127a1565b9250505095945050505050565b60095f9054906101000a900473ffffffffffffffffffffffffffffffffffffffff1673ffffffffffffffffffffffffffffffffffffffff1663e38335e5348686865f613340886140f4565b6040518763ffffffff1660e01b8152600401613360959493929190616484565b5f604051808303818588803b158015613377575f80fd5b505af1158015613389573d5f803e3d5ffd5b5050505050600a5f8681526020019081526020015f205f90555050505050565b5f8060045f8481526020019081526020015f2090505f815f01601e9054906101000a900460ff1690505f825f01601f9054906101000a900460ff16905081156133f857600793505050506134fb565b801561340a57600293505050506134fb565b5f61341486611145565b90505f810361345a57856040517f6ad06075000000000000000000000000000000000000000000000000000000008152600401613451919061468a565b60405180910390fd5b5f6134636119dd565b65ffffffffffff169050808210613481575f955050505050506134fb565b5f61348b88611b90565b90508181106134a357600196505050505050506134fb565b6134ac88614111565b15806134be57506134bc88614155565b155b156134d257600396505050505050506134fb565b5f6134dc89611ad6565b036134f057600496505050505050506134fb565b600596505050505050505b919050565b5f8061350e8686868661417c565b90505f600a5f8381526020019081526020015f205490505f801b81146135ca5760095f9054906101000a900473ffffffffffffffffffffffffffffffffffffffff1673ffffffffffffffffffffffffffffffffffffffff1663c4d252f5826040518263ffffffff1660e01b81526004016135889190614d54565b5f604051808303815f87803b15801561359f575f80fd5b505af11580156135b1573d5f803e3d5ffd5b50505050600a5f8381526020019081526020015f205f90555b8192505050949350505050565b5f7f000000000000000000000000000000000000000000000000000000000000000073ffffffffffffffffffffffffffffffffffffffff163073ffffffffffffffffffffffffffffffffffffffff1614801561365257507f000000000000000000000000000000000000000000000000000000000000000046145b1561367f577f0000000000000000000000000000000000000000000000000000000000000000905061368a565b61368761425e565b90505b90565b5f6040517f190100000000000000000000000000000000000000000000000000000000000081528360028201528260228201526042812091505092915050565b5f805f604184510361370d575f805f602087015192506040870151915060608701515f1a90506136ff888285856142f3565b95509550955050505061371b565b5f600285515f1b9250925092505b9250925092565b5f805f8573ffffffffffffffffffffffffffffffffffffffff16858560405160240161374f92919061659d565b604051602081830303815290604052631626ba7e60e01b6020820180517bffffffffffffffffffffffffffffffffffffffffffffffffffffffff83818316178352505050506040516137a191906165fb565b5f60405180830381855afa9150503d805f81146137d9576040519150601f19603f3d011682016040523d82523d5f602084013e6137de565b606091505b50915091508180156137f257506020815110155b80156138365750631626ba7e60e01b7bffffffffffffffffffffffffffffffffffffffffffffffffffffffff19168180602001905181019061383491906164fe565b145b925050509392505050565b5f60075f8781526020019081526020015f209050806003015f8673ffffffffffffffffffffffffffffffffffffffff1673ffffffffffffffffffffffffffffffffffffffff1681526020019081526020015f205f9054906101000a900460ff16156138e357846040517f71c6af490000000000000000000000000000000000000000000000000000000081526004016138da91906147e1565b60405180910390fd5b6001816003015f8773ffffffffffffffffffffffffffffffffffffffff1673ffffffffffffffffffffffffffffffffffffffff1681526020019081526020015f205f6101000a81548160ff0219169083151502179055505f600281111561394d5761394c614d6d565b5b60ff168460ff16036139775782815f015f82825461396b91906161ae565b92505081905550613a28565b6001600281111561398b5761398a614d6d565b5b60ff168460ff16036139b65782816001015f8282546139aa91906161ae565b92505081905550613a27565b6002808111156139c9576139c8614d6d565b5b60ff168460ff16036139f45782816002015f8282546139e891906161ae565b92505081905550613a26565b6040517f06b337c200000000000000000000000000000000000000000000000000000000815260040160405180910390fd5b5b5b505050505050565b5f808203613a40575f9050613b21565b5f6001613a4c846143da565b901c6001901b90506001818481613a6657613a65615f4f565b5b048201901c90506001818481613a7f57613a7e615f4f565b5b048201901c90506001818481613a9857613a97615f4f565b5b048201901c90506001818481613ab157613ab0615f4f565b5b048201901c90506001818481613aca57613ac9615f4f565b5b048201901c90506001818481613ae357613ae2615f4f565b5b048201901c90506001818481613afc57613afb615f4f565b5b048201901c9050613b1d81828581613b1757613b16615f4f565b5b046144b1565b9150505b919050565b5f825f528160205f2001905092915050565b5f5b81831015613ba2575f613b4d84846144c9565b90508465ffffffffffff16613b628783613b26565b5f015f9054906101000a900465ffffffffffff1665ffffffffffff161115613b8c57809250613b9c565b600181613b9991906161ae565b93505b50613b3a565b819050949350505050565b5f805f8360f81c90508060ff16602f108015613bcc5750603a8160ff16105b15613be1576001603082039250925050613c3f565b8060ff166040108015613bf7575060478160ff16105b15613c0c576001603782039250925050613c3f565b8060ff166060108015613c22575060678160ff16105b15613c37576001605782039250925050613c3f565b5f8092509250505b915091565b5f63ffffffff8016821115613c93576020826040517f6dfcc650000000000000000000000000000000000000000000000000000000008152600401613c8a92919061664a565b60405180910390fd5b819050919050565b606060ff5f1b8314613cb757613cb0836144ee565b9050613d42565b818054613cc3906158db565b80601f0160208091040260200160405190810160405280929190818152602001828054613cef906158db565b8015613d3a5780601f10613d1157610100808354040283529160200191613d3a565b820191905f5260205f20905b815481529060010190602001808311613d1d57829003601f168201915b505050505090505b92915050565b5f81511115613d5a5780518082602001fd5b6040517f1425ea4200000000000000000000000000000000000000000000000000000000815260040160405180910390fd5b5f805f858054905090505f81111561400c575f613db587600184613db09190615b33565b613b26565b6040518060400160405290815f82015f9054906101000a900465ffffffffffff1665ffffffffffff1665ffffffffffff1681526020015f820160069054906101000a900479ffffffffffffffffffffffffffffffffffffffffffffffffffff1679ffffffffffffffffffffffffffffffffffffffffffffffffffff1679ffffffffffffffffffffffffffffffffffffffffffffffffffff168152505090508565ffffffffffff16815f015165ffffffffffff161115613ea0576040517f2520601d00000000000000000000000000000000000000000000000000000000815260040160405180910390fd5b8565ffffffffffff16815f015165ffffffffffff1603613f225784613ed188600185613ecc9190615b33565b613b26565b5f0160066101000a81548179ffffffffffffffffffffffffffffffffffffffffffffffffffff021916908379ffffffffffffffffffffffffffffffffffffffffffffffffffff160217905550613ffb565b8660405180604001604052808865ffffffffffff1681526020018779ffffffffffffffffffffffffffffffffffffffffffffffffffff16815250908060018154018082558091505060019003905f5260205f20015f909190919091505f820151815f015f6101000a81548165ffffffffffff021916908365ffffffffffff1602179055506020820151815f0160066101000a81548179ffffffffffffffffffffffffffffffffffffffffffffffffffff021916908379ffffffffffffffffffffffffffffffffffffffffffffffffffff16021790555050505b8060200151859350935050506140ec565b8560405180604001604052808765ffffffffffff1681526020018679ffffffffffffffffffffffffffffffffffffffffffffffffffff16815250908060018154018082558091505060019003905f5260205f20015f909190919091505f820151815f015f6101000a81548165ffffffffffff021916908365ffffffffffff1602179055506020820151815f0160066101000a81548179ffffffffffffffffffffffffffffffffffffffffffffffffffff021916908379ffffffffffffffffffffffffffffffffffffffffffffffffffff16021790555050505f8492509250505b935093915050565b5f813060601b6bffffffffffffffffffffffff1916189050919050565b5f8060075f8481526020019081526020015f2090508060020154816001015461413a91906161ae565b61414b61414685611145565b611de1565b1115915050919050565b5f8060075f8481526020019081526020015f209050805f0154816001015411915050919050565b5f8061418a86868686611c83565b90506141ee8161419a60076120fc565b6141a460066120fc565b6141ae60026120fc565b6001806007808111156141c4576141c3614d6d565b5b6141ce9190616671565b60026141da91906167d4565b6141e49190615b33565b5f1b181818612120565b50600160045f8381526020019081526020015f205f01601f6101000a81548160ff0219169083151502179055507f789cf55be980739dad1d0699b93b58e806b51c9d96619bfa8fe0a28abaa7b30c8160405161424a919061468a565b60405180910390a180915050949350505050565b5f7f8b73c3c69bb8fe3d512ecc4cf759cc79239f7b179b0ffacaa9a75d522b39400f7f00000000000000000000000000000000000000000000000000000000000000007f000000000000000000000000000000000000000000000000000000000000000046306040516020016142d895949392919061681e565b60405160208183030381529060405280519060200120905090565b5f805f7f7fffffffffffffffffffffffffffffff5d576e7357a4501ddfe92f46681b20a0845f1c111561432f575f6003859250925092506143d0565b5f6001888888886040515f8152602001604052604051614352949392919061686f565b6020604051602081039080840390855afa158015614372573d5f803e3d5ffd5b5050506020604051035190505f73ffffffffffffffffffffffffffffffffffffffff168173ffffffffffffffffffffffffffffffffffffffff16036143c3575f60015f801b935093509350506143d0565b805f805f1b935093509350505b9450945094915050565b5f805f90505f608084901c11156143f957608083901c92506080810190505b5f604084901c111561441357604083901c92506040810190505b5f602084901c111561442d57602083901c92506020810190505b5f601084901c111561444757601083901c92506010810190505b5f600884901c111561446157600883901c92506008810190505b5f600484901c111561447b57600483901c92506004810190505b5f600284901c111561449557600283901c92506002810190505b5f600184901c11156144a8576001810190505b80915050919050565b5f8183106144bf57816144c1565b825b905092915050565b5f60028284186144d99190615f7c565b8284166144e691906161ae565b905092915050565b60605f6144fa83614560565b90505f602067ffffffffffffffff8111156145185761451761482c565b5b6040519080825280601f01601f19166020018201604052801561454a5781602001600182028036833780820191505090505b5090508181528360208201528092505050919050565b5f8060ff835f1c169050601f8111156145a5576040517fb3512b0c00000000000000000000000000000000000000000000000000000000815260040160405180910390fd5b80915050919050565b5f604051905090565b5f80fd5b5f80fd5b5f7fffffffff0000000000000000000000000000000000000000000000000000000082169050919050565b6145f3816145bf565b81146145fd575f80fd5b50565b5f8135905061460e816145ea565b92915050565b5f60208284031215614629576146286145b7565b5b5f61463684828501614600565b91505092915050565b5f8115159050919050565b6146538161463f565b82525050565b5f60208201905061466c5f83018461464a565b92915050565b5f819050919050565b61468481614672565b82525050565b5f60208201905061469d5f83018461467b565b92915050565b6146ac81614672565b81146146b6575f80fd5b50565b5f813590506146c7816146a3565b92915050565b5f602082840312156146e2576146e16145b7565b5b5f6146ef848285016146b9565b91505092915050565b5f81519050919050565b5f82825260208201905092915050565b5f5b8381101561472f578082015181840152602081019050614714565b5f8484015250505050565b5f601f19601f8301169050919050565b5f614754826146f8565b61475e8185614702565b935061476e818560208601614712565b6147778161473a565b840191505092915050565b5f6020820190508181035f83015261479a818461474a565b905092915050565b5f73ffffffffffffffffffffffffffffffffffffffff82169050919050565b5f6147cb826147a2565b9050919050565b6147db816147c1565b82525050565b5f6020820190506147f45f8301846147d2565b92915050565b614803816147c1565b811461480d575f80fd5b50565b5f8135905061481e816147fa565b92915050565b5f80fd5b5f80fd5b7f4e487b71000000000000000000000000000000000000000000000000000000005f52604160045260245ffd5b6148628261473a565b810181811067ffffffffffffffff821117156148815761488061482c565b5b80604052505050565b5f6148936145ae565b905061489f8282614859565b919050565b5f67ffffffffffffffff8211156148be576148bd61482c565b5b6148c78261473a565b9050602081019050919050565b828183375f83830152505050565b5f6148f46148ef846148a4565b61488a565b9050828152602081018484840111156149105761490f614828565b5b61491b8482856148d4565b509392505050565b5f82601f83011261493757614936614824565b5b81356149478482602086016148e2565b91505092915050565b5f805f8060808587031215614968576149676145b7565b5b5f61497587828801614810565b945050602061498687828801614810565b9350506040614997878288016146b9565b925050606085013567ffffffffffffffff8111156149b8576149b76145bb565b5b6149c487828801614923565b91505092959194509250565b6149d9816145bf565b82525050565b5f6020820190506149f25f8301846149d0565b92915050565b5f67ffffffffffffffff821115614a1257614a1161482c565b5b602082029050602081019050919050565b5f80fd5b5f614a39614a34846149f8565b61488a565b90508083825260208201905060208402830185811115614a5c57614a5b614a23565b5b835b81811015614a855780614a718882614810565b845260208401935050602081019050614a5e565b5050509392505050565b5f82601f830112614aa357614aa2614824565b5b8135614ab3848260208601614a27565b91505092915050565b5f67ffffffffffffffff821115614ad657614ad561482c565b5b602082029050602081019050919050565b5f614af9614af484614abc565b61488a565b90508083825260208201905060208402830185811115614b1c57614b1b614a23565b5b835b81811015614b455780614b3188826146b9565b845260208401935050602081019050614b1e565b5050509392505050565b5f82601f830112614b6357614b62614824565b5b8135614b73848260208601614ae7565b91505092915050565b5f67ffffffffffffffff821115614b9657614b9561482c565b5b602082029050602081019050919050565b5f614bb9614bb484614b7c565b61488a565b90508083825260208201905060208402830185811115614bdc57614bdb614a23565b5b835b81811015614c2357803567ffffffffffffffff811115614c0157614c00614824565b5b808601614c0e8982614923565b85526020850194505050602081019050614bde565b5050509392505050565b5f82601f830112614c4157614c40614824565b5b8135614c51848260208601614ba7565b91505092915050565b5f819050919050565b614c6c81614c5a565b8114614c76575f80fd5b50565b5f81359050614c8781614c63565b92915050565b5f805f8060808587031215614ca557614ca46145b7565b5b5f85013567ffffffffffffffff811115614cc257614cc16145bb565b5b614cce87828801614a8f565b945050602085013567ffffffffffffffff811115614cef57614cee6145bb565b5b614cfb87828801614b4f565b935050604085013567ffffffffffffffff811115614d1c57614d1b6145bb565b5b614d2887828801614c2d565b9250506060614d3987828801614c79565b91505092959194509250565b614d4e81614c5a565b82525050565b5f602082019050614d675f830184614d45565b92915050565b7f4e487b71000000000000000000000000000000000000000000000000000000005f52602160045260245ffd5b60088110614dab57614daa614d6d565b5b50565b5f819050614dbb82614d9a565b919050565b5f614dca82614dae565b9050919050565b614dda81614dc0565b82525050565b5f602082019050614df35f830184614dd1565b92915050565b5f8060408385031215614e0f57614e0e6145b7565b5b5f614e1c858286016146b9565b9250506020614e2d85828601614810565b9150509250929050565b5f606082019050614e4a5f83018661467b565b614e57602083018561467b565b614e64604083018461467b565b949350505050565b5f60ff82169050919050565b614e8181614e6c565b8114614e8b575f80fd5b50565b5f81359050614e9c81614e78565b92915050565b5f8060408385031215614eb857614eb76145b7565b5b5f614ec5858286016146b9565b9250506020614ed685828601614e8e565b9150509250929050565b5f80fd5b5f8083601f840112614ef957614ef8614824565b5b8235905067ffffffffffffffff811115614f1657614f15614ee0565b5b602083019150836001820283011115614f3257614f31614a23565b5b9250929050565b5f805f805f805f60c0888a031215614f5457614f536145b7565b5b5f614f618a828b016146b9565b9750506020614f728a828b01614e8e565b9650506040614f838a828b01614810565b955050606088013567ffffffffffffffff811115614fa457614fa36145bb565b5b614fb08a828b01614ee4565b9450945050608088013567ffffffffffffffff811115614fd357614fd26145bb565b5b614fdf8a828b01614923565b92505060a088013567ffffffffffffffff81111561500057614fff6145bb565b5b61500c8a828b01614923565b91505092959891949750929550565b5f805f805f60808688031215615034576150336145b7565b5b5f615041888289016146b9565b955050602061505288828901614e8e565b945050604086013567ffffffffffffffff811115615073576150726145bb565b5b61507f88828901614ee4565b9350935050606086013567ffffffffffffffff8111156150a2576150a16145bb565b5b6150ae88828901614923565b9150509295509295909350565b5f805f80606085870312156150d3576150d26145b7565b5b5f6150e0878288016146b9565b94505060206150f187828801614e8e565b935050604085013567ffffffffffffffff811115615112576151116145bb565b5b61511e87828801614ee4565b925092505092959194509250565b5f67ffffffffffffffff8211156151465761514561482c565b5b61514f8261473a565b9050602081019050919050565b5f61516e6151698461512c565b61488a565b90508281526020810184848401111561518a57615189614828565b5b6151958482856148d4565b509392505050565b5f82601f8301126151b1576151b0614824565b5b81356151c184826020860161515c565b91505092915050565b5f805f80608085870312156151e2576151e16145b7565b5b5f85013567ffffffffffffffff8111156151ff576151fe6145bb565b5b61520b87828801614a8f565b945050602085013567ffffffffffffffff81111561522c5761522b6145bb565b5b61523887828801614b4f565b935050604085013567ffffffffffffffff811115615259576152586145bb565b5b61526587828801614c2d565b925050606085013567ffffffffffffffff811115615286576152856145bb565b5b6152928782880161519d565b91505092959194509250565b5f602082840312156152b3576152b26145b7565b5b5f6152c084828501614810565b91505092915050565b5f7fff0000000000000000000000000000000000000000000000000000000000000082169050919050565b6152fd816152c9565b82525050565b5f81519050919050565b5f82825260208201905092915050565b5f819050602082019050919050565b61533581614672565b82525050565b5f615346838361532c565b60208301905092915050565b5f602082019050919050565b5f61536882615303565b615372818561530d565b935061537d8361531d565b805f5b838110156153ad578151615394888261533b565b975061539f83615352565b925050600181019050615380565b5085935050505092915050565b5f60e0820190506153cd5f83018a6152f4565b81810360208301526153df818961474a565b905081810360408301526153f3818861474a565b9050615402606083018761467b565b61540f60808301866147d2565b61541c60a0830185614d45565b81810360c083015261542e818461535e565b905098975050505050505050565b5f805f8060808587031215615454576154536145b7565b5b5f615461878288016146b9565b945050602061547287828801614e8e565b935050604061548387828801614810565b925050606085013567ffffffffffffffff8111156154a4576154a36145bb565b5b6154b087828801614923565b91505092959194509250565b5f65ffffffffffff82169050919050565b6154d6816154bc565b82525050565b5f6020820190506154ef5f8301846154cd565b92915050565b5f805f6060848603121561550c5761550b6145b7565b5b5f61551986828701614810565b935050602061552a868287016146b9565b925050604084013567ffffffffffffffff81111561554b5761554a6145bb565b5b61555786828701614923565b9150509250925092565b5f61556b826147a2565b9050919050565b5f61557c82615561565b9050919050565b61558c81615572565b8114615596575f80fd5b50565b5f813590506155a781615583565b92915050565b5f602082840312156155c2576155c16145b7565b5b5f6155cf84828501615599565b91505092915050565b5f805f805f60a086880312156155f1576155f06145b7565b5b5f6155fe88828901614810565b955050602061560f88828901614810565b945050604086013567ffffffffffffffff8111156156305761562f6145bb565b5b61563c88828901614b4f565b935050606086013567ffffffffffffffff81111561565d5761565c6145bb565b5b61566988828901614b4f565b925050608086013567ffffffffffffffff81111561568a576156896145bb565b5b61569688828901614923565b9150509295509295909350565b5f8083601f8401126156b8576156b7614824565b5b8235905067ffffffffffffffff8111156156d5576156d4614ee0565b5b6020830191508360018202830111156156f1576156f0614a23565b5b9250929050565b5f805f80606085870312156157105761570f6145b7565b5b5f61571d87828801614810565b945050602061572e878288016146b9565b935050604085013567ffffffffffffffff81111561574f5761574e6145bb565b5b61575b878288016156a3565b925092505092959194509250565b5f806040838503121561577f5761577e6145b7565b5b5f61578c85828601614810565b925050602061579d858286016146b9565b9150509250929050565b5f805f805f60a086880312156157c0576157bf6145b7565b5b5f6157cd88828901614810565b95505060206157de88828901614810565b94505060406157ef888289016146b9565b9350506060615800888289016146b9565b925050608086013567ffffffffffffffff811115615821576158206145bb565b5b61582d88828901614923565b9150509295509295909350565b5f819050919050565b5f61585d615858615853846147a2565b61583a565b6147a2565b9050919050565b5f61586e82615843565b9050919050565b5f61587f82615864565b9050919050565b61588f81615875565b82525050565b5f6020820190506158a85f830184615886565b92915050565b7f4e487b71000000000000000000000000000000000000000000000000000000005f52602260045260245ffd5b5f60028204905060018216806158f257607f821691505b602082108103615905576159046158ae565b5b50919050565b5f61592561592061591b846154bc565b61583a565b614672565b9050919050565b6159358161590b565b82525050565b5f60408201905061594e5f83018561467b565b61595b602083018461592c565b9392505050565b7f4e487b71000000000000000000000000000000000000000000000000000000005f52603260045260245ffd5b5f6159a161599c8461512c565b61488a565b9050828152602081018484840111156159bd576159bc614828565b5b6159c8848285614712565b509392505050565b5f82601f8301126159e4576159e3614824565b5b81516159f484826020860161598f565b91505092915050565b5f60208284031215615a1257615a116145b7565b5b5f82015167ffffffffffffffff811115615a2f57615a2e6145bb565b5b615a3b848285016159d0565b91505092915050565b5f81905092915050565b5f615a598385615a44565b9350615a668385846148d4565b82840190509392505050565b5f615a7e828486615a4e565b91508190509392505050565b615a9381614e6c565b82525050565b5f60e082019050615aac5f83018a614d45565b615ab9602083018961467b565b615ac66040830188615a8a565b615ad360608301876147d2565b615ae0608083018661467b565b615aed60a0830185614d45565b615afa60c0830184614d45565b98975050505050505050565b7f4e487b71000000000000000000000000000000000000000000000000000000005f52601160045260245ffd5b5f615b3d82614672565b9150615b4883614672565b9250828203905081811115615b6057615b5f615b06565b5b92915050565b5f615b70826154bc565b9150615b7b836154bc565b9250828203905065ffffffffffff811115615b9957615b98615b06565b5b92915050565b5f606082019050615bb25f8301866147d2565b615bbf602083018561467b565b615bcc604083018461467b565b949350505050565b5f60a082019050615be75f830188614d45565b615bf4602083018761467b565b615c016040830186615a8a565b615c0e60608301856147d2565b615c1b608083018461467b565b9695505050505050565b615c2e816154bc565b8114615c38575f80fd5b50565b5f81519050615c4981615c25565b92915050565b5f60208284031215615c6457615c636145b7565b5b5f615c7184828501615c3b565b91505092915050565b5f615c84826154bc565b9150615c8f836154bc565b9250828201905065ffffffffffff811115615cad57615cac615b06565b5b92915050565b5f81519050919050565b5f82825260208201905092915050565b5f819050602082019050919050565b615ce5816147c1565b82525050565b5f615cf68383615cdc565b60208301905092915050565b5f602082019050919050565b5f615d1882615cb3565b615d228185615cbd565b9350615d2d83615ccd565b805f5b83811015615d5d578151615d448882615ceb565b9750615d4f83615d02565b925050600181019050615d30565b5085935050505092915050565b5f81519050919050565b5f82825260208201905092915050565b5f819050602082019050919050565b5f81519050919050565b5f82825260208201905092915050565b5f615db782615d93565b615dc18185615d9d565b9350615dd1818560208601614712565b615dda8161473a565b840191505092915050565b5f615df08383615dad565b905092915050565b5f602082019050919050565b5f615e0e82615d6a565b615e188185615d74565b935083602082028501615e2a85615d84565b805f5b85811015615e655784840389528151615e468582615de5565b9450615e5183615df8565b925060208a01995050600181019050615e2d565b50829750879550505050505092915050565b5f6080820190508181035f830152615e8f8187615d0e565b90508181036020830152615ea3818661535e565b90508181036040830152615eb78185615e04565b9050615ec66060830184614d45565b95945050505050565b5f81519050615edd816146a3565b92915050565b5f60208284031215615ef857615ef76145b7565b5b5f615f0584828501615ecf565b91505092915050565b5f615f1882614672565b9150615f2383614672565b9250828202615f3181614672565b91508282048414831517615f4857615f47615b06565b5b5092915050565b7f4e487b71000000000000000000000000000000000000000000000000000000005f52601260045260245ffd5b5f615f8682614672565b9150615f9183614672565b925082615fa157615fa0615f4f565b5b828204905092915050565b5f604082019050615fbf5f83018561467b565b615fcc602083018461467b565b9392505050565b5f606082019050615fe65f83018661467b565b615ff36020830185614dd1565b6160006040830184614d45565b949350505050565b6160118161463f565b811461601b575f80fd5b50565b5f8151905061602c81616008565b92915050565b5f60208284031215616047576160466145b7565b5b5f6160548482850161601e565b91505092915050565b5f6080820190506160705f83018761467b565b61607d6020830186615a8a565b61608a604083018561467b565b818103606083015261609c818461474a565b905095945050505050565b5f82825260208201905092915050565b5f6160c182615d93565b6160cb81856160a7565b93506160db818560208601614712565b6160e48161473a565b840191505092915050565b5f60a0820190506161025f83018861467b565b61610f6020830187615a8a565b61611c604083018661467b565b818103606083015261612e818561474a565b9050818103608083015261614281846160b7565b90509695505050505050565b5f819050919050565b5f61617161616c6161678461614e565b61583a565b614e6c565b9050919050565b61618181616157565b82525050565b5f60408201905061619a5f830185616178565b6161a7602083018461467b565b9392505050565b5f6161b882614672565b91506161c383614672565b92508282019050808211156161db576161da615b06565b5b92915050565b5f81519050919050565b5f82825260208201905092915050565b5f819050602082019050919050565b5f82825260208201905092915050565b5f616224826146f8565b61622e818561620a565b935061623e818560208601614712565b6162478161473a565b840191505092915050565b5f61625d838361621a565b905092915050565b5f602082019050919050565b5f61627b826161e1565b61628581856161eb565b935083602082028501616297856161fb565b805f5b858110156162d257848403895281516162b38582616252565b94506162be83616265565b925060208a0199505060018101905061629a565b50829750879550505050505092915050565b5f610120820190506162f85f83018c61467b565b616305602083018b6147d2565b8181036040830152616317818a615d0e565b9050818103606083015261632b818961535e565b9050818103608083015261633f8188616271565b905081810360a08301526163538187615e04565b905061636260c083018661467b565b61636f60e083018561467b565b818103610100830152616382818461474a565b90509a9950505050505050505050565b5f6040820190506163a55f8301856147d2565b6163b2602083018461467b565b9392505050565b5f6040820190506163cc5f8301856147d2565b6163d960208301846147d2565b9392505050565b5f819050919050565b5f6164036163fe6163f9846163e0565b61583a565b614e6c565b9050919050565b616413816163e9565b82525050565b5f60408201905061642c5f83018561640a565b616439602083018461467b565b9392505050565b5f819050919050565b5f815f1b9050919050565b5f61646e61646961646484616440565b616449565b614c5a565b9050919050565b61647e81616454565b82525050565b5f60a0820190508181035f83015261649c8188615d0e565b905081810360208301526164b0818761535e565b905081810360408301526164c48186615e04565b90506164d36060830185616475565b6164e06080830184614d45565b9695505050505050565b5f815190506164f881614c63565b92915050565b5f60208284031215616513576165126145b7565b5b5f616520848285016164ea565b91505092915050565b5f60c0820190508181035f8301526165418189615d0e565b90508181036020830152616555818861535e565b905081810360408301526165698187615e04565b90506165786060830186616475565b6165856080830185614d45565b61659260a083018461467b565b979650505050505050565b5f6040820190506165b05f830185614d45565b81810360208301526165c281846160b7565b90509392505050565b5f6165d582615d93565b6165df8185615a44565b93506165ef818560208601614712565b80840191505092915050565b5f61660682846165cb565b915081905092915050565b5f819050919050565b5f61663461662f61662a84616611565b61583a565b614e6c565b9050919050565b6166448161661a565b82525050565b5f60408201905061665d5f83018561663b565b61666a602083018461467b565b9392505050565b5f61667b82614e6c565b915061668683614e6c565b9250828201905060ff81111561669f5761669e615b06565b5b92915050565b5f8160011c9050919050565b5f808291508390505b60018511156166fa578086048111156166d6576166d5615b06565b5b60018516156166e55780820291505b80810290506166f3856166a5565b94506166ba565b94509492505050565b5f8261671257600190506167cd565b8161671f575f90506167cd565b8160018114616735576002811461673f5761676e565b60019150506167cd565b60ff84111561675157616750615b06565b5b8360020a91508482111561676857616767615b06565b5b506167cd565b5060208310610133831016604e8410600b84101617156167a35782820a90508381111561679e5761679d615b06565b5b6167cd565b6167b084848460016166b1565b925090508184048111156167c7576167c6615b06565b5b81810290505b9392505050565b5f6167de82614672565b91506167e983614e6c565b92506168167fffffffffffffffffffffffffffffffffffffffffffffffffffffffffffffffff8484616703565b905092915050565b5f60a0820190506168315f830188614d45565b61683e6020830187614d45565b61684b6040830186614d45565b616858606083018561467b565b61686560808301846147d2565b9695505050505050565b5f6080820190506168825f830187614d45565b61688f6020830186615a8a565b61689c6040830185614d45565b6168a96060830184614d45565b9594505050505056fea2646970667358221220fc5e89285f60961b9c20da4764cf25254692d5d61e6663d8ec2d2f552098a08f64736f6c63430008160033",
			"opcodes": "PUSH2 0x180 PUSH1 0x40 MSTORE CALLVALUE DUP1 ISZERO PUSH3 0x11 JUMPI PUSH0 DUP1 REVERT JUMPDEST POP PUSH1 0x40 MLOAD PUSH3 0x7C0C CODESIZE SUB DUP1 PUSH3 0x7C0C DUP4 CODECOPY DUP2 DUP2 ADD PUSH1 0x40 MSTORE DUP2 ADD SWAP1 PUSH3 0x37 SWAP2 SWAP1 PUSH3 0xB49 JUMP JUMPDEST DUP1 PUSH1 0x4 DUP4 PUSH1 0x40 MLOAD DUP1 PUSH1 0x40 ADD PUSH1 0x40 MSTORE DUP1 PUSH1 0x9 DUP2 MSTORE PUSH1 0x20 ADD PUSH32 0x50617A69746F44616F0000000000000000000000000000000000000000000000 DUP2 MSTORE POP DUP1 PUSH3 0x82 PUSH3 0x1A6 PUSH1 0x20 SHL PUSH1 0x20 SHR JUMP JUMPDEST PUSH3 0x97 PUSH0 DUP4 PUSH3 0x1E3 PUSH1 0x20 SHL SWAP1 SWAP2 SWAP1 PUSH1 0x20 SHR JUMP JUMPDEST PUSH2 0x120 DUP2 DUP2 MSTORE POP POP PUSH3 0xB5 PUSH1 0x1 DUP3 PUSH3 0x1E3 PUSH1 0x20 SHL SWAP1 SWAP2 SWAP1 PUSH1 0x20 SHR JUMP JUMPDEST PUSH2 0x140 DUP2 DUP2 MSTORE POP POP DUP2 DUP1 MLOAD SWAP1 PUSH1 0x20 ADD KECCAK256 PUSH1 0xE0 DUP2 DUP2 MSTORE POP POP DUP1 DUP1 MLOAD SWAP1 PUSH1 0x20 ADD KECCAK256 PUSH2 0x100 DUP2 DUP2 MSTORE POP POP CHAINID PUSH1 0xA0 DUP2 DUP2 MSTORE POP POP PUSH3 0xF4 PUSH3 0x238 PUSH1 0x20 SHL PUSH1 0x20 SHR JUMP JUMPDEST PUSH1 0x80 DUP2 DUP2 MSTORE POP POP ADDRESS PUSH20 0xFFFFFFFFFFFFFFFFFFFFFFFFFFFFFFFFFFFFFFFF AND PUSH1 0xC0 DUP2 PUSH20 0xFFFFFFFFFFFFFFFFFFFFFFFFFFFFFFFFFFFFFFFF AND DUP2 MSTORE POP POP POP POP DUP1 PUSH1 0x3 SWAP1 DUP2 PUSH3 0x142 SWAP2 SWAP1 PUSH3 0xDF2 JUMP JUMPDEST POP POP DUP1 PUSH20 0xFFFFFFFFFFFFFFFFFFFFFFFFFFFFFFFFFFFFFFFF AND PUSH2 0x160 DUP2 PUSH20 0xFFFFFFFFFFFFFFFFFFFFFFFFFFFFFFFFFFFFFFFF AND DUP2 MSTORE POP POP POP PUSH3 0x18B DUP2 PUSH3 0x294 PUSH1 0x20 SHL PUSH1 0x20 SHR JUMP JUMPDEST POP PUSH3 0x19D DUP2 PUSH3 0x37D PUSH1 0x20 SHL PUSH1 0x20 SHR JUMP JUMPDEST POP POP POP PUSH3 0x12C8 JUMP JUMPDEST PUSH1 0x60 PUSH1 0x40 MLOAD DUP1 PUSH1 0x40 ADD PUSH1 0x40 MSTORE DUP1 PUSH1 0x1 DUP2 MSTORE PUSH1 0x20 ADD PUSH32 0x3100000000000000000000000000000000000000000000000000000000000000 DUP2 MSTORE POP SWAP1 POP SWAP1 JUMP JUMPDEST PUSH0 PUSH1 0x20 DUP4 MLOAD LT ISZERO PUSH3 0x208 JUMPI PUSH3 0x200 DUP4 PUSH3 0x41C PUSH1 0x20 SHL PUSH1 0x20 SHR JUMP JUMPDEST SWAP1 POP PUSH3 0x232 JUMP JUMPDEST DUP3 PUSH3 0x21A DUP4 PUSH3 0x486 PUSH1 0x20 SHL PUSH1 0x20 SHR JUMP JUMPDEST PUSH0 ADD SWAP1 DUP2 PUSH3 0x22A SWAP2 SWAP1 PUSH3 0xDF2 JUMP JUMPDEST POP PUSH1 0xFF PUSH0 SHL SWAP1 POP JUMPDEST SWAP3 SWAP2 POP POP JUMP JUMPDEST PUSH0 PUSH32 0x8B73C3C69BB8FE3D512ECC4CF759CC79239F7B179B0FFACAA9A75D522B39400F PUSH1 0xE0 MLOAD PUSH2 0x100 MLOAD CHAINID ADDRESS PUSH1 0x40 MLOAD PUSH1 0x20 ADD PUSH3 0x279 SWAP6 SWAP5 SWAP4 SWAP3 SWAP2 SWAP1 PUSH3 0xF12 JUMP JUMPDEST PUSH1 0x40 MLOAD PUSH1 0x20 DUP2 DUP4 SUB SUB DUP2 MSTORE SWAP1 PUSH1 0x40 MSTORE DUP1 MLOAD SWAP1 PUSH1 0x20 ADD KECCAK256 SWAP1 POP SWAP1 JUMP JUMPDEST PUSH0 PUSH3 0x2A5 PUSH3 0x48F PUSH1 0x20 SHL PUSH1 0x20 SHR JUMP JUMPDEST SWAP1 POP DUP1 DUP3 GT ISZERO PUSH3 0x2F1 JUMPI DUP2 DUP2 PUSH1 0x40 MLOAD PUSH32 0x243E544500000000000000000000000000000000000000000000000000000000 DUP2 MSTORE PUSH1 0x4 ADD PUSH3 0x2E8 SWAP3 SWAP2 SWAP1 PUSH3 0xF6D JUMP JUMPDEST PUSH1 0x40 MLOAD DUP1 SWAP2 SUB SWAP1 REVERT JUMPDEST PUSH0 PUSH3 0x302 PUSH3 0x497 PUSH1 0x20 SHL PUSH1 0x20 SHR JUMP JUMPDEST SWAP1 POP PUSH3 0x33B PUSH3 0x318 PUSH3 0x4CB PUSH1 0x20 SHL PUSH1 0x20 SHR JUMP JUMPDEST PUSH3 0x329 DUP6 PUSH3 0x56B PUSH1 0x20 SHL PUSH1 0x20 SHR JUMP JUMPDEST PUSH1 0x8 PUSH3 0x5DB PUSH1 0x20 SHL SWAP1 SWAP3 SWAP2 SWAP1 PUSH1 0x20 SHR JUMP JUMPDEST POP POP PUSH32 0x553476BF02EF2726E8CE5CED78D63E26E602E4A2257B1F559418E24B4633997 DUP2 DUP5 PUSH1 0x40 MLOAD PUSH3 0x370 SWAP3 SWAP2 SWAP1 PUSH3 0xF6D JUMP JUMPDEST PUSH1 0x40 MLOAD DUP1 SWAP2 SUB SWAP1 LOG1 POP POP POP JUMP JUMPDEST PUSH32 0x8F74EA46EF7894F65EABFB5E6E695DE773A000B47C529AB559178069B226401 PUSH1 0x9 PUSH0 SWAP1 SLOAD SWAP1 PUSH2 0x100 EXP SWAP1 DIV PUSH20 0xFFFFFFFFFFFFFFFFFFFFFFFFFFFFFFFFFFFFFFFF AND DUP3 PUSH1 0x40 MLOAD PUSH3 0x3D1 SWAP3 SWAP2 SWAP1 PUSH3 0xF98 JUMP JUMPDEST PUSH1 0x40 MLOAD DUP1 SWAP2 SUB SWAP1 LOG1 DUP1 PUSH1 0x9 PUSH0 PUSH2 0x100 EXP DUP2 SLOAD DUP2 PUSH20 0xFFFFFFFFFFFFFFFFFFFFFFFFFFFFFFFFFFFFFFFF MUL NOT AND SWAP1 DUP4 PUSH20 0xFFFFFFFFFFFFFFFFFFFFFFFFFFFFFFFFFFFFFFFF AND MUL OR SWAP1 SSTORE POP POP JUMP JUMPDEST PUSH0 DUP1 DUP3 SWAP1 POP PUSH1 0x1F DUP2 MLOAD GT ISZERO PUSH3 0x46B JUMPI DUP3 PUSH1 0x40 MLOAD PUSH32 0x305A27A900000000000000000000000000000000000000000000000000000000 DUP2 MSTORE PUSH1 0x4 ADD PUSH3 0x462 SWAP2 SWAP1 PUSH3 0x104D JUMP JUMPDEST PUSH1 0x40 MLOAD DUP1 SWAP2 SUB SWAP1 REVERT JUMPDEST DUP1 MLOAD DUP2 PUSH3 0x479 SWAP1 PUSH3 0x109E JUMP JUMPDEST PUSH0 SHR OR PUSH0 SHL SWAP2 POP POP SWAP2 SWAP1 POP JUMP JUMPDEST PUSH0 DUP2 SWAP1 POP SWAP2 SWAP1 POP JUMP JUMPDEST PUSH0 PUSH1 0x64 SWAP1 POP SWAP1 JUMP JUMPDEST PUSH0 PUSH3 0x4AA PUSH1 0x8 PUSH3 0x5FE PUSH1 0x20 SHL PUSH1 0x20 SHR JUMP JUMPDEST PUSH26 0xFFFFFFFFFFFFFFFFFFFFFFFFFFFFFFFFFFFFFFFFFFFFFFFFFFFF AND SWAP1 POP SWAP1 JUMP JUMPDEST PUSH0 PUSH3 0x4DC PUSH3 0x66C PUSH1 0x20 SHL PUSH1 0x20 SHR JUMP JUMPDEST PUSH20 0xFFFFFFFFFFFFFFFFFFFFFFFFFFFFFFFFFFFFFFFF AND PUSH4 0x91DDADF4 PUSH1 0x40 MLOAD DUP2 PUSH4 0xFFFFFFFF AND PUSH1 0xE0 SHL DUP2 MSTORE PUSH1 0x4 ADD PUSH1 0x20 PUSH1 0x40 MLOAD DUP1 DUP4 SUB DUP2 DUP7 GAS STATICCALL SWAP3 POP POP POP DUP1 ISZERO PUSH3 0x546 JUMPI POP PUSH1 0x40 MLOAD RETURNDATASIZE PUSH1 0x1F NOT PUSH1 0x1F DUP3 ADD AND DUP3 ADD DUP1 PUSH1 0x40 MSTORE POP DUP2 ADD SWAP1 PUSH3 0x543 SWAP2 SWAP1 PUSH3 0x114D JUMP JUMPDEST PUSH1 0x1 JUMPDEST PUSH3 0x563 JUMPI PUSH3 0x55B PUSH3 0x676 PUSH1 0x20 SHL PUSH1 0x20 SHR JUMP JUMPDEST SWAP1 POP PUSH3 0x568 JUMP JUMPDEST DUP1 SWAP2 POP POP JUMPDEST SWAP1 JUMP JUMPDEST PUSH0 PUSH26 0xFFFFFFFFFFFFFFFFFFFFFFFFFFFFFFFFFFFFFFFFFFFFFFFFFFFF DUP1 AND DUP3 GT ISZERO PUSH3 0x5D3 JUMPI PUSH1 0xD0 DUP3 PUSH1 0x40 MLOAD PUSH32 0x6DFCC65000000000000000000000000000000000000000000000000000000000 DUP2 MSTORE PUSH1 0x4 ADD PUSH3 0x5CA SWAP3 SWAP2 SWAP1 PUSH3 0x11CA JUMP JUMPDEST PUSH1 0x40 MLOAD DUP1 SWAP2 SUB SWAP1 REVERT JUMPDEST DUP2 SWAP1 POP SWAP2 SWAP1 POP JUMP JUMPDEST PUSH0 DUP1 PUSH3 0x5F2 DUP6 PUSH0 ADD DUP6 DUP6 PUSH3 0x68D PUSH1 0x20 SHL PUSH1 0x20 SHR JUMP JUMPDEST SWAP2 POP SWAP2 POP SWAP4 POP SWAP4 SWAP2 POP POP JUMP JUMPDEST PUSH0 DUP1 DUP3 PUSH0 ADD DUP1 SLOAD SWAP1 POP SWAP1 POP PUSH0 DUP2 EQ PUSH3 0x662 JUMPI PUSH3 0x633 DUP4 PUSH0 ADD PUSH1 0x1 DUP4 PUSH3 0x627 SWAP2 SWAP1 PUSH3 0x1222 JUMP JUMPDEST PUSH3 0xA0E PUSH1 0x20 SHL PUSH1 0x20 SHR JUMP JUMPDEST PUSH0 ADD PUSH1 0x6 SWAP1 SLOAD SWAP1 PUSH2 0x100 EXP SWAP1 DIV PUSH26 0xFFFFFFFFFFFFFFFFFFFFFFFFFFFFFFFFFFFFFFFFFFFFFFFFFFFF AND PUSH3 0x664 JUMP JUMPDEST PUSH0 JUMPDEST SWAP2 POP POP SWAP2 SWAP1 POP JUMP JUMPDEST PUSH0 PUSH2 0x160 MLOAD SWAP1 POP SWAP1 JUMP JUMPDEST PUSH0 PUSH3 0x688 NUMBER PUSH3 0xA20 PUSH1 0x20 SHL PUSH1 0x20 SHR JUMP JUMPDEST SWAP1 POP SWAP1 JUMP JUMPDEST PUSH0 DUP1 PUSH0 DUP6 DUP1 SLOAD SWAP1 POP SWAP1 POP PUSH0 DUP2 GT ISZERO PUSH3 0x926 JUMPI PUSH0 PUSH3 0x6C1 DUP8 PUSH1 0x1 DUP5 PUSH3 0x6B5 SWAP2 SWAP1 PUSH3 0x1222 JUMP JUMPDEST PUSH3 0xA0E PUSH1 0x20 SHL PUSH1 0x20 SHR JUMP JUMPDEST PUSH1 0x40 MLOAD DUP1 PUSH1 0x40 ADD PUSH1 0x40 MSTORE SWAP1 DUP2 PUSH0 DUP3 ADD PUSH0 SWAP1 SLOAD SWAP1 PUSH2 0x100 EXP SWAP1 DIV PUSH6 0xFFFFFFFFFFFF AND PUSH6 0xFFFFFFFFFFFF AND PUSH6 0xFFFFFFFFFFFF AND DUP2 MSTORE PUSH1 0x20 ADD PUSH0 DUP3 ADD PUSH1 0x6 SWAP1 SLOAD SWAP1 PUSH2 0x100 EXP SWAP1 DIV PUSH26 0xFFFFFFFFFFFFFFFFFFFFFFFFFFFFFFFFFFFFFFFFFFFFFFFFFFFF AND PUSH26 0xFFFFFFFFFFFFFFFFFFFFFFFFFFFFFFFFFFFFFFFFFFFFFFFFFFFF AND PUSH26 0xFFFFFFFFFFFFFFFFFFFFFFFFFFFFFFFFFFFFFFFFFFFFFFFFFFFF AND DUP2 MSTORE POP POP SWAP1 POP DUP6 PUSH6 0xFFFFFFFFFFFF AND DUP2 PUSH0 ADD MLOAD PUSH6 0xFFFFFFFFFFFF AND GT ISZERO PUSH3 0x7AD JUMPI PUSH1 0x40 MLOAD PUSH32 0x2520601D00000000000000000000000000000000000000000000000000000000 DUP2 MSTORE PUSH1 0x4 ADD PUSH1 0x40 MLOAD DUP1 SWAP2 SUB SWAP1 REVERT JUMPDEST DUP6 PUSH6 0xFFFFFFFFFFFF AND DUP2 PUSH0 ADD MLOAD PUSH6 0xFFFFFFFFFFFF AND SUB PUSH3 0x83B JUMPI DUP5 PUSH3 0x7E9 DUP9 PUSH1 0x1 DUP6 PUSH3 0x7DD SWAP2 SWAP1 PUSH3 0x1222 JUMP JUMPDEST PUSH3 0xA0E PUSH1 0x20 SHL PUSH1 0x20 SHR JUMP JUMPDEST PUSH0 ADD PUSH1 0x6 PUSH2 0x100 EXP DUP2 SLOAD DUP2 PUSH26 0xFFFFFFFFFFFFFFFFFFFFFFFFFFFFFFFFFFFFFFFFFFFFFFFFFFFF MUL NOT AND SWAP1 DUP4 PUSH26 0xFFFFFFFFFFFFFFFFFFFFFFFFFFFFFFFFFFFFFFFFFFFFFFFFFFFF AND MUL OR SWAP1 SSTORE POP PUSH3 0x914 JUMP JUMPDEST DUP7 PUSH1 0x40 MLOAD DUP1 PUSH1 0x40 ADD PUSH1 0x40 MSTORE DUP1 DUP9 PUSH6 0xFFFFFFFFFFFF AND DUP2 MSTORE PUSH1 0x20 ADD DUP8 PUSH26 0xFFFFFFFFFFFFFFFFFFFFFFFFFFFFFFFFFFFFFFFFFFFFFFFFFFFF AND DUP2 MSTORE POP SWAP1 DUP1 PUSH1 0x1 DUP2 SLOAD ADD DUP1 DUP3 SSTORE DUP1 SWAP2 POP POP PUSH1 0x1 SWAP1 SUB SWAP1 PUSH0 MSTORE PUSH1 0x20 PUSH0 KECCAK256 ADD PUSH0 SWAP1 SWAP2 SWAP1 SWAP2 SWAP1 SWAP2 POP PUSH0 DUP3 ADD MLOAD DUP2 PUSH0 ADD PUSH0 PUSH2 0x100 EXP DUP2 SLOAD DUP2 PUSH6 0xFFFFFFFFFFFF MUL NOT AND SWAP1 DUP4 PUSH6 0xFFFFFFFFFFFF AND MUL OR SWAP1 SSTORE POP PUSH1 0x20 DUP3 ADD MLOAD DUP2 PUSH0 ADD PUSH1 0x6 PUSH2 0x100 EXP DUP2 SLOAD DUP2 PUSH26 0xFFFFFFFFFFFFFFFFFFFFFFFFFFFFFFFFFFFFFFFFFFFFFFFFFFFF MUL NOT AND SWAP1 DUP4 PUSH26 0xFFFFFFFFFFFFFFFFFFFFFFFFFFFFFFFFFFFFFFFFFFFFFFFFFFFF AND MUL OR SWAP1 SSTORE POP POP POP JUMPDEST DUP1 PUSH1 0x20 ADD MLOAD DUP6 SWAP4 POP SWAP4 POP POP POP PUSH3 0xA06 JUMP JUMPDEST DUP6 PUSH1 0x40 MLOAD DUP1 PUSH1 0x40 ADD PUSH1 0x40 MSTORE DUP1 DUP8 PUSH6 0xFFFFFFFFFFFF AND DUP2 MSTORE PUSH1 0x20 ADD DUP7 PUSH26 0xFFFFFFFFFFFFFFFFFFFFFFFFFFFFFFFFFFFFFFFFFFFFFFFFFFFF AND DUP2 MSTORE POP SWAP1 DUP1 PUSH1 0x1 DUP2 SLOAD ADD DUP1 DUP3 SSTORE DUP1 SWAP2 POP POP PUSH1 0x1 SWAP1 SUB SWAP1 PUSH0 MSTORE PUSH1 0x20 PUSH0 KECCAK256 ADD PUSH0 SWAP1 SWAP2 SWAP1 SWAP2 SWAP1 SWAP2 POP PUSH0 DUP3 ADD MLOAD DUP2 PUSH0 ADD PUSH0 PUSH2 0x100 EXP DUP2 SLOAD DUP2 PUSH6 0xFFFFFFFFFFFF MUL NOT AND SWAP1 DUP4 PUSH6 0xFFFFFFFFFFFF AND MUL OR SWAP1 SSTORE POP PUSH1 0x20 DUP3 ADD MLOAD DUP2 PUSH0 ADD PUSH1 0x6 PUSH2 0x100 EXP DUP2 SLOAD DUP2 PUSH26 0xFFFFFFFFFFFFFFFFFFFFFFFFFFFFFFFFFFFFFFFFFFFFFFFFFFFF MUL NOT AND SWAP1 DUP4 PUSH26 0xFFFFFFFFFFFFFFFFFFFFFFFFFFFFFFFFFFFFFFFFFFFFFFFFFFFF AND MUL OR SWAP1 SSTORE POP POP POP PUSH0 DUP5 SWAP3 POP SWAP3 POP POP JUMPDEST SWAP4 POP SWAP4 SWAP2 POP POP JUMP JUMPDEST PUSH0 DUP3 PUSH0 MSTORE DUP2 PUSH1 0x20 PUSH0 KECCAK256 ADD SWAP1 POP SWAP3 SWAP2 POP POP JUMP JUMPDEST PUSH0 PUSH6 0xFFFFFFFFFFFF DUP1 AND DUP3 GT ISZERO PUSH3 0xA74 JUMPI PUSH1 0x30 DUP3 PUSH1 0x40 MLOAD PUSH32 0x6DFCC65000000000000000000000000000000000000000000000000000000000 DUP2 MSTORE PUSH1 0x4 ADD PUSH3 0xA6B SWAP3 SWAP2 SWAP1 PUSH3 0x129D JUMP JUMPDEST PUSH1 0x40 MLOAD DUP1 SWAP2 SUB SWAP1 REVERT JUMPDEST DUP2 SWAP1 POP SWAP2 SWAP1 POP JUMP JUMPDEST PUSH0 DUP1 REVERT JUMPDEST PUSH0 PUSH20 0xFFFFFFFFFFFFFFFFFFFFFFFFFFFFFFFFFFFFFFFF DUP3 AND SWAP1 POP SWAP2 SWAP1 POP JUMP JUMPDEST PUSH0 PUSH3 0xAAB DUP3 PUSH3 0xA80 JUMP JUMPDEST SWAP1 POP SWAP2 SWAP1 POP JUMP JUMPDEST PUSH0 PUSH3 0xABE DUP3 PUSH3 0xA9F JUMP JUMPDEST SWAP1 POP SWAP2 SWAP1 POP JUMP JUMPDEST PUSH3 0xAD0 DUP2 PUSH3 0xAB2 JUMP JUMPDEST DUP2 EQ PUSH3 0xADB JUMPI PUSH0 DUP1 REVERT JUMPDEST POP JUMP JUMPDEST PUSH0 DUP2 MLOAD SWAP1 POP PUSH3 0xAEE DUP2 PUSH3 0xAC5 JUMP JUMPDEST SWAP3 SWAP2 POP POP JUMP JUMPDEST PUSH0 PUSH3 0xB00 DUP3 PUSH3 0xA80 JUMP JUMPDEST SWAP1 POP SWAP2 SWAP1 POP JUMP JUMPDEST PUSH0 PUSH3 0xB13 DUP3 PUSH3 0xAF4 JUMP JUMPDEST SWAP1 POP SWAP2 SWAP1 POP JUMP JUMPDEST PUSH3 0xB25 DUP2 PUSH3 0xB07 JUMP JUMPDEST DUP2 EQ PUSH3 0xB30 JUMPI PUSH0 DUP1 REVERT JUMPDEST POP JUMP JUMPDEST PUSH0 DUP2 MLOAD SWAP1 POP PUSH3 0xB43 DUP2 PUSH3 0xB1A JUMP JUMPDEST SWAP3 SWAP2 POP POP JUMP JUMPDEST PUSH0 DUP1 PUSH1 0x40 DUP4 DUP6 SUB SLT ISZERO PUSH3 0xB62 JUMPI PUSH3 0xB61 PUSH3 0xA7C JUMP JUMPDEST JUMPDEST PUSH0 PUSH3 0xB71 DUP6 DUP3 DUP7 ADD PUSH3 0xADE JUMP JUMPDEST SWAP3 POP POP PUSH1 0x20 PUSH3 0xB84 DUP6 DUP3 DUP7 ADD PUSH3 0xB33 JUMP JUMPDEST SWAP2 POP POP SWAP3 POP SWAP3 SWAP1 POP JUMP JUMPDEST PUSH0 DUP2 MLOAD SWAP1 POP SWAP2 SWAP1 POP JUMP JUMPDEST PUSH32 0x4E487B7100000000000000000000000000000000000000000000000000000000 PUSH0 MSTORE PUSH1 0x41 PUSH1 0x4 MSTORE PUSH1 0x24 PUSH0 REVERT JUMPDEST PUSH32 0x4E487B7100000000000000000000000000000000000000000000000000000000 PUSH0 MSTORE PUSH1 0x22 PUSH1 0x4 MSTORE PUSH1 0x24 PUSH0 REVERT JUMPDEST PUSH0 PUSH1 0x2 DUP3 DIV SWAP1 POP PUSH1 0x1 DUP3 AND DUP1 PUSH3 0xC0A JUMPI PUSH1 0x7F DUP3 AND SWAP2 POP JUMPDEST PUSH1 0x20 DUP3 LT DUP2 SUB PUSH3 0xC20 JUMPI PUSH3 0xC1F PUSH3 0xBC5 JUMP JUMPDEST JUMPDEST POP SWAP2 SWAP1 POP JUMP JUMPDEST PUSH0 DUP2 SWAP1 POP DUP2 PUSH0 MSTORE PUSH1 0x20 PUSH0 KECCAK256 SWAP1 POP SWAP2 SWAP1 POP JUMP JUMPDEST PUSH0 PUSH1 0x20 PUSH1 0x1F DUP4 ADD DIV SWAP1 POP SWAP2 SWAP1 POP JUMP JUMPDEST PUSH0 DUP3 DUP3 SHL SWAP1 POP SWAP3 SWAP2 POP POP JUMP JUMPDEST PUSH0 PUSH1 0x8 DUP4 MUL PUSH3 0xC84 PUSH32 0xFFFFFFFFFFFFFFFFFFFFFFFFFFFFFFFFFFFFFFFFFFFFFFFFFFFFFFFFFFFFFFFF DUP3 PUSH3 0xC47 JUMP JUMPDEST PUSH3 0xC90 DUP7 DUP4 PUSH3 0xC47 JUMP JUMPDEST SWAP6 POP DUP1 NOT DUP5 AND SWAP4 POP DUP1 DUP7 AND DUP5 OR SWAP3 POP POP POP SWAP4 SWAP3 POP POP POP JUMP JUMPDEST PUSH0 DUP2 SWAP1 POP SWAP2 SWAP1 POP JUMP JUMPDEST PUSH0 DUP2 SWAP1 POP SWAP2 SWAP1 POP JUMP JUMPDEST PUSH0 PUSH3 0xCDA PUSH3 0xCD4 PUSH3 0xCCE DUP5 PUSH3 0xCA8 JUMP JUMPDEST PUSH3 0xCB1 JUMP JUMPDEST PUSH3 0xCA8 JUMP JUMPDEST SWAP1 POP SWAP2 SWAP1 POP JUMP JUMPDEST PUSH0 DUP2 SWAP1 POP SWAP2 SWAP1 POP JUMP JUMPDEST PUSH3 0xCF5 DUP4 PUSH3 0xCBA JUMP JUMPDEST PUSH3 0xD0D PUSH3 0xD04 DUP3 PUSH3 0xCE1 JUMP JUMPDEST DUP5 DUP5 SLOAD PUSH3 0xC53 JUMP JUMPDEST DUP3 SSTORE POP POP POP POP JUMP JUMPDEST PUSH0 SWAP1 JUMP JUMPDEST PUSH3 0xD23 PUSH3 0xD15 JUMP JUMPDEST PUSH3 0xD30 DUP2 DUP5 DUP5 PUSH3 0xCEA JUMP JUMPDEST POP POP POP JUMP JUMPDEST JUMPDEST DUP2 DUP2 LT ISZERO PUSH3 0xD57 JUMPI PUSH3 0xD4B PUSH0 DUP3 PUSH3 0xD19 JUMP JUMPDEST PUSH1 0x1 DUP2 ADD SWAP1 POP PUSH3 0xD36 JUMP JUMPDEST POP POP JUMP JUMPDEST PUSH1 0x1F DUP3 GT ISZERO PUSH3 0xDA6 JUMPI PUSH3 0xD70 DUP2 PUSH3 0xC26 JUMP JUMPDEST PUSH3 0xD7B DUP5 PUSH3 0xC38 JUMP JUMPDEST DUP2 ADD PUSH1 0x20 DUP6 LT ISZERO PUSH3 0xD8B JUMPI DUP2 SWAP1 POP JUMPDEST PUSH3 0xDA3 PUSH3 0xD9A DUP6 PUSH3 0xC38 JUMP JUMPDEST DUP4 ADD DUP3 PUSH3 0xD35 JUMP JUMPDEST POP POP JUMPDEST POP POP POP JUMP JUMPDEST PUSH0 DUP3 DUP3 SHR SWAP1 POP SWAP3 SWAP2 POP POP JUMP JUMPDEST PUSH0 PUSH3 0xDC8 PUSH0 NOT DUP5 PUSH1 0x8 MUL PUSH3 0xDAB JUMP JUMPDEST NOT DUP1 DUP4 AND SWAP2 POP POP SWAP3 SWAP2 POP POP JUMP JUMPDEST PUSH0 PUSH3 0xDE2 DUP4 DUP4 PUSH3 0xDB7 JUMP JUMPDEST SWAP2 POP DUP3 PUSH1 0x2 MUL DUP3 OR SWAP1 POP SWAP3 SWAP2 POP POP JUMP JUMPDEST PUSH3 0xDFD DUP3 PUSH3 0xB8E JUMP JUMPDEST PUSH8 0xFFFFFFFFFFFFFFFF DUP2 GT ISZERO PUSH3 0xE19 JUMPI PUSH3 0xE18 PUSH3 0xB98 JUMP JUMPDEST JUMPDEST PUSH3 0xE25 DUP3 SLOAD PUSH3 0xBF2 JUMP JUMPDEST PUSH3 0xE32 DUP3 DUP3 DUP6 PUSH3 0xD5B JUMP JUMPDEST PUSH0 PUSH1 0x20 SWAP1 POP PUSH1 0x1F DUP4 GT PUSH1 0x1 DUP2 EQ PUSH3 0xE68 JUMPI PUSH0 DUP5 ISZERO PUSH3 0xE53 JUMPI DUP3 DUP8 ADD MLOAD SWAP1 POP JUMPDEST PUSH3 0xE5F DUP6 DUP3 PUSH3 0xDD5 JUMP JUMPDEST DUP7 SSTORE POP PUSH3 0xECE JUMP JUMPDEST PUSH1 0x1F NOT DUP5 AND PUSH3 0xE78 DUP7 PUSH3 0xC26 JUMP JUMPDEST PUSH0 JUMPDEST DUP3 DUP2 LT ISZERO PUSH3 0xEA1 JUMPI DUP5 DUP10 ADD MLOAD DUP3 SSTORE PUSH1 0x1 DUP3 ADD SWAP2 POP PUSH1 0x20 DUP6 ADD SWAP5 POP PUSH1 0x20 DUP2 ADD SWAP1 POP PUSH3 0xE7A JUMP JUMPDEST DUP7 DUP4 LT ISZERO PUSH3 0xEC1 JUMPI DUP5 DUP10 ADD MLOAD PUSH3 0xEBD PUSH1 0x1F DUP10 AND DUP3 PUSH3 0xDB7 JUMP JUMPDEST DUP4 SSTORE POP JUMPDEST PUSH1 0x1 PUSH1 0x2 DUP9 MUL ADD DUP9 SSTORE POP POP POP JUMPDEST POP POP POP POP POP POP JUMP JUMPDEST PUSH0 DUP2 SWAP1 POP SWAP2 SWAP1 POP JUMP JUMPDEST PUSH3 0xEEA DUP2 PUSH3 0xED6 JUMP JUMPDEST DUP3 MSTORE POP POP JUMP JUMPDEST PUSH3 0xEFB DUP2 PUSH3 0xCA8 JUMP JUMPDEST DUP3 MSTORE POP POP JUMP JUMPDEST PUSH3 0xF0C DUP2 PUSH3 0xA9F JUMP JUMPDEST DUP3 MSTORE POP POP JUMP JUMPDEST PUSH0 PUSH1 0xA0 DUP3 ADD SWAP1 POP PUSH3 0xF27 PUSH0 DUP4 ADD DUP9 PUSH3 0xEDF JUMP JUMPDEST PUSH3 0xF36 PUSH1 0x20 DUP4 ADD DUP8 PUSH3 0xEDF JUMP JUMPDEST PUSH3 0xF45 PUSH1 0x40 DUP4 ADD DUP7 PUSH3 0xEDF JUMP JUMPDEST PUSH3 0xF54 PUSH1 0x60 DUP4 ADD DUP6 PUSH3 0xEF0 JUMP JUMPDEST PUSH3 0xF63 PUSH1 0x80 DUP4 ADD DUP5 PUSH3 0xF01 JUMP JUMPDEST SWAP7 SWAP6 POP POP POP POP POP POP JUMP JUMPDEST PUSH0 PUSH1 0x40 DUP3 ADD SWAP1 POP PUSH3 0xF82 PUSH0 DUP4 ADD DUP6 PUSH3 0xEF0 JUMP JUMPDEST PUSH3 0xF91 PUSH1 0x20 DUP4 ADD DUP5 PUSH3 0xEF0 JUMP JUMPDEST SWAP4 SWAP3 POP POP POP JUMP JUMPDEST PUSH0 PUSH1 0x40 DUP3 ADD SWAP1 POP PUSH3 0xFAD PUSH0 DUP4 ADD DUP6 PUSH3 0xF01 JUMP JUMPDEST PUSH3 0xFBC PUSH1 0x20 DUP4 ADD DUP5 PUSH3 0xF01 JUMP JUMPDEST SWAP4 SWAP3 POP POP POP JUMP JUMPDEST PUSH0 DUP3 DUP3 MSTORE PUSH1 0x20 DUP3 ADD SWAP1 POP SWAP3 SWAP2 POP POP JUMP JUMPDEST PUSH0 JUMPDEST DUP4 DUP2 LT ISZERO PUSH3 0xFF2 JUMPI DUP1 DUP3 ADD MLOAD DUP2 DUP5 ADD MSTORE PUSH1 0x20 DUP2 ADD SWAP1 POP PUSH3 0xFD5 JUMP JUMPDEST PUSH0 DUP5 DUP5 ADD MSTORE POP POP POP POP JUMP JUMPDEST PUSH0 PUSH1 0x1F NOT PUSH1 0x1F DUP4 ADD AND SWAP1 POP SWAP2 SWAP1 POP JUMP JUMPDEST PUSH0 PUSH3 0x1019 DUP3 PUSH3 0xB8E JUMP JUMPDEST PUSH3 0x1025 DUP2 DUP6 PUSH3 0xFC3 JUMP JUMPDEST SWAP4 POP PUSH3 0x1037 DUP2 DUP6 PUSH1 0x20 DUP7 ADD PUSH3 0xFD3 JUMP JUMPDEST PUSH3 0x1042 DUP2 PUSH3 0xFFD JUMP JUMPDEST DUP5 ADD SWAP2 POP POP SWAP3 SWAP2 POP POP JUMP JUMPDEST PUSH0 PUSH1 0x20 DUP3 ADD SWAP1 POP DUP2 DUP2 SUB PUSH0 DUP4 ADD MSTORE PUSH3 0x1067 DUP2 DUP5 PUSH3 0x100D JUMP JUMPDEST SWAP1 POP SWAP3 SWAP2 POP POP JUMP JUMPDEST PUSH0 DUP2 MLOAD SWAP1 POP SWAP2 SWAP1 POP JUMP JUMPDEST PUSH0 DUP2 SWAP1 POP PUSH1 0x20 DUP3 ADD SWAP1 POP SWAP2 SWAP1 POP JUMP JUMPDEST PUSH0 PUSH3 0x1095 DUP3 MLOAD PUSH3 0xED6 JUMP JUMPDEST DUP1 SWAP2 POP POP SWAP2 SWAP1 POP JUMP JUMPDEST PUSH0 PUSH3 0x10AA DUP3 PUSH3 0x106F JUMP JUMPDEST DUP3 PUSH3 0x10B6 DUP5 PUSH3 0x1079 JUMP JUMPDEST SWAP1 POP PUSH3 0x10C3 DUP2 PUSH3 0x1088 JUMP JUMPDEST SWAP3 POP PUSH1 0x20 DUP3 LT ISZERO PUSH3 0x1106 JUMPI PUSH3 0x1101 PUSH32 0xFFFFFFFFFFFFFFFFFFFFFFFFFFFFFFFFFFFFFFFFFFFFFFFFFFFFFFFFFFFFFFFF DUP4 PUSH1 0x20 SUB PUSH1 0x8 MUL PUSH3 0xC47 JUMP JUMPDEST DUP4 AND SWAP3 POP JUMPDEST POP POP SWAP2 SWAP1 POP JUMP JUMPDEST PUSH0 PUSH6 0xFFFFFFFFFFFF DUP3 AND SWAP1 POP SWAP2 SWAP1 POP JUMP JUMPDEST PUSH3 0x1129 DUP2 PUSH3 0x110D JUMP JUMPDEST DUP2 EQ PUSH3 0x1134 JUMPI PUSH0 DUP1 REVERT JUMPDEST POP JUMP JUMPDEST PUSH0 DUP2 MLOAD SWAP1 POP PUSH3 0x1147 DUP2 PUSH3 0x111E JUMP JUMPDEST SWAP3 SWAP2 POP POP JUMP JUMPDEST PUSH0 PUSH1 0x20 DUP3 DUP5 SUB SLT ISZERO PUSH3 0x1165 JUMPI PUSH3 0x1164 PUSH3 0xA7C JUMP JUMPDEST JUMPDEST PUSH0 PUSH3 0x1174 DUP5 DUP3 DUP6 ADD PUSH3 0x1137 JUMP JUMPDEST SWAP2 POP POP SWAP3 SWAP2 POP POP JUMP JUMPDEST PUSH0 DUP2 SWAP1 POP SWAP2 SWAP1 POP JUMP JUMPDEST PUSH0 PUSH1 0xFF DUP3 AND SWAP1 POP SWAP2 SWAP1 POP JUMP JUMPDEST PUSH0 PUSH3 0x11B2 PUSH3 0x11AC PUSH3 0x11A6 DUP5 PUSH3 0x117D JUMP JUMPDEST PUSH3 0xCB1 JUMP JUMPDEST PUSH3 0x1186 JUMP JUMPDEST SWAP1 POP SWAP2 SWAP1 POP JUMP JUMPDEST PUSH3 0x11C4 DUP2 PUSH3 0x1192 JUMP JUMPDEST DUP3 MSTORE POP POP JUMP JUMPDEST PUSH0 PUSH1 0x40 DUP3 ADD SWAP1 POP PUSH3 0x11DF PUSH0 DUP4 ADD DUP6 PUSH3 0x11B9 JUMP JUMPDEST PUSH3 0x11EE PUSH1 0x20 DUP4 ADD DUP5 PUSH3 0xEF0 JUMP JUMPDEST SWAP4 SWAP3 POP POP POP JUMP JUMPDEST PUSH32 0x4E487B7100000000000000000000000000000000000000000000000000000000 PUSH0 MSTORE PUSH1 0x11 PUSH1 0x4 MSTORE PUSH1 0x24 PUSH0 REVERT JUMPDEST PUSH0 PUSH3 0x122E DUP3 PUSH3 0xCA8 JUMP JUMPDEST SWAP2 POP PUSH3 0x123B DUP4 PUSH3 0xCA8 JUMP JUMPDEST SWAP3 POP DUP3 DUP3 SUB SWAP1 POP DUP2 DUP2 GT ISZERO PUSH3 0x1256 JUMPI PUSH3 0x1255 PUSH3 0x11F5 JUMP JUMPDEST JUMPDEST SWAP3 SWAP2 POP POP JUMP JUMPDEST PUSH0 DUP2 SWAP1 POP SWAP2 SWAP1 POP JUMP JUMPDEST PUSH0 PUSH3 0x1285 PUSH3 0x127F PUSH3 0x1279 DUP5 PUSH3 0x125C JUMP JUMPDEST PUSH3 0xCB1 JUMP JUMPDEST PUSH3 0x1186 JUMP JUMPDEST SWAP1 POP SWAP2 SWAP1 POP JUMP JUMPDEST PUSH3 0x1297 DUP2 PUSH3 0x1265 JUMP JUMPDEST DUP3 MSTORE POP POP JUMP JUMPDEST PUSH0 PUSH1 0x40 DUP3 ADD SWAP1 POP PUSH3 0x12B2 PUSH0 DUP4 ADD DUP6 PUSH3 0x128C JUMP JUMPDEST PUSH3 0x12C1 PUSH1 0x20 DUP4 ADD DUP5 PUSH3 0xEF0 JUMP JUMPDEST SWAP4 SWAP3 POP POP POP JUMP JUMPDEST PUSH1 0x80 MLOAD PUSH1 0xA0 MLOAD PUSH1 0xC0 MLOAD PUSH1 0xE0 MLOAD PUSH2 0x100 MLOAD PUSH2 0x120 MLOAD PUSH2 0x140 MLOAD PUSH2 0x160 MLOAD PUSH2 0x68E8 PUSH3 0x1324 PUSH0 CODECOPY PUSH0 PUSH2 0x1E90 ADD MSTORE PUSH0 PUSH2 0x2CF7 ADD MSTORE PUSH0 PUSH2 0x2CBC ADD MSTORE PUSH0 PUSH2 0x42A3 ADD MSTORE PUSH0 PUSH2 0x4282 ADD MSTORE PUSH0 PUSH2 0x35DA ADD MSTORE PUSH0 PUSH2 0x3630 ADD MSTORE PUSH0 PUSH2 0x3659 ADD MSTORE PUSH2 0x68E8 PUSH0 RETURN INVALID PUSH1 0x80 PUSH1 0x40 MSTORE PUSH1 0x4 CALLDATASIZE LT PUSH2 0x275 JUMPI PUSH0 CALLDATALOAD PUSH1 0xE0 SHR DUP1 PUSH4 0x7D5E81E2 GT PUSH2 0x14E JUMPI DUP1 PUSH4 0xB58131B0 GT PUSH2 0xC0 JUMPI DUP1 PUSH4 0xDD4E2BA5 GT PUSH2 0x79 JUMPI DUP1 PUSH4 0xDD4E2BA5 EQ PUSH2 0xAEC JUMPI DUP1 PUSH4 0xDEAAA7CC EQ PUSH2 0xB16 JUMPI DUP1 PUSH4 0xEB9019D4 EQ PUSH2 0xB40 JUMPI DUP1 PUSH4 0xF23A6E61 EQ PUSH2 0xB7C JUMPI DUP1 PUSH4 0xF8CE560A EQ PUSH2 0xBB8 JUMPI DUP1 PUSH4 0xFC0C546A EQ PUSH2 0xBF4 JUMPI PUSH2 0x2E8 JUMP JUMPDEST DUP1 PUSH4 0xB58131B0 EQ PUSH2 0x9C8 JUMPI DUP1 PUSH4 0xBC197C81 EQ PUSH2 0x9F2 JUMPI DUP1 PUSH4 0xC01F9E37 EQ PUSH2 0xA2E JUMPI DUP1 PUSH4 0xC28BC2FA EQ PUSH2 0xA6A JUMPI DUP1 PUSH4 0xC59057E4 EQ PUSH2 0xA86 JUMPI DUP1 PUSH4 0xD33219B4 EQ PUSH2 0xAC2 JUMPI PUSH2 0x2E8 JUMP JUMPDEST DUP1 PUSH4 0x97C3D334 GT PUSH2 0x112 JUMPI DUP1 PUSH4 0x97C3D334 EQ PUSH2 0x898 JUMPI DUP1 PUSH4 0x9A802A6D EQ PUSH2 0x8C2 JUMPI DUP1 PUSH4 0xA7713A70 EQ PUSH2 0x8FE JUMPI DUP1 PUSH4 0xA890C910 EQ PUSH2 0x928 JUMPI DUP1 PUSH4 0xA9A95294 EQ PUSH2 0x950 JUMPI DUP1 PUSH4 0xAB58FB8E EQ PUSH2 0x98C JUMPI PUSH2 0x2E8 JUMP JUMPDEST DUP1 PUSH4 0x7D5E81E2 EQ PUSH2 0x78A JUMPI DUP1 PUSH4 0x7ECEBE00 EQ PUSH2 0x7C6 JUMPI DUP1 PUSH4 0x84B0196E EQ PUSH2 0x802 JUMPI DUP1 PUSH4 0x8FF262E3 EQ PUSH2 0x832 JUMPI DUP1 PUSH4 0x91DDADF4 EQ PUSH2 0x86E JUMPI PUSH2 0x2E8 JUMP JUMPDEST DUP1 PUSH4 0x3E4F49E6 GT PUSH2 0x1E7 JUMPI DUP1 PUSH4 0x54FD4D50 GT PUSH2 0x1AB JUMPI DUP1 PUSH4 0x54FD4D50 EQ PUSH2 0x634 JUMPI DUP1 PUSH4 0x56781388 EQ PUSH2 0x65E JUMPI DUP1 PUSH4 0x5B8D0E0D EQ PUSH2 0x69A JUMPI DUP1 PUSH4 0x5F398A14 EQ PUSH2 0x6D6 JUMPI DUP1 PUSH4 0x60C4247F EQ PUSH2 0x712 JUMPI DUP1 PUSH4 0x7B3C71D3 EQ PUSH2 0x74E JUMPI PUSH2 0x2E8 JUMP JUMPDEST DUP1 PUSH4 0x3E4F49E6 EQ PUSH2 0x518 JUMPI DUP1 PUSH4 0x43859632 EQ PUSH2 0x554 JUMPI DUP1 PUSH4 0x452115D6 EQ PUSH2 0x590 JUMPI DUP1 PUSH4 0x4BF5D7E9 EQ PUSH2 0x5CC JUMPI DUP1 PUSH4 0x544FFC9C EQ PUSH2 0x5F6 JUMPI PUSH2 0x2E8 JUMP JUMPDEST DUP1 PUSH4 0x150B7A02 GT PUSH2 0x239 JUMPI DUP1 PUSH4 0x150B7A02 EQ PUSH2 0x3E0 JUMPI DUP1 PUSH4 0x160CBED7 EQ PUSH2 0x41C JUMPI DUP1 PUSH4 0x2656227D EQ PUSH2 0x458 JUMPI DUP1 PUSH4 0x2D63F693 EQ PUSH2 0x488 JUMPI DUP1 PUSH4 0x2FE3E261 EQ PUSH2 0x4C4 JUMPI DUP1 PUSH4 0x3932ABB1 EQ PUSH2 0x4EE JUMPI PUSH2 0x2E8 JUMP JUMPDEST DUP1 PUSH4 0x1FFC9A7 EQ PUSH2 0x2EC JUMPI DUP1 PUSH4 0x2A251A3 EQ PUSH2 0x328 JUMPI DUP1 PUSH4 0x6F3F9E6 EQ PUSH2 0x352 JUMPI DUP1 PUSH4 0x6FDDE03 EQ PUSH2 0x37A JUMPI DUP1 PUSH4 0x143489D0 EQ PUSH2 0x3A4 JUMPI PUSH2 0x2E8 JUMP JUMPDEST CALLDATASIZE PUSH2 0x2E8 JUMPI ADDRESS PUSH20 0xFFFFFFFFFFFFFFFFFFFFFFFFFFFFFFFFFFFFFFFF AND PUSH2 0x299 PUSH2 0xC1E JUMP JUMPDEST PUSH20 0xFFFFFFFFFFFFFFFFFFFFFFFFFFFFFFFFFFFFFFFF AND EQ PUSH2 0x2E6 JUMPI PUSH1 0x40 MLOAD PUSH32 0xE90A651E00000000000000000000000000000000000000000000000000000000 DUP2 MSTORE PUSH1 0x4 ADD PUSH1 0x40 MLOAD DUP1 SWAP2 SUB SWAP1 REVERT JUMPDEST STOP JUMPDEST PUSH0 DUP1 REVERT JUMPDEST CALLVALUE DUP1 ISZERO PUSH2 0x2F7 JUMPI PUSH0 DUP1 REVERT JUMPDEST POP PUSH2 0x312 PUSH1 0x4 DUP1 CALLDATASIZE SUB DUP2 ADD SWAP1 PUSH2 0x30D SWAP2 SWAP1 PUSH2 0x4614 JUMP JUMPDEST PUSH2 0xC2C JUMP JUMPDEST PUSH1 0x40 MLOAD PUSH2 0x31F SWAP2 SWAP1 PUSH2 0x4659 JUMP JUMPDEST PUSH1 0x40 MLOAD DUP1 SWAP2 SUB SWAP1 RETURN JUMPDEST CALLVALUE DUP1 ISZERO PUSH2 0x333 JUMPI PUSH0 DUP1 REVERT JUMPDEST POP PUSH2 0x33C PUSH2 0xD0D JUMP JUMPDEST PUSH1 0x40 MLOAD PUSH2 0x349 SWAP2 SWAP1 PUSH2 0x468A JUMP JUMPDEST PUSH1 0x40 MLOAD DUP1 SWAP2 SUB SWAP1 RETURN JUMPDEST CALLVALUE DUP1 ISZERO PUSH2 0x35D JUMPI PUSH0 DUP1 REVERT JUMPDEST POP PUSH2 0x378 PUSH1 0x4 DUP1 CALLDATASIZE SUB DUP2 ADD SWAP1 PUSH2 0x373 SWAP2 SWAP1 PUSH2 0x46CD JUMP JUMPDEST PUSH2 0xD17 JUMP JUMPDEST STOP JUMPDEST CALLVALUE DUP1 ISZERO PUSH2 0x385 JUMPI PUSH0 DUP1 REVERT JUMPDEST POP PUSH2 0x38E PUSH2 0xD2B JUMP JUMPDEST PUSH1 0x40 MLOAD PUSH2 0x39B SWAP2 SWAP1 PUSH2 0x4782 JUMP JUMPDEST PUSH1 0x40 MLOAD DUP1 SWAP2 SUB SWAP1 RETURN JUMPDEST CALLVALUE DUP1 ISZERO PUSH2 0x3AF JUMPI PUSH0 DUP1 REVERT JUMPDEST POP PUSH2 0x3CA PUSH1 0x4 DUP1 CALLDATASIZE SUB DUP2 ADD SWAP1 PUSH2 0x3C5 SWAP2 SWAP1 PUSH2 0x46CD JUMP JUMPDEST PUSH2 0xDBB JUMP JUMPDEST PUSH1 0x40 MLOAD PUSH2 0x3D7 SWAP2 SWAP1 PUSH2 0x47E1 JUMP JUMPDEST PUSH1 0x40 MLOAD DUP1 SWAP2 SUB SWAP1 RETURN JUMPDEST CALLVALUE DUP1 ISZERO PUSH2 0x3EB JUMPI PUSH0 DUP1 REVERT JUMPDEST POP PUSH2 0x406 PUSH1 0x4 DUP1 CALLDATASIZE SUB DUP2 ADD SWAP1 PUSH2 0x401 SWAP2 SWAP1 PUSH2 0x4950 JUMP JUMPDEST PUSH2 0xDF6 JUMP JUMPDEST PUSH1 0x40 MLOAD PUSH2 0x413 SWAP2 SWAP1 PUSH2 0x49DF JUMP JUMPDEST PUSH1 0x40 MLOAD DUP1 SWAP2 SUB SWAP1 RETURN JUMPDEST CALLVALUE DUP1 ISZERO PUSH2 0x427 JUMPI PUSH0 DUP1 REVERT JUMPDEST POP PUSH2 0x442 PUSH1 0x4 DUP1 CALLDATASIZE SUB DUP2 ADD SWAP1 PUSH2 0x43D SWAP2 SWAP1 PUSH2 0x4C8D JUMP JUMPDEST PUSH2 0xE75 JUMP JUMPDEST PUSH1 0x40 MLOAD PUSH2 0x44F SWAP2 SWAP1 PUSH2 0x468A JUMP JUMPDEST PUSH1 0x40 MLOAD DUP1 SWAP2 SUB SWAP1 RETURN JUMPDEST PUSH2 0x472 PUSH1 0x4 DUP1 CALLDATASIZE SUB DUP2 ADD SWAP1 PUSH2 0x46D SWAP2 SWAP1 PUSH2 0x4C8D JUMP JUMPDEST PUSH2 0xF6B JUMP JUMPDEST PUSH1 0x40 MLOAD PUSH2 0x47F SWAP2 SWAP1 PUSH2 0x468A JUMP JUMPDEST PUSH1 0x40 MLOAD DUP1 SWAP2 SUB SWAP1 RETURN JUMPDEST CALLVALUE DUP1 ISZERO PUSH2 0x493 JUMPI PUSH0 DUP1 REVERT JUMPDEST POP PUSH2 0x4AE PUSH1 0x4 DUP1 CALLDATASIZE SUB DUP2 ADD SWAP1 PUSH2 0x4A9 SWAP2 SWAP1 PUSH2 0x46CD JUMP JUMPDEST PUSH2 0x1145 JUMP JUMPDEST PUSH1 0x40 MLOAD PUSH2 0x4BB SWAP2 SWAP1 PUSH2 0x468A JUMP JUMPDEST PUSH1 0x40 MLOAD DUP1 SWAP2 SUB SWAP1 RETURN JUMPDEST CALLVALUE DUP1 ISZERO PUSH2 0x4CF JUMPI PUSH0 DUP1 REVERT JUMPDEST POP PUSH2 0x4D8 PUSH2 0x117B JUMP JUMPDEST PUSH1 0x40 MLOAD PUSH2 0x4E5 SWAP2 SWAP1 PUSH2 0x4D54 JUMP JUMPDEST PUSH1 0x40 MLOAD DUP1 SWAP2 SUB SWAP1 RETURN JUMPDEST CALLVALUE DUP1 ISZERO PUSH2 0x4F9 JUMPI PUSH0 DUP1 REVERT JUMPDEST POP PUSH2 0x502 PUSH2 0x119F JUMP JUMPDEST PUSH1 0x40 MLOAD PUSH2 0x50F SWAP2 SWAP1 PUSH2 0x468A JUMP JUMPDEST PUSH1 0x40 MLOAD DUP1 SWAP2 SUB SWAP1 RETURN JUMPDEST CALLVALUE DUP1 ISZERO PUSH2 0x523 JUMPI PUSH0 DUP1 REVERT JUMPDEST POP PUSH2 0x53E PUSH1 0x4 DUP1 CALLDATASIZE SUB DUP2 ADD SWAP1 PUSH2 0x539 SWAP2 SWAP1 PUSH2 0x46CD JUMP JUMPDEST PUSH2 0x11A9 JUMP JUMPDEST PUSH1 0x40 MLOAD PUSH2 0x54B SWAP2 SWAP1 PUSH2 0x4DE0 JUMP JUMPDEST PUSH1 0x40 MLOAD DUP1 SWAP2 SUB SWAP1 RETURN JUMPDEST CALLVALUE DUP1 ISZERO PUSH2 0x55F JUMPI PUSH0 DUP1 REVERT JUMPDEST POP PUSH2 0x57A PUSH1 0x4 DUP1 CALLDATASIZE SUB DUP2 ADD SWAP1 PUSH2 0x575 SWAP2 SWAP1 PUSH2 0x4DF9 JUMP JUMPDEST PUSH2 0x11BA JUMP JUMPDEST PUSH1 0x40 MLOAD PUSH2 0x587 SWAP2 SWAP1 PUSH2 0x4659 JUMP JUMPDEST PUSH1 0x40 MLOAD DUP1 SWAP2 SUB SWAP1 RETURN JUMPDEST CALLVALUE DUP1 ISZERO PUSH2 0x59B JUMPI PUSH0 DUP1 REVERT JUMPDEST POP PUSH2 0x5B6 PUSH1 0x4 DUP1 CALLDATASIZE SUB DUP2 ADD SWAP1 PUSH2 0x5B1 SWAP2 SWAP1 PUSH2 0x4C8D JUMP JUMPDEST PUSH2 0x121F JUMP JUMPDEST PUSH1 0x40 MLOAD PUSH2 0x5C3 SWAP2 SWAP1 PUSH2 0x468A JUMP JUMPDEST PUSH1 0x40 MLOAD DUP1 SWAP2 SUB SWAP1 RETURN JUMPDEST CALLVALUE DUP1 ISZERO PUSH2 0x5D7 JUMPI PUSH0 DUP1 REVERT JUMPDEST POP PUSH2 0x5E0 PUSH2 0x12DF JUMP JUMPDEST PUSH1 0x40 MLOAD PUSH2 0x5ED SWAP2 SWAP1 PUSH2 0x4782 JUMP JUMPDEST PUSH1 0x40 MLOAD DUP1 SWAP2 SUB SWAP1 RETURN JUMPDEST CALLVALUE DUP1 ISZERO PUSH2 0x601 JUMPI PUSH0 DUP1 REVERT JUMPDEST POP PUSH2 0x61C PUSH1 0x4 DUP1 CALLDATASIZE SUB DUP2 ADD SWAP1 PUSH2 0x617 SWAP2 SWAP1 PUSH2 0x46CD JUMP JUMPDEST PUSH2 0x139C JUMP JUMPDEST PUSH1 0x40 MLOAD PUSH2 0x62B SWAP4 SWAP3 SWAP2 SWAP1 PUSH2 0x4E37 JUMP JUMPDEST PUSH1 0x40 MLOAD DUP1 SWAP2 SUB SWAP1 RETURN JUMPDEST CALLVALUE DUP1 ISZERO PUSH2 0x63F JUMPI PUSH0 DUP1 REVERT JUMPDEST POP PUSH2 0x648 PUSH2 0x13CF JUMP JUMPDEST PUSH1 0x40 MLOAD PUSH2 0x655 SWAP2 SWAP1 PUSH2 0x4782 JUMP JUMPDEST PUSH1 0x40 MLOAD DUP1 SWAP2 SUB SWAP1 RETURN JUMPDEST CALLVALUE DUP1 ISZERO PUSH2 0x669 JUMPI PUSH0 DUP1 REVERT JUMPDEST POP PUSH2 0x684 PUSH1 0x4 DUP1 CALLDATASIZE SUB DUP2 ADD SWAP1 PUSH2 0x67F SWAP2 SWAP1 PUSH2 0x4EA2 JUMP JUMPDEST PUSH2 0x140C JUMP JUMPDEST PUSH1 0x40 MLOAD PUSH2 0x691 SWAP2 SWAP1 PUSH2 0x468A JUMP JUMPDEST PUSH1 0x40 MLOAD DUP1 SWAP2 SUB SWAP1 RETURN JUMPDEST CALLVALUE DUP1 ISZERO PUSH2 0x6A5 JUMPI PUSH0 DUP1 REVERT JUMPDEST POP PUSH2 0x6C0 PUSH1 0x4 DUP1 CALLDATASIZE SUB DUP2 ADD SWAP1 PUSH2 0x6BB SWAP2 SWAP1 PUSH2 0x4F39 JUMP JUMPDEST PUSH2 0x143B JUMP JUMPDEST PUSH1 0x40 MLOAD PUSH2 0x6CD SWAP2 SWAP1 PUSH2 0x468A JUMP JUMPDEST PUSH1 0x40 MLOAD DUP1 SWAP2 SUB SWAP1 RETURN JUMPDEST CALLVALUE DUP1 ISZERO PUSH2 0x6E1 JUMPI PUSH0 DUP1 REVERT JUMPDEST POP PUSH2 0x6FC PUSH1 0x4 DUP1 CALLDATASIZE SUB DUP2 ADD SWAP1 PUSH2 0x6F7 SWAP2 SWAP1 PUSH2 0x501B JUMP JUMPDEST PUSH2 0x156A JUMP JUMPDEST PUSH1 0x40 MLOAD PUSH2 0x709 SWAP2 SWAP1 PUSH2 0x468A JUMP JUMPDEST PUSH1 0x40 MLOAD DUP1 SWAP2 SUB SWAP1 RETURN JUMPDEST CALLVALUE DUP1 ISZERO PUSH2 0x71D JUMPI PUSH0 DUP1 REVERT JUMPDEST POP PUSH2 0x738 PUSH1 0x4 DUP1 CALLDATASIZE SUB DUP2 ADD SWAP1 PUSH2 0x733 SWAP2 SWAP1 PUSH2 0x46CD JUMP JUMPDEST PUSH2 0x15D2 JUMP JUMPDEST PUSH1 0x40 MLOAD PUSH2 0x745 SWAP2 SWAP1 PUSH2 0x468A JUMP JUMPDEST PUSH1 0x40 MLOAD DUP1 SWAP2 SUB SWAP1 RETURN JUMPDEST CALLVALUE DUP1 ISZERO PUSH2 0x759 JUMPI PUSH0 DUP1 REVERT JUMPDEST POP PUSH2 0x774 PUSH1 0x4 DUP1 CALLDATASIZE SUB DUP2 ADD SWAP1 PUSH2 0x76F SWAP2 SWAP1 PUSH2 0x50BB JUMP JUMPDEST PUSH2 0x16CB JUMP JUMPDEST PUSH1 0x40 MLOAD PUSH2 0x781 SWAP2 SWAP1 PUSH2 0x468A JUMP JUMPDEST PUSH1 0x40 MLOAD DUP1 SWAP2 SUB SWAP1 RETURN JUMPDEST CALLVALUE DUP1 ISZERO PUSH2 0x795 JUMPI PUSH0 DUP1 REVERT JUMPDEST POP PUSH2 0x7B0 PUSH1 0x4 DUP1 CALLDATASIZE SUB DUP2 ADD SWAP1 PUSH2 0x7AB SWAP2 SWAP1 PUSH2 0x51CA JUMP JUMPDEST PUSH2 0x1731 JUMP JUMPDEST PUSH1 0x40 MLOAD PUSH2 0x7BD SWAP2 SWAP1 PUSH2 0x468A JUMP JUMPDEST PUSH1 0x40 MLOAD DUP1 SWAP2 SUB SWAP1 RETURN JUMPDEST CALLVALUE DUP1 ISZERO PUSH2 0x7D1 JUMPI PUSH0 DUP1 REVERT JUMPDEST POP PUSH2 0x7EC PUSH1 0x4 DUP1 CALLDATASIZE SUB DUP2 ADD SWAP1 PUSH2 0x7E7 SWAP2 SWAP1 PUSH2 0x529E JUMP JUMPDEST PUSH2 0x181E JUMP JUMPDEST PUSH1 0x40 MLOAD PUSH2 0x7F9 SWAP2 SWAP1 PUSH2 0x468A JUMP JUMPDEST PUSH1 0x40 MLOAD DUP1 SWAP2 SUB SWAP1 RETURN JUMPDEST CALLVALUE DUP1 ISZERO PUSH2 0x80D JUMPI PUSH0 DUP1 REVERT JUMPDEST POP PUSH2 0x816 PUSH2 0x1864 JUMP JUMPDEST PUSH1 0x40 MLOAD PUSH2 0x829 SWAP8 SWAP7 SWAP6 SWAP5 SWAP4 SWAP3 SWAP2 SWAP1 PUSH2 0x53BA JUMP JUMPDEST PUSH1 0x40 MLOAD DUP1 SWAP2 SUB SWAP1 RETURN JUMPDEST CALLVALUE DUP1 ISZERO PUSH2 0x83D JUMPI PUSH0 DUP1 REVERT JUMPDEST POP PUSH2 0x858 PUSH1 0x4 DUP1 CALLDATASIZE SUB DUP2 ADD SWAP1 PUSH2 0x853 SWAP2 SWAP1 PUSH2 0x543C JUMP JUMPDEST PUSH2 0x1909 JUMP JUMPDEST PUSH1 0x40 MLOAD PUSH2 0x865 SWAP2 SWAP1 PUSH2 0x468A JUMP JUMPDEST PUSH1 0x40 MLOAD DUP1 SWAP2 SUB SWAP1 RETURN JUMPDEST CALLVALUE DUP1 ISZERO PUSH2 0x879 JUMPI PUSH0 DUP1 REVERT JUMPDEST POP PUSH2 0x882 PUSH2 0x19DD JUMP JUMPDEST PUSH1 0x40 MLOAD PUSH2 0x88F SWAP2 SWAP1 PUSH2 0x54DC JUMP JUMPDEST PUSH1 0x40 MLOAD DUP1 SWAP2 SUB SWAP1 RETURN JUMPDEST CALLVALUE DUP1 ISZERO PUSH2 0x8A3 JUMPI PUSH0 DUP1 REVERT JUMPDEST POP PUSH2 0x8AC PUSH2 0x1A68 JUMP JUMPDEST PUSH1 0x40 MLOAD PUSH2 0x8B9 SWAP2 SWAP1 PUSH2 0x468A JUMP JUMPDEST PUSH1 0x40 MLOAD DUP1 SWAP2 SUB SWAP1 RETURN JUMPDEST CALLVALUE DUP1 ISZERO PUSH2 0x8CD JUMPI PUSH0 DUP1 REVERT JUMPDEST POP PUSH2 0x8E8 PUSH1 0x4 DUP1 CALLDATASIZE SUB DUP2 ADD SWAP1 PUSH2 0x8E3 SWAP2 SWAP1 PUSH2 0x54F5 JUMP JUMPDEST PUSH2 0x1A70 JUMP JUMPDEST PUSH1 0x40 MLOAD PUSH2 0x8F5 SWAP2 SWAP1 PUSH2 0x468A JUMP JUMPDEST PUSH1 0x40 MLOAD DUP1 SWAP2 SUB SWAP1 RETURN JUMPDEST CALLVALUE DUP1 ISZERO PUSH2 0x909 JUMPI PUSH0 DUP1 REVERT JUMPDEST POP PUSH2 0x912 PUSH2 0x1A85 JUMP JUMPDEST PUSH1 0x40 MLOAD PUSH2 0x91F SWAP2 SWAP1 PUSH2 0x468A JUMP JUMPDEST PUSH1 0x40 MLOAD DUP1 SWAP2 SUB SWAP1 RETURN JUMPDEST CALLVALUE DUP1 ISZERO PUSH2 0x933 JUMPI PUSH0 DUP1 REVERT JUMPDEST POP PUSH2 0x94E PUSH1 0x4 DUP1 CALLDATASIZE SUB DUP2 ADD SWAP1 PUSH2 0x949 SWAP2 SWAP1 PUSH2 0x55AD JUMP JUMPDEST PUSH2 0x1AB1 JUMP JUMPDEST STOP JUMPDEST CALLVALUE DUP1 ISZERO PUSH2 0x95B JUMPI PUSH0 DUP1 REVERT JUMPDEST POP PUSH2 0x976 PUSH1 0x4 DUP1 CALLDATASIZE SUB DUP2 ADD SWAP1 PUSH2 0x971 SWAP2 SWAP1 PUSH2 0x46CD JUMP JUMPDEST PUSH2 0x1AC5 JUMP JUMPDEST PUSH1 0x40 MLOAD PUSH2 0x983 SWAP2 SWAP1 PUSH2 0x4659 JUMP JUMPDEST PUSH1 0x40 MLOAD DUP1 SWAP2 SUB SWAP1 RETURN JUMPDEST CALLVALUE DUP1 ISZERO PUSH2 0x997 JUMPI PUSH0 DUP1 REVERT JUMPDEST POP PUSH2 0x9B2 PUSH1 0x4 DUP1 CALLDATASIZE SUB DUP2 ADD SWAP1 PUSH2 0x9AD SWAP2 SWAP1 PUSH2 0x46CD JUMP JUMPDEST PUSH2 0x1AD6 JUMP JUMPDEST PUSH1 0x40 MLOAD PUSH2 0x9BF SWAP2 SWAP1 PUSH2 0x468A JUMP JUMPDEST PUSH1 0x40 MLOAD DUP1 SWAP2 SUB SWAP1 RETURN JUMPDEST CALLVALUE DUP1 ISZERO PUSH2 0x9D3 JUMPI PUSH0 DUP1 REVERT JUMPDEST POP PUSH2 0x9DC PUSH2 0x1B0C JUMP JUMPDEST PUSH1 0x40 MLOAD PUSH2 0x9E9 SWAP2 SWAP1 PUSH2 0x468A JUMP JUMPDEST PUSH1 0x40 MLOAD DUP1 SWAP2 SUB SWAP1 RETURN JUMPDEST CALLVALUE DUP1 ISZERO PUSH2 0x9FD JUMPI PUSH0 DUP1 REVERT JUMPDEST POP PUSH2 0xA18 PUSH1 0x4 DUP1 CALLDATASIZE SUB DUP2 ADD SWAP1 PUSH2 0xA13 SWAP2 SWAP1 PUSH2 0x55D8 JUMP JUMPDEST PUSH2 0x1B10 JUMP JUMPDEST PUSH1 0x40 MLOAD PUSH2 0xA25 SWAP2 SWAP1 PUSH2 0x49DF JUMP JUMPDEST PUSH1 0x40 MLOAD DUP1 SWAP2 SUB SWAP1 RETURN JUMPDEST CALLVALUE DUP1 ISZERO PUSH2 0xA39 JUMPI PUSH0 DUP1 REVERT JUMPDEST POP PUSH2 0xA54 PUSH1 0x4 DUP1 CALLDATASIZE SUB DUP2 ADD SWAP1 PUSH2 0xA4F SWAP2 SWAP1 PUSH2 0x46CD JUMP JUMPDEST PUSH2 0x1B90 JUMP JUMPDEST PUSH1 0x40 MLOAD PUSH2 0xA61 SWAP2 SWAP1 PUSH2 0x468A JUMP JUMPDEST PUSH1 0x40 MLOAD DUP1 SWAP2 SUB SWAP1 RETURN JUMPDEST PUSH2 0xA84 PUSH1 0x4 DUP1 CALLDATASIZE SUB DUP2 ADD SWAP1 PUSH2 0xA7F SWAP2 SWAP1 PUSH2 0x56F8 JUMP JUMPDEST PUSH2 0x1BFA JUMP JUMPDEST STOP JUMPDEST CALLVALUE DUP1 ISZERO PUSH2 0xA91 JUMPI PUSH0 DUP1 REVERT JUMPDEST POP PUSH2 0xAAC PUSH1 0x4 DUP1 CALLDATASIZE SUB DUP2 ADD SWAP1 PUSH2 0xAA7 SWAP2 SWAP1 PUSH2 0x4C8D JUMP JUMPDEST PUSH2 0x1C83 JUMP JUMPDEST PUSH1 0x40 MLOAD PUSH2 0xAB9 SWAP2 SWAP1 PUSH2 0x468A JUMP JUMPDEST PUSH1 0x40 MLOAD DUP1 SWAP2 SUB SWAP1 RETURN JUMPDEST CALLVALUE DUP1 ISZERO PUSH2 0xACD JUMPI PUSH0 DUP1 REVERT JUMPDEST POP PUSH2 0xAD6 PUSH2 0x1CBD JUMP JUMPDEST PUSH1 0x40 MLOAD PUSH2 0xAE3 SWAP2 SWAP1 PUSH2 0x47E1 JUMP JUMPDEST PUSH1 0x40 MLOAD DUP1 SWAP2 SUB SWAP1 RETURN JUMPDEST CALLVALUE DUP1 ISZERO PUSH2 0xAF7 JUMPI PUSH0 DUP1 REVERT JUMPDEST POP PUSH2 0xB00 PUSH2 0x1CE5 JUMP JUMPDEST PUSH1 0x40 MLOAD PUSH2 0xB0D SWAP2 SWAP1 PUSH2 0x4782 JUMP JUMPDEST PUSH1 0x40 MLOAD DUP1 SWAP2 SUB SWAP1 RETURN JUMPDEST CALLVALUE DUP1 ISZERO PUSH2 0xB21 JUMPI PUSH0 DUP1 REVERT JUMPDEST POP PUSH2 0xB2A PUSH2 0x1D22 JUMP JUMPDEST PUSH1 0x40 MLOAD PUSH2 0xB37 SWAP2 SWAP1 PUSH2 0x4D54 JUMP JUMPDEST PUSH1 0x40 MLOAD DUP1 SWAP2 SUB SWAP1 RETURN JUMPDEST CALLVALUE DUP1 ISZERO PUSH2 0xB4B JUMPI PUSH0 DUP1 REVERT JUMPDEST POP PUSH2 0xB66 PUSH1 0x4 DUP1 CALLDATASIZE SUB DUP2 ADD SWAP1 PUSH2 0xB61 SWAP2 SWAP1 PUSH2 0x5769 JUMP JUMPDEST PUSH2 0x1D46 JUMP JUMPDEST PUSH1 0x40 MLOAD PUSH2 0xB73 SWAP2 SWAP1 PUSH2 0x468A JUMP JUMPDEST PUSH1 0x40 MLOAD DUP1 SWAP2 SUB SWAP1 RETURN JUMPDEST CALLVALUE DUP1 ISZERO PUSH2 0xB87 JUMPI PUSH0 DUP1 REVERT JUMPDEST POP PUSH2 0xBA2 PUSH1 0x4 DUP1 CALLDATASIZE SUB DUP2 ADD SWAP1 PUSH2 0xB9D SWAP2 SWAP1 PUSH2 0x57A7 JUMP JUMPDEST PUSH2 0x1D61 JUMP JUMPDEST PUSH1 0x40 MLOAD PUSH2 0xBAF SWAP2 SWAP1 PUSH2 0x49DF JUMP JUMPDEST PUSH1 0x40 MLOAD DUP1 SWAP2 SUB SWAP1 RETURN JUMPDEST CALLVALUE DUP1 ISZERO PUSH2 0xBC3 JUMPI PUSH0 DUP1 REVERT JUMPDEST POP PUSH2 0xBDE PUSH1 0x4 DUP1 CALLDATASIZE SUB DUP2 ADD SWAP1 PUSH2 0xBD9 SWAP2 SWAP1 PUSH2 0x46CD JUMP JUMPDEST PUSH2 0x1DE1 JUMP JUMPDEST PUSH1 0x40 MLOAD PUSH2 0xBEB SWAP2 SWAP1 PUSH2 0x468A JUMP JUMPDEST PUSH1 0x40 MLOAD DUP1 SWAP2 SUB SWAP1 RETURN JUMPDEST CALLVALUE DUP1 ISZERO PUSH2 0xBFF JUMPI PUSH0 DUP1 REVERT JUMPDEST POP PUSH2 0xC08 PUSH2 0x1E8D JUMP JUMPDEST PUSH1 0x40 MLOAD PUSH2 0xC15 SWAP2 SWAP1 PUSH2 0x5895 JUMP JUMPDEST PUSH1 0x40 MLOAD DUP1 SWAP2 SUB SWAP1 RETURN JUMPDEST PUSH0 PUSH2 0xC27 PUSH2 0x1EB4 JUMP JUMPDEST SWAP1 POP SWAP1 JUMP JUMPDEST PUSH0 PUSH32 0x65455A8600000000000000000000000000000000000000000000000000000000 PUSH28 0xFFFFFFFFFFFFFFFFFFFFFFFFFFFFFFFFFFFFFFFFFFFFFFFFFFFFFFFF NOT AND DUP3 PUSH28 0xFFFFFFFFFFFFFFFFFFFFFFFFFFFFFFFFFFFFFFFFFFFFFFFFFFFFFFFF NOT AND EQ DUP1 PUSH2 0xCF6 JUMPI POP PUSH32 0x4E2312E000000000000000000000000000000000000000000000000000000000 PUSH28 0xFFFFFFFFFFFFFFFFFFFFFFFFFFFFFFFFFFFFFFFFFFFFFFFFFFFFFFFF NOT AND DUP3 PUSH28 0xFFFFFFFFFFFFFFFFFFFFFFFFFFFFFFFFFFFFFFFFFFFFFFFFFFFFFFFF NOT AND EQ JUMPDEST DUP1 PUSH2 0xD06 JUMPI POP PUSH2 0xD05 DUP3 PUSH2 0x1EDC JUMP JUMPDEST JUMPDEST SWAP1 POP SWAP2 SWAP1 POP JUMP JUMPDEST PUSH0 PUSH3 0x93A80 SWAP1 POP SWAP1 JUMP JUMPDEST PUSH2 0xD1F PUSH2 0x1F45 JUMP JUMPDEST PUSH2 0xD28 DUP2 PUSH2 0x203A JUMP JUMPDEST POP JUMP JUMPDEST PUSH1 0x60 PUSH1 0x3 DUP1 SLOAD PUSH2 0xD3A SWAP1 PUSH2 0x58DB JUMP JUMPDEST DUP1 PUSH1 0x1F ADD PUSH1 0x20 DUP1 SWAP2 DIV MUL PUSH1 0x20 ADD PUSH1 0x40 MLOAD SWAP1 DUP2 ADD PUSH1 0x40 MSTORE DUP1 SWAP3 SWAP2 SWAP1 DUP2 DUP2 MSTORE PUSH1 0x20 ADD DUP3 DUP1 SLOAD PUSH2 0xD66 SWAP1 PUSH2 0x58DB JUMP JUMPDEST DUP1 ISZERO PUSH2 0xDB1 JUMPI DUP1 PUSH1 0x1F LT PUSH2 0xD88 JUMPI PUSH2 0x100 DUP1 DUP4 SLOAD DIV MUL DUP4 MSTORE SWAP2 PUSH1 0x20 ADD SWAP2 PUSH2 0xDB1 JUMP JUMPDEST DUP3 ADD SWAP2 SWAP1 PUSH0 MSTORE PUSH1 0x20 PUSH0 KECCAK256 SWAP1 JUMPDEST DUP2 SLOAD DUP2 MSTORE SWAP1 PUSH1 0x1 ADD SWAP1 PUSH1 0x20 ADD DUP1 DUP4 GT PUSH2 0xD94 JUMPI DUP3 SWAP1 SUB PUSH1 0x1F AND DUP3 ADD SWAP2 JUMPDEST POP POP POP POP POP SWAP1 POP SWAP1 JUMP JUMPDEST PUSH0 PUSH1 0x4 PUSH0 DUP4 DUP2 MSTORE PUSH1 0x20 ADD SWAP1 DUP2 MSTORE PUSH1 0x20 ADD PUSH0 KECCAK256 PUSH0 ADD PUSH0 SWAP1 SLOAD SWAP1 PUSH2 0x100 EXP SWAP1 DIV PUSH20 0xFFFFFFFFFFFFFFFFFFFFFFFFFFFFFFFFFFFFFFFF AND SWAP1 POP SWAP2 SWAP1 POP JUMP JUMPDEST PUSH0 ADDRESS PUSH20 0xFFFFFFFFFFFFFFFFFFFFFFFFFFFFFFFFFFFFFFFF AND PUSH2 0xE16 PUSH2 0xC1E JUMP JUMPDEST PUSH20 0xFFFFFFFFFFFFFFFFFFFFFFFFFFFFFFFFFFFFFFFF AND EQ PUSH2 0xE63 JUMPI PUSH1 0x40 MLOAD PUSH32 0xE90A651E00000000000000000000000000000000000000000000000000000000 DUP2 MSTORE PUSH1 0x4 ADD PUSH1 0x40 MLOAD DUP1 SWAP2 SUB SWAP1 REVERT JUMPDEST PUSH4 0x150B7A02 PUSH1 0xE0 SHL SWAP1 POP SWAP5 SWAP4 POP POP POP POP JUMP JUMPDEST PUSH0 DUP1 PUSH2 0xE83 DUP7 DUP7 DUP7 DUP7 PUSH2 0x1C83 JUMP JUMPDEST SWAP1 POP PUSH2 0xE98 DUP2 PUSH2 0xE93 PUSH1 0x4 PUSH2 0x20FC JUMP JUMPDEST PUSH2 0x2120 JUMP JUMPDEST POP PUSH0 PUSH2 0xEA7 DUP3 DUP9 DUP9 DUP9 DUP9 PUSH2 0x218B JUMP JUMPDEST SWAP1 POP PUSH0 DUP2 PUSH6 0xFFFFFFFFFFFF AND EQ PUSH2 0xF2C JUMPI DUP1 PUSH1 0x4 PUSH0 DUP5 DUP2 MSTORE PUSH1 0x20 ADD SWAP1 DUP2 MSTORE PUSH1 0x20 ADD PUSH0 KECCAK256 PUSH1 0x1 ADD PUSH0 PUSH2 0x100 EXP DUP2 SLOAD DUP2 PUSH6 0xFFFFFFFFFFFF MUL NOT AND SWAP1 DUP4 PUSH6 0xFFFFFFFFFFFF AND MUL OR SWAP1 SSTORE POP PUSH32 0x9A2E42FD6722813D69113E7D0079D3D940171428DF7373DF9C7F7617CFDA2892 DUP3 DUP3 PUSH1 0x40 MLOAD PUSH2 0xF1F SWAP3 SWAP2 SWAP1 PUSH2 0x593B JUMP JUMPDEST PUSH1 0x40 MLOAD DUP1 SWAP2 SUB SWAP1 LOG1 PUSH2 0xF5E JUMP JUMPDEST PUSH1 0x40 MLOAD PUSH32 0x90884A4600000000000000000000000000000000000000000000000000000000 DUP2 MSTORE PUSH1 0x4 ADD PUSH1 0x40 MLOAD DUP1 SWAP2 SUB SWAP1 REVERT JUMPDEST DUP2 SWAP3 POP POP POP SWAP5 SWAP4 POP POP POP POP JUMP JUMPDEST PUSH0 DUP1 PUSH2 0xF79 DUP7 DUP7 DUP7 DUP7 PUSH2 0x1C83 JUMP JUMPDEST SWAP1 POP PUSH2 0xF99 DUP2 PUSH2 0xF89 PUSH1 0x5 PUSH2 0x20FC JUMP JUMPDEST PUSH2 0xF93 PUSH1 0x4 PUSH2 0x20FC JUMP JUMPDEST OR PUSH2 0x2120 JUMP JUMPDEST POP PUSH1 0x1 PUSH1 0x4 PUSH0 DUP4 DUP2 MSTORE PUSH1 0x20 ADD SWAP1 DUP2 MSTORE PUSH1 0x20 ADD PUSH0 KECCAK256 PUSH0 ADD PUSH1 0x1E PUSH2 0x100 EXP DUP2 SLOAD DUP2 PUSH1 0xFF MUL NOT AND SWAP1 DUP4 ISZERO ISZERO MUL OR SWAP1 SSTORE POP ADDRESS PUSH20 0xFFFFFFFFFFFFFFFFFFFFFFFFFFFFFFFFFFFFFFFF AND PUSH2 0xFE5 PUSH2 0xC1E JUMP JUMPDEST PUSH20 0xFFFFFFFFFFFFFFFFFFFFFFFFFFFFFFFFFFFFFFFF AND EQ PUSH2 0x109B JUMPI PUSH0 JUMPDEST DUP7 MLOAD DUP2 LT ISZERO PUSH2 0x1099 JUMPI ADDRESS PUSH20 0xFFFFFFFFFFFFFFFFFFFFFFFFFFFFFFFFFFFFFFFF AND DUP8 DUP3 DUP2 MLOAD DUP2 LT PUSH2 0x1035 JUMPI PUSH2 0x1034 PUSH2 0x5962 JUMP JUMPDEST JUMPDEST PUSH1 0x20 MUL PUSH1 0x20 ADD ADD MLOAD PUSH20 0xFFFFFFFFFFFFFFFFFFFFFFFFFFFFFFFFFFFFFFFF AND SUB PUSH2 0x108E JUMPI PUSH2 0x108D DUP6 DUP3 DUP2 MLOAD DUP2 LT PUSH2 0x106E JUMPI PUSH2 0x106D PUSH2 0x5962 JUMP JUMPDEST JUMPDEST PUSH1 0x20 MUL PUSH1 0x20 ADD ADD MLOAD DUP1 MLOAD SWAP1 PUSH1 0x20 ADD KECCAK256 PUSH1 0x5 PUSH2 0x21A4 SWAP1 SWAP2 SWAP1 PUSH4 0xFFFFFFFF AND JUMP JUMPDEST JUMPDEST DUP1 PUSH1 0x1 ADD SWAP1 POP PUSH2 0x1002 JUMP JUMPDEST POP JUMPDEST PUSH2 0x10A8 DUP2 DUP8 DUP8 DUP8 DUP8 PUSH2 0x22C3 JUMP JUMPDEST ADDRESS PUSH20 0xFFFFFFFFFFFFFFFFFFFFFFFFFFFFFFFFFFFFFFFF AND PUSH2 0x10C7 PUSH2 0xC1E JUMP JUMPDEST PUSH20 0xFFFFFFFFFFFFFFFFFFFFFFFFFFFFFFFFFFFFFFFF AND EQ ISZERO DUP1 ISZERO PUSH2 0x10F2 JUMPI POP PUSH2 0x10F0 PUSH1 0x5 PUSH2 0x22D7 JUMP JUMPDEST ISZERO JUMPDEST ISZERO PUSH2 0x1102 JUMPI PUSH2 0x1101 PUSH1 0x5 PUSH2 0x2343 JUMP JUMPDEST JUMPDEST PUSH32 0x712AE1383F79AC853F8D882153778E0260EF8F03B504E2866E0593E04D2B291F DUP2 PUSH1 0x40 MLOAD PUSH2 0x1131 SWAP2 SWAP1 PUSH2 0x468A JUMP JUMPDEST PUSH1 0x40 MLOAD DUP1 SWAP2 SUB SWAP1 LOG1 DUP1 SWAP2 POP POP SWAP5 SWAP4 POP POP POP POP JUMP JUMPDEST PUSH0 PUSH1 0x4 PUSH0 DUP4 DUP2 MSTORE PUSH1 0x20 ADD SWAP1 DUP2 MSTORE PUSH1 0x20 ADD PUSH0 KECCAK256 PUSH0 ADD PUSH1 0x14 SWAP1 SLOAD SWAP1 PUSH2 0x100 EXP SWAP1 DIV PUSH6 0xFFFFFFFFFFFF AND PUSH6 0xFFFFFFFFFFFF AND SWAP1 POP SWAP2 SWAP1 POP JUMP JUMPDEST PUSH32 0x3E83946653575F9A39005E1545185629E92736B7528AB20CA3816F315424A811 DUP2 JUMP JUMPDEST PUSH0 PUSH3 0x15180 SWAP1 POP SWAP1 JUMP JUMPDEST PUSH0 PUSH2 0x11B3 DUP3 PUSH2 0x23B9 JUMP JUMPDEST SWAP1 POP SWAP2 SWAP1 POP JUMP JUMPDEST PUSH0 PUSH1 0x7 PUSH0 DUP5 DUP2 MSTORE PUSH1 0x20 ADD SWAP1 DUP2 MSTORE PUSH1 0x20 ADD PUSH0 KECCAK256 PUSH1 0x3 ADD PUSH0 DUP4 PUSH20 0xFFFFFFFFFFFFFFFFFFFFFFFFFFFFFFFFFFFFFFFF AND PUSH20 0xFFFFFFFFFFFFFFFFFFFFFFFFFFFFFFFFFFFFFFFF AND DUP2 MSTORE PUSH1 0x20 ADD SWAP1 DUP2 MSTORE PUSH1 0x20 ADD PUSH0 KECCAK256 PUSH0 SWAP1 SLOAD SWAP1 PUSH2 0x100 EXP SWAP1 DIV PUSH1 0xFF AND SWAP1 POP SWAP3 SWAP2 POP POP JUMP JUMPDEST PUSH0 DUP1 PUSH2 0x122D DUP7 DUP7 DUP7 DUP7 PUSH2 0x1C83 JUMP JUMPDEST SWAP1 POP PUSH2 0x1241 DUP2 PUSH2 0x123C PUSH0 PUSH2 0x20FC JUMP JUMPDEST PUSH2 0x2120 JUMP JUMPDEST POP PUSH2 0x124B DUP2 PUSH2 0xDBB JUMP JUMPDEST PUSH20 0xFFFFFFFFFFFFFFFFFFFFFFFFFFFFFFFFFFFFFFFF AND PUSH2 0x1269 PUSH2 0x256E JUMP JUMPDEST PUSH20 0xFFFFFFFFFFFFFFFFFFFFFFFFFFFFFFFFFFFFFFFF AND EQ PUSH2 0x12C8 JUMPI PUSH2 0x128C PUSH2 0x256E JUMP JUMPDEST PUSH1 0x40 MLOAD PUSH32 0x233D98E300000000000000000000000000000000000000000000000000000000 DUP2 MSTORE PUSH1 0x4 ADD PUSH2 0x12BF SWAP2 SWAP1 PUSH2 0x47E1 JUMP JUMPDEST PUSH1 0x40 MLOAD DUP1 SWAP2 SUB SWAP1 REVERT JUMPDEST PUSH2 0x12D4 DUP7 DUP7 DUP7 DUP7 PUSH2 0x2575 JUMP JUMPDEST SWAP2 POP POP SWAP5 SWAP4 POP POP POP POP JUMP JUMPDEST PUSH1 0x60 PUSH2 0x12E9 PUSH2 0x1E8D JUMP JUMPDEST PUSH20 0xFFFFFFFFFFFFFFFFFFFFFFFFFFFFFFFFFFFFFFFF AND PUSH4 0x4BF5D7E9 PUSH1 0x40 MLOAD DUP2 PUSH4 0xFFFFFFFF AND PUSH1 0xE0 SHL DUP2 MSTORE PUSH1 0x4 ADD PUSH0 PUSH1 0x40 MLOAD DUP1 DUP4 SUB DUP2 DUP7 GAS STATICCALL SWAP3 POP POP POP DUP1 ISZERO PUSH2 0x1353 JUMPI POP PUSH1 0x40 MLOAD RETURNDATASIZE PUSH0 DUP3 RETURNDATACOPY RETURNDATASIZE PUSH1 0x1F NOT PUSH1 0x1F DUP3 ADD AND DUP3 ADD DUP1 PUSH1 0x40 MSTORE POP DUP2 ADD SWAP1 PUSH2 0x1350 SWAP2 SWAP1 PUSH2 0x59FD JUMP JUMPDEST PUSH1 0x1 JUMPDEST PUSH2 0x1394 JUMPI PUSH1 0x40 MLOAD DUP1 PUSH1 0x40 ADD PUSH1 0x40 MSTORE DUP1 PUSH1 0x1D DUP2 MSTORE PUSH1 0x20 ADD PUSH32 0x6D6F64653D626C6F636B6E756D6265722666726F6D3D64656661756C74000000 DUP2 MSTORE POP SWAP1 POP PUSH2 0x1399 JUMP JUMPDEST DUP1 SWAP2 POP POP JUMPDEST SWAP1 JUMP JUMPDEST PUSH0 DUP1 PUSH0 DUP1 PUSH1 0x7 PUSH0 DUP7 DUP2 MSTORE PUSH1 0x20 ADD SWAP1 DUP2 MSTORE PUSH1 0x20 ADD PUSH0 KECCAK256 SWAP1 POP DUP1 PUSH0 ADD SLOAD DUP2 PUSH1 0x1 ADD SLOAD DUP3 PUSH1 0x2 ADD SLOAD SWAP4 POP SWAP4 POP SWAP4 POP POP SWAP2 SWAP4 SWAP1 SWAP3 POP JUMP JUMPDEST PUSH1 0x60 PUSH1 0x40 MLOAD DUP1 PUSH1 0x40 ADD PUSH1 0x40 MSTORE DUP1 PUSH1 0x1 DUP2 MSTORE PUSH1 0x20 ADD PUSH32 0x3100000000000000000000000000000000000000000000000000000000000000 DUP2 MSTORE POP SWAP1 POP SWAP1 JUMP JUMPDEST PUSH0 DUP1 PUSH2 0x1416 PUSH2 0x256E JUMP JUMPDEST SWAP1 POP PUSH2 0x1432 DUP5 DUP3 DUP6 PUSH1 0x40 MLOAD DUP1 PUSH1 0x20 ADD PUSH1 0x40 MSTORE DUP1 PUSH0 DUP2 MSTORE POP PUSH2 0x258C JUMP JUMPDEST SWAP2 POP POP SWAP3 SWAP2 POP POP JUMP JUMPDEST PUSH0 DUP1 PUSH2 0x14C8 DUP8 PUSH2 0x14C2 PUSH32 0x3E83946653575F9A39005E1545185629E92736B7528AB20CA3816F315424A811 DUP13 DUP13 DUP13 PUSH2 0x1471 DUP15 PUSH2 0x25AB JUMP JUMPDEST DUP14 DUP14 PUSH1 0x40 MLOAD PUSH2 0x1481 SWAP3 SWAP2 SWAP1 PUSH2 0x5A72 JUMP JUMPDEST PUSH1 0x40 MLOAD DUP1 SWAP2 SUB SWAP1 KECCAK256 DUP13 DUP1 MLOAD SWAP1 PUSH1 0x20 ADD KECCAK256 PUSH1 0x40 MLOAD PUSH1 0x20 ADD PUSH2 0x14A7 SWAP8 SWAP7 SWAP6 SWAP5 SWAP4 SWAP3 SWAP2 SWAP1 PUSH2 0x5A99 JUMP JUMPDEST PUSH1 0x40 MLOAD PUSH1 0x20 DUP2 DUP4 SUB SUB DUP2 MSTORE SWAP1 PUSH1 0x40 MSTORE DUP1 MLOAD SWAP1 PUSH1 0x20 ADD KECCAK256 PUSH2 0x25FE JUMP JUMPDEST DUP6 PUSH2 0x2617 JUMP JUMPDEST SWAP1 POP DUP1 PUSH2 0x150C JUMPI DUP7 PUSH1 0x40 MLOAD PUSH32 0x94AB6C0700000000000000000000000000000000000000000000000000000000 DUP2 MSTORE PUSH1 0x4 ADD PUSH2 0x1503 SWAP2 SWAP1 PUSH2 0x47E1 JUMP JUMPDEST PUSH1 0x40 MLOAD DUP1 SWAP2 SUB SWAP1 REVERT JUMPDEST PUSH2 0x155C DUP10 DUP9 DUP11 DUP10 DUP10 DUP1 DUP1 PUSH1 0x1F ADD PUSH1 0x20 DUP1 SWAP2 DIV MUL PUSH1 0x20 ADD PUSH1 0x40 MLOAD SWAP1 DUP2 ADD PUSH1 0x40 MSTORE DUP1 SWAP4 SWAP3 SWAP2 SWAP1 DUP2 DUP2 MSTORE PUSH1 0x20 ADD DUP4 DUP4 DUP1 DUP3 DUP5 CALLDATACOPY PUSH0 DUP2 DUP5 ADD MSTORE PUSH1 0x1F NOT PUSH1 0x1F DUP3 ADD AND SWAP1 POP DUP1 DUP4 ADD SWAP3 POP POP POP POP POP POP POP DUP9 PUSH2 0x26A4 JUMP JUMPDEST SWAP2 POP POP SWAP8 SWAP7 POP POP POP POP POP POP POP JUMP JUMPDEST PUSH0 DUP1 PUSH2 0x1574 PUSH2 0x256E JUMP JUMPDEST SWAP1 POP PUSH2 0x15C6 DUP8 DUP3 DUP9 DUP9 DUP9 DUP1 DUP1 PUSH1 0x1F ADD PUSH1 0x20 DUP1 SWAP2 DIV MUL PUSH1 0x20 ADD PUSH1 0x40 MLOAD SWAP1 DUP2 ADD PUSH1 0x40 MSTORE DUP1 SWAP4 SWAP3 SWAP2 SWAP1 DUP2 DUP2 MSTORE PUSH1 0x20 ADD DUP4 DUP4 DUP1 DUP3 DUP5 CALLDATACOPY PUSH0 DUP2 DUP5 ADD MSTORE PUSH1 0x1F NOT PUSH1 0x1F DUP3 ADD AND SWAP1 POP DUP1 DUP4 ADD SWAP3 POP POP POP POP POP POP POP DUP8 PUSH2 0x26A4 JUMP JUMPDEST SWAP2 POP POP SWAP6 SWAP5 POP POP POP POP POP JUMP JUMPDEST PUSH0 DUP1 PUSH1 0x8 PUSH0 ADD DUP1 SLOAD SWAP1 POP SWAP1 POP PUSH0 PUSH1 0x8 PUSH0 ADD PUSH1 0x1 DUP4 PUSH2 0x15F0 SWAP2 SWAP1 PUSH2 0x5B33 JUMP JUMPDEST DUP2 SLOAD DUP2 LT PUSH2 0x1601 JUMPI PUSH2 0x1600 PUSH2 0x5962 JUMP JUMPDEST JUMPDEST SWAP1 PUSH0 MSTORE PUSH1 0x20 PUSH0 KECCAK256 ADD SWAP1 POP PUSH0 DUP2 PUSH0 ADD PUSH0 SWAP1 SLOAD SWAP1 PUSH2 0x100 EXP SWAP1 DIV PUSH6 0xFFFFFFFFFFFF AND SWAP1 POP PUSH0 DUP3 PUSH0 ADD PUSH1 0x6 SWAP1 SLOAD SWAP1 PUSH2 0x100 EXP SWAP1 DIV PUSH26 0xFFFFFFFFFFFFFFFFFFFFFFFFFFFFFFFFFFFFFFFFFFFFFFFFFFFF AND SWAP1 POP DUP6 DUP3 PUSH6 0xFFFFFFFFFFFF AND GT PUSH2 0x1687 JUMPI DUP1 PUSH26 0xFFFFFFFFFFFFFFFFFFFFFFFFFFFFFFFFFFFFFFFFFFFFFFFFFFFF AND SWAP5 POP POP POP POP POP PUSH2 0x16C6 JUMP JUMPDEST PUSH2 0x16A3 PUSH2 0x1693 DUP8 PUSH2 0x27A1 JUMP JUMPDEST PUSH1 0x8 PUSH2 0x27FA SWAP1 SWAP2 SWAP1 PUSH4 0xFFFFFFFF AND JUMP JUMPDEST PUSH26 0xFFFFFFFFFFFFFFFFFFFFFFFFFFFFFFFFFFFFFFFFFFFFFFFFFFFF AND SWAP5 POP POP POP POP POP JUMPDEST SWAP2 SWAP1 POP JUMP JUMPDEST PUSH0 DUP1 PUSH2 0x16D5 PUSH2 0x256E JUMP JUMPDEST SWAP1 POP PUSH2 0x1726 DUP7 DUP3 DUP8 DUP8 DUP8 DUP1 DUP1 PUSH1 0x1F ADD PUSH1 0x20 DUP1 SWAP2 DIV MUL PUSH1 0x20 ADD PUSH1 0x40 MLOAD SWAP1 DUP2 ADD PUSH1 0x40 MSTORE DUP1 SWAP4 SWAP3 SWAP2 SWAP1 DUP2 DUP2 MSTORE PUSH1 0x20 ADD DUP4 DUP4 DUP1 DUP3 DUP5 CALLDATACOPY PUSH0 DUP2 DUP5 ADD MSTORE PUSH1 0x1F NOT PUSH1 0x1F DUP3 ADD AND SWAP1 POP DUP1 DUP4 ADD SWAP3 POP POP POP POP POP POP POP PUSH2 0x258C JUMP JUMPDEST SWAP2 POP POP SWAP5 SWAP4 POP POP POP POP JUMP JUMPDEST PUSH0 DUP1 PUSH2 0x173B PUSH2 0x256E JUMP JUMPDEST SWAP1 POP PUSH2 0x1747 DUP2 DUP5 PUSH2 0x28E7 JUMP JUMPDEST PUSH2 0x1788 JUMPI DUP1 PUSH1 0x40 MLOAD PUSH32 0xD9B3955700000000000000000000000000000000000000000000000000000000 DUP2 MSTORE PUSH1 0x4 ADD PUSH2 0x177F SWAP2 SWAP1 PUSH2 0x47E1 JUMP JUMPDEST PUSH1 0x40 MLOAD DUP1 SWAP2 SUB SWAP1 REVERT JUMPDEST PUSH0 PUSH2 0x17AE DUP3 PUSH1 0x1 PUSH2 0x1797 PUSH2 0x19DD JUMP JUMPDEST PUSH2 0x17A1 SWAP2 SWAP1 PUSH2 0x5B66 JUMP JUMPDEST PUSH6 0xFFFFFFFFFFFF AND PUSH2 0x1D46 JUMP JUMPDEST SWAP1 POP PUSH0 PUSH2 0x17B9 PUSH2 0x1B0C JUMP JUMPDEST SWAP1 POP DUP1 DUP3 LT ISZERO PUSH2 0x1804 JUMPI DUP3 DUP3 DUP3 PUSH1 0x40 MLOAD PUSH32 0xC242EE1600000000000000000000000000000000000000000000000000000000 DUP2 MSTORE PUSH1 0x4 ADD PUSH2 0x17FB SWAP4 SWAP3 SWAP2 SWAP1 PUSH2 0x5B9F JUMP JUMPDEST PUSH1 0x40 MLOAD DUP1 SWAP2 SUB SWAP1 REVERT JUMPDEST PUSH2 0x1811 DUP9 DUP9 DUP9 DUP9 DUP8 PUSH2 0x2A2F JUMP JUMPDEST SWAP4 POP POP POP POP SWAP5 SWAP4 POP POP POP POP JUMP JUMPDEST PUSH0 PUSH1 0x2 PUSH0 DUP4 PUSH20 0xFFFFFFFFFFFFFFFFFFFFFFFFFFFFFFFFFFFFFFFF AND PUSH20 0xFFFFFFFFFFFFFFFFFFFFFFFFFFFFFFFFFFFFFFFF AND DUP2 MSTORE PUSH1 0x20 ADD SWAP1 DUP2 MSTORE PUSH1 0x20 ADD PUSH0 KECCAK256 SLOAD SWAP1 POP SWAP2 SWAP1 POP JUMP JUMPDEST PUSH0 PUSH1 0x60 DUP1 PUSH0 DUP1 PUSH0 PUSH1 0x60 PUSH2 0x1875 PUSH2 0x2CB4 JUMP JUMPDEST PUSH2 0x187D PUSH2 0x2CEE JUMP JUMPDEST CHAINID ADDRESS PUSH0 DUP1 SHL PUSH0 PUSH8 0xFFFFFFFFFFFFFFFF DUP2 GT ISZERO PUSH2 0x189C JUMPI PUSH2 0x189B PUSH2 0x482C JUMP JUMPDEST JUMPDEST PUSH1 0x40 MLOAD SWAP1 DUP1 DUP3 MSTORE DUP1 PUSH1 0x20 MUL PUSH1 0x20 ADD DUP3 ADD PUSH1 0x40 MSTORE DUP1 ISZERO PUSH2 0x18CA JUMPI DUP2 PUSH1 0x20 ADD PUSH1 0x20 DUP3 MUL DUP1 CALLDATASIZE DUP4 CALLDATACOPY DUP1 DUP3 ADD SWAP2 POP POP SWAP1 POP JUMPDEST POP PUSH32 0xF00000000000000000000000000000000000000000000000000000000000000 SWAP6 SWAP5 SWAP4 SWAP3 SWAP2 SWAP1 SWAP7 POP SWAP7 POP SWAP7 POP SWAP7 POP SWAP7 POP SWAP7 POP SWAP7 POP SWAP1 SWAP2 SWAP3 SWAP4 SWAP5 SWAP6 SWAP7 JUMP JUMPDEST PUSH0 DUP1 PUSH2 0x1974 DUP5 PUSH2 0x196E PUSH32 0xF2AAD550CF55F045CB27E9C559F9889FDFB6E6CDAA032301D6EA397784AE51D7 DUP10 DUP10 DUP10 PUSH2 0x193F DUP12 PUSH2 0x25AB JUMP JUMPDEST PUSH1 0x40 MLOAD PUSH1 0x20 ADD PUSH2 0x1953 SWAP6 SWAP5 SWAP4 SWAP3 SWAP2 SWAP1 PUSH2 0x5BD4 JUMP JUMPDEST PUSH1 0x40 MLOAD PUSH1 0x20 DUP2 DUP4 SUB SUB DUP2 MSTORE SWAP1 PUSH1 0x40 MSTORE DUP1 MLOAD SWAP1 PUSH1 0x20 ADD KECCAK256 PUSH2 0x25FE JUMP JUMPDEST DUP6 PUSH2 0x2617 JUMP JUMPDEST SWAP1 POP DUP1 PUSH2 0x19B8 JUMPI DUP4 PUSH1 0x40 MLOAD PUSH32 0x94AB6C0700000000000000000000000000000000000000000000000000000000 DUP2 MSTORE PUSH1 0x4 ADD PUSH2 0x19AF SWAP2 SWAP1 PUSH2 0x47E1 JUMP JUMPDEST PUSH1 0x40 MLOAD DUP1 SWAP2 SUB SWAP1 REVERT JUMPDEST PUSH2 0x19D2 DUP7 DUP6 DUP8 PUSH1 0x40 MLOAD DUP1 PUSH1 0x20 ADD PUSH1 0x40 MSTORE DUP1 PUSH0 DUP2 MSTORE POP PUSH2 0x258C JUMP JUMPDEST SWAP2 POP POP SWAP5 SWAP4 POP POP POP POP JUMP JUMPDEST PUSH0 PUSH2 0x19E6 PUSH2 0x1E8D JUMP JUMPDEST PUSH20 0xFFFFFFFFFFFFFFFFFFFFFFFFFFFFFFFFFFFFFFFF AND PUSH4 0x91DDADF4 PUSH1 0x40 MLOAD DUP2 PUSH4 0xFFFFFFFF AND PUSH1 0xE0 SHL DUP2 MSTORE PUSH1 0x4 ADD PUSH1 0x20 PUSH1 0x40 MLOAD DUP1 DUP4 SUB DUP2 DUP7 GAS STATICCALL SWAP3 POP POP POP DUP1 ISZERO PUSH2 0x1A4D JUMPI POP PUSH1 0x40 MLOAD RETURNDATASIZE PUSH1 0x1F NOT PUSH1 0x1F DUP3 ADD AND DUP3 ADD DUP1 PUSH1 0x40 MSTORE POP DUP2 ADD SWAP1 PUSH2 0x1A4A SWAP2 SWAP1 PUSH2 0x5C4F JUMP JUMPDEST PUSH1 0x1 JUMPDEST PUSH2 0x1A60 JUMPI PUSH2 0x1A59 PUSH2 0x2D29 JUMP JUMPDEST SWAP1 POP PUSH2 0x1A65 JUMP JUMPDEST DUP1 SWAP2 POP POP JUMPDEST SWAP1 JUMP JUMPDEST PUSH0 PUSH1 0x64 SWAP1 POP SWAP1 JUMP JUMPDEST PUSH0 PUSH2 0x1A7C DUP5 DUP5 DUP5 PUSH2 0x2D38 JUMP JUMPDEST SWAP1 POP SWAP4 SWAP3 POP POP POP JUMP JUMPDEST PUSH0 PUSH2 0x1A90 PUSH1 0x8 PUSH2 0x2DC3 JUMP JUMPDEST PUSH26 0xFFFFFFFFFFFFFFFFFFFFFFFFFFFFFFFFFFFFFFFFFFFFFFFFFFFF AND SWAP1 POP SWAP1 JUMP JUMPDEST PUSH2 0x1AB9 PUSH2 0x1F45 JUMP JUMPDEST PUSH2 0x1AC2 DUP2 PUSH2 0x2E25 JUMP JUMPDEST POP JUMP JUMPDEST PUSH0 PUSH2 0x1ACF DUP3 PUSH2 0x2EC2 JUMP JUMPDEST SWAP1 POP SWAP2 SWAP1 POP JUMP JUMPDEST PUSH0 PUSH1 0x4 PUSH0 DUP4 DUP2 MSTORE PUSH1 0x20 ADD SWAP1 DUP2 MSTORE PUSH1 0x20 ADD PUSH0 KECCAK256 PUSH1 0x1 ADD PUSH0 SWAP1 SLOAD SWAP1 PUSH2 0x100 EXP SWAP1 DIV PUSH6 0xFFFFFFFFFFFF AND PUSH6 0xFFFFFFFFFFFF AND SWAP1 POP SWAP2 SWAP1 POP JUMP JUMPDEST PUSH0 SWAP1 JUMP JUMPDEST PUSH0 ADDRESS PUSH20 0xFFFFFFFFFFFFFFFFFFFFFFFFFFFFFFFFFFFFFFFF AND PUSH2 0x1B30 PUSH2 0xC1E JUMP JUMPDEST PUSH20 0xFFFFFFFFFFFFFFFFFFFFFFFFFFFFFFFFFFFFFFFF AND EQ PUSH2 0x1B7D JUMPI PUSH1 0x40 MLOAD PUSH32 0xE90A651E00000000000000000000000000000000000000000000000000000000 DUP2 MSTORE PUSH1 0x4 ADD PUSH1 0x40 MLOAD DUP1 SWAP2 SUB SWAP1 REVERT JUMPDEST PUSH4 0xBC197C81 PUSH1 0xE0 SHL SWAP1 POP SWAP6 SWAP5 POP POP POP POP POP JUMP JUMPDEST PUSH0 PUSH1 0x4 PUSH0 DUP4 DUP2 MSTORE PUSH1 0x20 ADD SWAP1 DUP2 MSTORE PUSH1 0x20 ADD PUSH0 KECCAK256 PUSH0 ADD PUSH1 0x1A SWAP1 SLOAD SWAP1 PUSH2 0x100 EXP SWAP1 DIV PUSH4 0xFFFFFFFF AND PUSH4 0xFFFFFFFF AND PUSH1 0x4 PUSH0 DUP5 DUP2 MSTORE PUSH1 0x20 ADD SWAP1 DUP2 MSTORE PUSH1 0x20 ADD PUSH0 KECCAK256 PUSH0 ADD PUSH1 0x14 SWAP1 SLOAD SWAP1 PUSH2 0x100 EXP SWAP1 DIV PUSH6 0xFFFFFFFFFFFF AND PUSH2 0x1BEB SWAP2 SWAP1 PUSH2 0x5C7A JUMP JUMPDEST PUSH6 0xFFFFFFFFFFFF AND SWAP1 POP SWAP2 SWAP1 POP JUMP JUMPDEST PUSH2 0x1C02 PUSH2 0x1F45 JUMP JUMPDEST PUSH0 DUP1 DUP6 PUSH20 0xFFFFFFFFFFFFFFFFFFFFFFFFFFFFFFFFFFFFFFFF AND DUP6 DUP6 DUP6 PUSH1 0x40 MLOAD PUSH2 0x1C2C SWAP3 SWAP2 SWAP1 PUSH2 0x5A72 JUMP JUMPDEST PUSH0 PUSH1 0x40 MLOAD DUP1 DUP4 SUB DUP2 DUP6 DUP8 GAS CALL SWAP3 POP POP POP RETURNDATASIZE DUP1 PUSH0 DUP2 EQ PUSH2 0x1C66 JUMPI PUSH1 0x40 MLOAD SWAP2 POP PUSH1 0x1F NOT PUSH1 0x3F RETURNDATASIZE ADD AND DUP3 ADD PUSH1 0x40 MSTORE RETURNDATASIZE DUP3 MSTORE RETURNDATASIZE PUSH0 PUSH1 0x20 DUP5 ADD RETURNDATACOPY PUSH2 0x1C6B JUMP JUMPDEST PUSH1 0x60 SWAP2 POP JUMPDEST POP SWAP2 POP SWAP2 POP PUSH2 0x1C7A DUP3 DUP3 PUSH2 0x2ECC JUMP JUMPDEST POP POP POP POP POP POP POP JUMP JUMPDEST PUSH0 DUP5 DUP5 DUP5 DUP5 PUSH1 0x40 MLOAD PUSH1 0x20 ADD PUSH2 0x1C9B SWAP5 SWAP4 SWAP3 SWAP2 SWAP1 PUSH2 0x5E77 JUMP JUMPDEST PUSH1 0x40 MLOAD PUSH1 0x20 DUP2 DUP4 SUB SUB DUP2 MSTORE SWAP1 PUSH1 0x40 MSTORE DUP1 MLOAD SWAP1 PUSH1 0x20 ADD KECCAK256 PUSH0 SHR SWAP1 POP SWAP5 SWAP4 POP POP POP POP JUMP JUMPDEST PUSH0 PUSH1 0x9 PUSH0 SWAP1 SLOAD SWAP1 PUSH2 0x100 EXP SWAP1 DIV PUSH20 0xFFFFFFFFFFFFFFFFFFFFFFFFFFFFFFFFFFFFFFFF AND SWAP1 POP SWAP1 JUMP JUMPDEST PUSH1 0x60 PUSH1 0x40 MLOAD DUP1 PUSH1 0x40 ADD PUSH1 0x40 MSTORE DUP1 PUSH1 0x20 DUP2 MSTORE PUSH1 0x20 ADD PUSH32 0x737570706F72743D627261766F2671756F72756D3D666F722C6162737461696E DUP2 MSTORE POP SWAP1 POP SWAP1 JUMP JUMPDEST PUSH32 0xF2AAD550CF55F045CB27E9C559F9889FDFB6E6CDAA032301D6EA397784AE51D7 DUP2 JUMP JUMPDEST PUSH0 PUSH2 0x1D59 DUP4 DUP4 PUSH2 0x1D54 PUSH2 0x2EF0 JUMP JUMPDEST PUSH2 0x2D38 JUMP JUMPDEST SWAP1 POP SWAP3 SWAP2 POP POP JUMP JUMPDEST PUSH0 ADDRESS PUSH20 0xFFFFFFFFFFFFFFFFFFFFFFFFFFFFFFFFFFFFFFFF AND PUSH2 0x1D81 PUSH2 0xC1E JUMP JUMPDEST PUSH20 0xFFFFFFFFFFFFFFFFFFFFFFFFFFFFFFFFFFFFFFFF AND EQ PUSH2 0x1DCE JUMPI PUSH1 0x40 MLOAD PUSH32 0xE90A651E00000000000000000000000000000000000000000000000000000000 DUP2 MSTORE PUSH1 0x4 ADD PUSH1 0x40 MLOAD DUP1 SWAP2 SUB SWAP1 REVERT JUMPDEST PUSH4 0xF23A6E61 PUSH1 0xE0 SHL SWAP1 POP SWAP6 SWAP5 POP POP POP POP POP JUMP JUMPDEST PUSH0 PUSH2 0x1DEA PUSH2 0x1A68 JUMP JUMPDEST PUSH2 0x1DF3 DUP4 PUSH2 0x15D2 JUMP JUMPDEST PUSH2 0x1DFB PUSH2 0x1E8D JUMP JUMPDEST PUSH20 0xFFFFFFFFFFFFFFFFFFFFFFFFFFFFFFFFFFFFFFFF AND PUSH4 0x8E539E8C DUP6 PUSH1 0x40 MLOAD DUP3 PUSH4 0xFFFFFFFF AND PUSH1 0xE0 SHL DUP2 MSTORE PUSH1 0x4 ADD PUSH2 0x1E33 SWAP2 SWAP1 PUSH2 0x468A JUMP JUMPDEST PUSH1 0x20 PUSH1 0x40 MLOAD DUP1 DUP4 SUB DUP2 DUP7 GAS STATICCALL ISZERO DUP1 ISZERO PUSH2 0x1E4E JUMPI RETURNDATASIZE PUSH0 DUP1 RETURNDATACOPY RETURNDATASIZE PUSH0 REVERT JUMPDEST POP POP POP POP PUSH1 0x40 MLOAD RETURNDATASIZE PUSH1 0x1F NOT PUSH1 0x1F DUP3 ADD AND DUP3 ADD DUP1 PUSH1 0x40 MSTORE POP DUP2 ADD SWAP1 PUSH2 0x1E72 SWAP2 SWAP1 PUSH2 0x5EE3 JUMP JUMPDEST PUSH2 0x1E7C SWAP2 SWAP1 PUSH2 0x5F0E JUMP JUMPDEST PUSH2 0x1E86 SWAP2 SWAP1 PUSH2 0x5F7C JUMP JUMPDEST SWAP1 POP SWAP2 SWAP1 POP JUMP JUMPDEST PUSH0 PUSH32 0x0 SWAP1 POP SWAP1 JUMP JUMPDEST PUSH0 PUSH1 0x9 PUSH0 SWAP1 SLOAD SWAP1 PUSH2 0x100 EXP SWAP1 DIV PUSH20 0xFFFFFFFFFFFFFFFFFFFFFFFFFFFFFFFFFFFFFFFF AND SWAP1 POP SWAP1 JUMP JUMPDEST PUSH0 PUSH32 0x1FFC9A700000000000000000000000000000000000000000000000000000000 PUSH28 0xFFFFFFFFFFFFFFFFFFFFFFFFFFFFFFFFFFFFFFFFFFFFFFFFFFFFFFFF NOT AND DUP3 PUSH28 0xFFFFFFFFFFFFFFFFFFFFFFFFFFFFFFFFFFFFFFFFFFFFFFFFFFFFFFFF NOT AND EQ SWAP1 POP SWAP2 SWAP1 POP JUMP JUMPDEST PUSH2 0x1F4D PUSH2 0x256E JUMP JUMPDEST PUSH20 0xFFFFFFFFFFFFFFFFFFFFFFFFFFFFFFFFFFFFFFFF AND PUSH2 0x1F6B PUSH2 0xC1E JUMP JUMPDEST PUSH20 0xFFFFFFFFFFFFFFFFFFFFFFFFFFFFFFFFFFFFFFFF AND EQ PUSH2 0x1FCA JUMPI PUSH2 0x1F8E PUSH2 0x256E JUMP JUMPDEST PUSH1 0x40 MLOAD PUSH32 0x47096E4700000000000000000000000000000000000000000000000000000000 DUP2 MSTORE PUSH1 0x4 ADD PUSH2 0x1FC1 SWAP2 SWAP1 PUSH2 0x47E1 JUMP JUMPDEST PUSH1 0x40 MLOAD DUP1 SWAP2 SUB SWAP1 REVERT JUMPDEST ADDRESS PUSH20 0xFFFFFFFFFFFFFFFFFFFFFFFFFFFFFFFFFFFFFFFF AND PUSH2 0x1FE9 PUSH2 0xC1E JUMP JUMPDEST PUSH20 0xFFFFFFFFFFFFFFFFFFFFFFFFFFFFFFFFFFFFFFFF AND EQ PUSH2 0x2038 JUMPI PUSH0 PUSH2 0x200D PUSH2 0x2F06 JUMP JUMPDEST PUSH1 0x40 MLOAD PUSH2 0x201B SWAP3 SWAP2 SWAP1 PUSH2 0x5A72 JUMP JUMPDEST PUSH1 0x40 MLOAD DUP1 SWAP2 SUB SWAP1 KECCAK256 SWAP1 POP JUMPDEST DUP1 PUSH2 0x2031 PUSH1 0x5 PUSH2 0x2F12 JUMP JUMPDEST SUB PUSH2 0x2026 JUMPI POP JUMPDEST JUMP JUMPDEST PUSH0 PUSH2 0x2043 PUSH2 0x1A68 JUMP JUMPDEST SWAP1 POP DUP1 DUP3 GT ISZERO PUSH2 0x208C JUMPI DUP2 DUP2 PUSH1 0x40 MLOAD PUSH32 0x243E544500000000000000000000000000000000000000000000000000000000 DUP2 MSTORE PUSH1 0x4 ADD PUSH2 0x2083 SWAP3 SWAP2 SWAP1 PUSH2 0x5FAC JUMP JUMPDEST PUSH1 0x40 MLOAD DUP1 SWAP2 SUB SWAP1 REVERT JUMPDEST PUSH0 PUSH2 0x2095 PUSH2 0x1A85 JUMP JUMPDEST SWAP1 POP PUSH2 0x20BC PUSH2 0x20A2 PUSH2 0x19DD JUMP JUMPDEST PUSH2 0x20AB DUP6 PUSH2 0x3067 JUMP JUMPDEST PUSH1 0x8 PUSH2 0x30D4 SWAP1 SWAP3 SWAP2 SWAP1 PUSH4 0xFFFFFFFF AND JUMP JUMPDEST POP POP PUSH32 0x553476BF02EF2726E8CE5CED78D63E26E602E4A2257B1F559418E24B4633997 DUP2 DUP5 PUSH1 0x40 MLOAD PUSH2 0x20EF SWAP3 SWAP2 SWAP1 PUSH2 0x5FAC JUMP JUMPDEST PUSH1 0x40 MLOAD DUP1 SWAP2 SUB SWAP1 LOG1 POP POP POP JUMP JUMPDEST PUSH0 DUP2 PUSH1 0x7 DUP2 GT ISZERO PUSH2 0x2110 JUMPI PUSH2 0x210F PUSH2 0x4D6D JUMP JUMPDEST JUMPDEST PUSH1 0xFF AND PUSH1 0x1 SWAP1 SHL PUSH0 SHL SWAP1 POP SWAP2 SWAP1 POP JUMP JUMPDEST PUSH0 DUP1 PUSH2 0x212B DUP5 PUSH2 0x11A9 JUMP JUMPDEST SWAP1 POP PUSH0 DUP1 SHL DUP4 PUSH2 0x213A DUP4 PUSH2 0x20FC JUMP JUMPDEST AND SUB PUSH2 0x2181 JUMPI DUP4 DUP2 DUP5 PUSH1 0x40 MLOAD PUSH32 0x31B75E4D00000000000000000000000000000000000000000000000000000000 DUP2 MSTORE PUSH1 0x4 ADD PUSH2 0x2178 SWAP4 SWAP3 SWAP2 SWAP1 PUSH2 0x5FD3 JUMP JUMPDEST PUSH1 0x40 MLOAD DUP1 SWAP2 SUB SWAP1 REVERT JUMPDEST DUP1 SWAP2 POP POP SWAP3 SWAP2 POP POP JUMP JUMPDEST PUSH0 PUSH2 0x2199 DUP7 DUP7 DUP7 DUP7 DUP7 PUSH2 0x30EF JUMP JUMPDEST SWAP1 POP SWAP6 SWAP5 POP POP POP POP POP JUMP JUMPDEST PUSH0 DUP3 PUSH0 ADD PUSH1 0x10 SWAP1 SLOAD SWAP1 PUSH2 0x100 EXP SWAP1 DIV PUSH16 0xFFFFFFFFFFFFFFFFFFFFFFFFFFFFFFFF AND SWAP1 POP DUP3 PUSH0 ADD PUSH0 SWAP1 SLOAD SWAP1 PUSH2 0x100 EXP SWAP1 DIV PUSH16 0xFFFFFFFFFFFFFFFFFFFFFFFFFFFFFFFF AND PUSH16 0xFFFFFFFFFFFFFFFFFFFFFFFFFFFFFFFF AND PUSH1 0x1 DUP3 ADD PUSH16 0xFFFFFFFFFFFFFFFFFFFFFFFFFFFFFFFF AND SUB PUSH2 0x2245 JUMPI PUSH1 0x40 MLOAD PUSH32 0x8ACB5F2700000000000000000000000000000000000000000000000000000000 DUP2 MSTORE PUSH1 0x4 ADD PUSH1 0x40 MLOAD DUP1 SWAP2 SUB SWAP1 REVERT JUMPDEST DUP2 DUP4 PUSH1 0x1 ADD PUSH0 DUP4 PUSH16 0xFFFFFFFFFFFFFFFFFFFFFFFFFFFFFFFF AND PUSH16 0xFFFFFFFFFFFFFFFFFFFFFFFFFFFFFFFF AND DUP2 MSTORE PUSH1 0x20 ADD SWAP1 DUP2 MSTORE PUSH1 0x20 ADD PUSH0 KECCAK256 DUP2 SWAP1 SSTORE POP PUSH1 0x1 DUP2 ADD DUP4 PUSH0 ADD PUSH1 0x10 PUSH2 0x100 EXP DUP2 SLOAD DUP2 PUSH16 0xFFFFFFFFFFFFFFFFFFFFFFFFFFFFFFFF MUL NOT AND SWAP1 DUP4 PUSH16 0xFFFFFFFFFFFFFFFFFFFFFFFFFFFFFFFF AND MUL OR SWAP1 SSTORE POP POP POP POP JUMP JUMPDEST PUSH2 0x22D0 DUP6 DUP6 DUP6 DUP6 DUP6 PUSH2 0x32F5 JUMP JUMPDEST POP POP POP POP POP JUMP JUMPDEST PUSH0 DUP2 PUSH0 ADD PUSH0 SWAP1 SLOAD SWAP1 PUSH2 0x100 EXP SWAP1 DIV PUSH16 0xFFFFFFFFFFFFFFFFFFFFFFFFFFFFFFFF AND PUSH16 0xFFFFFFFFFFFFFFFFFFFFFFFFFFFFFFFF AND DUP3 PUSH0 ADD PUSH1 0x10 SWAP1 SLOAD SWAP1 PUSH2 0x100 EXP SWAP1 DIV PUSH16 0xFFFFFFFFFFFFFFFFFFFFFFFFFFFFFFFF AND PUSH16 0xFFFFFFFFFFFFFFFFFFFFFFFFFFFFFFFF AND EQ SWAP1 POP SWAP2 SWAP1 POP JUMP JUMPDEST PUSH0 DUP2 PUSH0 ADD PUSH0 PUSH2 0x100 EXP DUP2 SLOAD DUP2 PUSH16 0xFFFFFFFFFFFFFFFFFFFFFFFFFFFFFFFF MUL NOT AND SWAP1 DUP4 PUSH16 0xFFFFFFFFFFFFFFFFFFFFFFFFFFFFFFFF AND MUL OR SWAP1 SSTORE POP PUSH0 DUP2 PUSH0 ADD PUSH1 0x10 PUSH2 0x100 EXP DUP2 SLOAD DUP2 PUSH16 0xFFFFFFFFFFFFFFFFFFFFFFFFFFFFFFFF MUL NOT AND SWAP1 DUP4 PUSH16 0xFFFFFFFFFFFFFFFFFFFFFFFFFFFFFFFF AND MUL OR SWAP1 SSTORE POP POP JUMP JUMPDEST PUSH0 DUP1 PUSH2 0x23C4 DUP4 PUSH2 0x33A9 JUMP JUMPDEST SWAP1 POP PUSH1 0x5 PUSH1 0x7 DUP2 GT ISZERO PUSH2 0x23DA JUMPI PUSH2 0x23D9 PUSH2 0x4D6D JUMP JUMPDEST JUMPDEST DUP2 PUSH1 0x7 DUP2 GT ISZERO PUSH2 0x23ED JUMPI PUSH2 0x23EC PUSH2 0x4D6D JUMP JUMPDEST JUMPDEST EQ PUSH2 0x23FB JUMPI DUP1 SWAP2 POP POP PUSH2 0x2569 JUMP JUMPDEST PUSH0 PUSH1 0xA PUSH0 DUP6 DUP2 MSTORE PUSH1 0x20 ADD SWAP1 DUP2 MSTORE PUSH1 0x20 ADD PUSH0 KECCAK256 SLOAD SWAP1 POP PUSH1 0x9 PUSH0 SWAP1 SLOAD SWAP1 PUSH2 0x100 EXP SWAP1 DIV PUSH20 0xFFFFFFFFFFFFFFFFFFFFFFFFFFFFFFFFFFFFFFFF AND PUSH20 0xFFFFFFFFFFFFFFFFFFFFFFFFFFFFFFFFFFFFFFFF AND PUSH4 0x584B153E DUP3 PUSH1 0x40 MLOAD DUP3 PUSH4 0xFFFFFFFF AND PUSH1 0xE0 SHL DUP2 MSTORE PUSH1 0x4 ADD PUSH2 0x246A SWAP2 SWAP1 PUSH2 0x4D54 JUMP JUMPDEST PUSH1 0x20 PUSH1 0x40 MLOAD DUP1 DUP4 SUB DUP2 DUP7 GAS STATICCALL ISZERO DUP1 ISZERO PUSH2 0x2485 JUMPI RETURNDATASIZE PUSH0 DUP1 RETURNDATACOPY RETURNDATASIZE PUSH0 REVERT JUMPDEST POP POP POP POP PUSH1 0x40 MLOAD RETURNDATASIZE PUSH1 0x1F NOT PUSH1 0x1F DUP3 ADD AND DUP3 ADD DUP1 PUSH1 0x40 MSTORE POP DUP2 ADD SWAP1 PUSH2 0x24A9 SWAP2 SWAP1 PUSH2 0x6032 JUMP JUMPDEST ISZERO PUSH2 0x24B9 JUMPI PUSH1 0x5 SWAP3 POP POP POP PUSH2 0x2569 JUMP JUMPDEST PUSH1 0x9 PUSH0 SWAP1 SLOAD SWAP1 PUSH2 0x100 EXP SWAP1 DIV PUSH20 0xFFFFFFFFFFFFFFFFFFFFFFFFFFFFFFFFFFFFFFFF AND PUSH20 0xFFFFFFFFFFFFFFFFFFFFFFFFFFFFFFFFFFFFFFFF AND PUSH4 0x2AB0F529 DUP3 PUSH1 0x40 MLOAD DUP3 PUSH4 0xFFFFFFFF AND PUSH1 0xE0 SHL DUP2 MSTORE PUSH1 0x4 ADD PUSH2 0x2513 SWAP2 SWAP1 PUSH2 0x4D54 JUMP JUMPDEST PUSH1 0x20 PUSH1 0x40 MLOAD DUP1 DUP4 SUB DUP2 DUP7 GAS STATICCALL ISZERO DUP1 ISZERO PUSH2 0x252E JUMPI RETURNDATASIZE PUSH0 DUP1 RETURNDATACOPY RETURNDATASIZE PUSH0 REVERT JUMPDEST POP POP POP POP PUSH1 0x40 MLOAD RETURNDATASIZE PUSH1 0x1F NOT PUSH1 0x1F DUP3 ADD AND DUP3 ADD DUP1 PUSH1 0x40 MSTORE POP DUP2 ADD SWAP1 PUSH2 0x2552 SWAP2 SWAP1 PUSH2 0x6032 JUMP JUMPDEST ISZERO PUSH2 0x2562 JUMPI PUSH1 0x7 SWAP3 POP POP POP PUSH2 0x2569 JUMP JUMPDEST PUSH1 0x2 SWAP3 POP POP POP JUMPDEST SWAP2 SWAP1 POP JUMP JUMPDEST PUSH0 CALLER SWAP1 POP SWAP1 JUMP JUMPDEST PUSH0 PUSH2 0x2582 DUP6 DUP6 DUP6 DUP6 PUSH2 0x3500 JUMP JUMPDEST SWAP1 POP SWAP5 SWAP4 POP POP POP POP JUMP JUMPDEST PUSH0 PUSH2 0x25A1 DUP6 DUP6 DUP6 DUP6 PUSH2 0x259C PUSH2 0x2EF0 JUMP JUMPDEST PUSH2 0x26A4 JUMP JUMPDEST SWAP1 POP SWAP5 SWAP4 POP POP POP POP JUMP JUMPDEST PUSH0 PUSH1 0x2 PUSH0 DUP4 PUSH20 0xFFFFFFFFFFFFFFFFFFFFFFFFFFFFFFFFFFFFFFFF AND PUSH20 0xFFFFFFFFFFFFFFFFFFFFFFFFFFFFFFFFFFFFFFFF AND DUP2 MSTORE PUSH1 0x20 ADD SWAP1 DUP2 MSTORE PUSH1 0x20 ADD PUSH0 KECCAK256 PUSH0 DUP2 SLOAD DUP1 SWAP3 SWAP2 SWAP1 PUSH1 0x1 ADD SWAP2 SWAP1 POP SSTORE SWAP1 POP SWAP2 SWAP1 POP JUMP JUMPDEST PUSH0 PUSH2 0x2610 PUSH2 0x260A PUSH2 0x35D7 JUMP JUMPDEST DUP4 PUSH2 0x368D JUMP JUMPDEST SWAP1 POP SWAP2 SWAP1 POP JUMP JUMPDEST PUSH0 DUP1 PUSH0 PUSH2 0x2624 DUP6 DUP6 PUSH2 0x36CD JUMP JUMPDEST POP SWAP2 POP SWAP2 POP PUSH0 PUSH1 0x3 DUP2 GT ISZERO PUSH2 0x263C JUMPI PUSH2 0x263B PUSH2 0x4D6D JUMP JUMPDEST JUMPDEST DUP2 PUSH1 0x3 DUP2 GT ISZERO PUSH2 0x264F JUMPI PUSH2 0x264E PUSH2 0x4D6D JUMP JUMPDEST JUMPDEST EQ DUP1 ISZERO PUSH2 0x2687 JUMPI POP DUP6 PUSH20 0xFFFFFFFFFFFFFFFFFFFFFFFFFFFFFFFFFFFFFFFF AND DUP3 PUSH20 0xFFFFFFFFFFFFFFFFFFFFFFFFFFFFFFFFFFFFFFFF AND EQ JUMPDEST DUP1 PUSH2 0x2699 JUMPI POP PUSH2 0x2698 DUP7 DUP7 DUP7 PUSH2 0x3722 JUMP JUMPDEST JUMPDEST SWAP3 POP POP POP SWAP4 SWAP3 POP POP POP JUMP JUMPDEST PUSH0 PUSH2 0x26B8 DUP7 PUSH2 0x26B3 PUSH1 0x1 PUSH2 0x20FC JUMP JUMPDEST PUSH2 0x2120 JUMP JUMPDEST POP PUSH0 PUSH2 0x26CD DUP7 PUSH2 0x26C7 DUP10 PUSH2 0x1145 JUMP JUMPDEST DUP6 PUSH2 0x2D38 JUMP JUMPDEST SWAP1 POP PUSH2 0x26DC DUP8 DUP8 DUP8 DUP5 DUP8 PUSH2 0x3841 JUMP JUMPDEST PUSH0 DUP4 MLOAD SUB PUSH2 0x273D JUMPI DUP6 PUSH20 0xFFFFFFFFFFFFFFFFFFFFFFFFFFFFFFFFFFFFFFFF AND PUSH32 0xB8E138887D0AA13BAB447E82DE9D5C1777041ECD21CA36BA824FF1E6C07DDDA4 DUP9 DUP8 DUP5 DUP9 PUSH1 0x40 MLOAD PUSH2 0x2730 SWAP5 SWAP4 SWAP3 SWAP2 SWAP1 PUSH2 0x605D JUMP JUMPDEST PUSH1 0x40 MLOAD DUP1 SWAP2 SUB SWAP1 LOG2 PUSH2 0x2794 JUMP JUMPDEST DUP6 PUSH20 0xFFFFFFFFFFFFFFFFFFFFFFFFFFFFFFFFFFFFFFFF AND PUSH32 0xE2BABFBAC5889A709B63BB7F598B324E08BC5A4FB9EC647FB3CBC9EC07EB8712 DUP9 DUP8 DUP5 DUP9 DUP9 PUSH1 0x40 MLOAD PUSH2 0x278B SWAP6 SWAP5 SWAP4 SWAP3 SWAP2 SWAP1 PUSH2 0x60EF JUMP JUMPDEST PUSH1 0x40 MLOAD DUP1 SWAP2 SUB SWAP1 LOG2 JUMPDEST DUP1 SWAP2 POP POP SWAP6 SWAP5 POP POP POP POP POP JUMP JUMPDEST PUSH0 PUSH6 0xFFFFFFFFFFFF DUP1 AND DUP3 GT ISZERO PUSH2 0x27F2 JUMPI PUSH1 0x30 DUP3 PUSH1 0x40 MLOAD PUSH32 0x6DFCC65000000000000000000000000000000000000000000000000000000000 DUP2 MSTORE PUSH1 0x4 ADD PUSH2 0x27E9 SWAP3 SWAP2 SWAP1 PUSH2 0x6187 JUMP JUMPDEST PUSH1 0x40 MLOAD DUP1 SWAP2 SUB SWAP1 REVERT JUMPDEST DUP2 SWAP1 POP SWAP2 SWAP1 POP JUMP JUMPDEST PUSH0 DUP1 DUP4 PUSH0 ADD DUP1 SLOAD SWAP1 POP SWAP1 POP PUSH0 DUP1 DUP3 SWAP1 POP PUSH1 0x5 DUP4 GT ISZERO PUSH2 0x287B JUMPI PUSH0 PUSH2 0x281D DUP5 PUSH2 0x3A30 JUMP JUMPDEST DUP5 PUSH2 0x2828 SWAP2 SWAP1 PUSH2 0x5B33 JUMP JUMPDEST SWAP1 POP PUSH2 0x2836 DUP8 PUSH0 ADD DUP3 PUSH2 0x3B26 JUMP JUMPDEST PUSH0 ADD PUSH0 SWAP1 SLOAD SWAP1 PUSH2 0x100 EXP SWAP1 DIV PUSH6 0xFFFFFFFFFFFF AND PUSH6 0xFFFFFFFFFFFF AND DUP7 PUSH6 0xFFFFFFFFFFFF AND LT ISZERO PUSH2 0x2869 JUMPI DUP1 SWAP2 POP PUSH2 0x2879 JUMP JUMPDEST PUSH1 0x1 DUP2 PUSH2 0x2876 SWAP2 SWAP1 PUSH2 0x61AE JUMP JUMPDEST SWAP3 POP JUMPDEST POP JUMPDEST PUSH0 PUSH2 0x288A DUP8 PUSH0 ADD DUP8 DUP6 DUP6 PUSH2 0x3B38 JUMP JUMPDEST SWAP1 POP PUSH0 DUP2 EQ PUSH2 0x28D9 JUMPI PUSH2 0x28AB DUP8 PUSH0 ADD PUSH1 0x1 DUP4 PUSH2 0x28A6 SWAP2 SWAP1 PUSH2 0x5B33 JUMP JUMPDEST PUSH2 0x3B26 JUMP JUMPDEST PUSH0 ADD PUSH1 0x6 SWAP1 SLOAD SWAP1 PUSH2 0x100 EXP SWAP1 DIV PUSH26 0xFFFFFFFFFFFFFFFFFFFFFFFFFFFFFFFFFFFFFFFFFFFFFFFFFFFF AND PUSH2 0x28DB JUMP JUMPDEST PUSH0 JUMPDEST SWAP5 POP POP POP POP POP SWAP3 SWAP2 POP POP JUMP JUMPDEST PUSH0 DUP1 DUP3 MLOAD SWAP1 POP PUSH1 0x34 DUP2 LT ISZERO PUSH2 0x2900 JUMPI PUSH1 0x1 SWAP2 POP POP PUSH2 0x2A29 JUMP JUMPDEST PUSH0 PUSH1 0x14 DUP3 SUB DUP5 ADD MLOAD SWAP1 POP PUSH32 0x2370726F706F7365723D30780000000000000000000000000000000000000000 PUSH20 0xFFFFFFFFFFFFFFFFFFFFFFFFFFFFFFFFFFFFFFFF NOT AND DUP2 PUSH20 0xFFFFFFFFFFFFFFFFFFFFFFFFFFFFFFFFFFFFFFFF NOT AND EQ PUSH2 0x296A JUMPI PUSH1 0x1 SWAP3 POP POP POP PUSH2 0x2A29 JUMP JUMPDEST PUSH0 DUP1 PUSH1 0x28 DUP5 PUSH2 0x2979 SWAP2 SWAP1 PUSH2 0x5B33 JUMP JUMPDEST SWAP1 POP JUMPDEST DUP4 DUP2 LT ISZERO PUSH2 0x29F3 JUMPI PUSH0 DUP1 PUSH2 0x29AC DUP9 DUP5 DUP2 MLOAD DUP2 LT PUSH2 0x299C JUMPI PUSH2 0x299B PUSH2 0x5962 JUMP JUMPDEST JUMPDEST PUSH1 0x20 ADD ADD MLOAD PUSH1 0xF8 SHR PUSH1 0xF8 SHL PUSH2 0x3BAD JUMP JUMPDEST SWAP2 POP SWAP2 POP DUP2 PUSH2 0x29C4 JUMPI PUSH1 0x1 SWAP7 POP POP POP POP POP POP POP PUSH2 0x2A29 JUMP JUMPDEST DUP1 PUSH1 0xFF AND PUSH1 0x4 DUP6 PUSH20 0xFFFFFFFFFFFFFFFFFFFFFFFFFFFFFFFFFFFFFFFF AND SWAP1 SHL OR SWAP4 POP POP POP DUP1 PUSH1 0x1 ADD SWAP1 POP PUSH2 0x297C JUMP JUMPDEST POP DUP6 PUSH20 0xFFFFFFFFFFFFFFFFFFFFFFFFFFFFFFFFFFFFFFFF AND DUP2 PUSH20 0xFFFFFFFFFFFFFFFFFFFFFFFFFFFFFFFFFFFFFFFF AND EQ SWAP4 POP POP POP POP JUMPDEST SWAP3 SWAP2 POP POP JUMP JUMPDEST PUSH0 PUSH2 0x2A43 DUP7 DUP7 DUP7 DUP7 DUP1 MLOAD SWAP1 PUSH1 0x20 ADD KECCAK256 PUSH2 0x1C83 JUMP JUMPDEST SWAP1 POP DUP5 MLOAD DUP7 MLOAD EQ ISZERO DUP1 PUSH2 0x2A58 JUMPI POP DUP4 MLOAD DUP7 MLOAD EQ ISZERO JUMPDEST DUP1 PUSH2 0x2A63 JUMPI POP PUSH0 DUP7 MLOAD EQ JUMPDEST ISZERO PUSH2 0x2AAC JUMPI DUP6 MLOAD DUP5 MLOAD DUP7 MLOAD PUSH1 0x40 MLOAD PUSH32 0x447B05D000000000000000000000000000000000000000000000000000000000 DUP2 MSTORE PUSH1 0x4 ADD PUSH2 0x2AA3 SWAP4 SWAP3 SWAP2 SWAP1 PUSH2 0x4E37 JUMP JUMPDEST PUSH1 0x40 MLOAD DUP1 SWAP2 SUB SWAP1 REVERT JUMPDEST PUSH0 PUSH1 0x4 PUSH0 DUP4 DUP2 MSTORE PUSH1 0x20 ADD SWAP1 DUP2 MSTORE PUSH1 0x20 ADD PUSH0 KECCAK256 PUSH0 ADD PUSH1 0x14 SWAP1 SLOAD SWAP1 PUSH2 0x100 EXP SWAP1 DIV PUSH6 0xFFFFFFFFFFFF AND PUSH6 0xFFFFFFFFFFFF AND EQ PUSH2 0x2B2B JUMPI DUP1 PUSH2 0x2AEA DUP3 PUSH2 0x11A9 JUMP JUMPDEST PUSH0 DUP1 SHL PUSH1 0x40 MLOAD PUSH32 0x31B75E4D00000000000000000000000000000000000000000000000000000000 DUP2 MSTORE PUSH1 0x4 ADD PUSH2 0x2B22 SWAP4 SWAP3 SWAP2 SWAP1 PUSH2 0x5FD3 JUMP JUMPDEST PUSH1 0x40 MLOAD DUP1 SWAP2 SUB SWAP1 REVERT JUMPDEST PUSH0 PUSH2 0x2B34 PUSH2 0x119F JUMP JUMPDEST PUSH2 0x2B3C PUSH2 0x19DD JUMP JUMPDEST PUSH6 0xFFFFFFFFFFFF AND PUSH2 0x2B4E SWAP2 SWAP1 PUSH2 0x61AE JUMP JUMPDEST SWAP1 POP PUSH0 PUSH2 0x2B59 PUSH2 0xD0D JUMP JUMPDEST SWAP1 POP PUSH0 PUSH1 0x4 PUSH0 DUP6 DUP2 MSTORE PUSH1 0x20 ADD SWAP1 DUP2 MSTORE PUSH1 0x20 ADD PUSH0 KECCAK256 SWAP1 POP DUP5 DUP2 PUSH0 ADD PUSH0 PUSH2 0x100 EXP DUP2 SLOAD DUP2 PUSH20 0xFFFFFFFFFFFFFFFFFFFFFFFFFFFFFFFFFFFFFFFF MUL NOT AND SWAP1 DUP4 PUSH20 0xFFFFFFFFFFFFFFFFFFFFFFFFFFFFFFFFFFFFFFFF AND MUL OR SWAP1 SSTORE POP PUSH2 0x2BB9 DUP4 PUSH2 0x27A1 JUMP JUMPDEST DUP2 PUSH0 ADD PUSH1 0x14 PUSH2 0x100 EXP DUP2 SLOAD DUP2 PUSH6 0xFFFFFFFFFFFF MUL NOT AND SWAP1 DUP4 PUSH6 0xFFFFFFFFFFFF AND MUL OR SWAP1 SSTORE POP PUSH2 0x2BE7 DUP3 PUSH2 0x3C44 JUMP JUMPDEST DUP2 PUSH0 ADD PUSH1 0x1A PUSH2 0x100 EXP DUP2 SLOAD DUP2 PUSH4 0xFFFFFFFF MUL NOT AND SWAP1 DUP4 PUSH4 0xFFFFFFFF AND MUL OR SWAP1 SSTORE POP PUSH32 0x7D84A6263AE0D98D3329BD7B46BB4E8D6F98CD35A7ADB45C274C8B7FD5EBD5E0 DUP5 DUP7 DUP12 DUP12 DUP14 MLOAD PUSH8 0xFFFFFFFFFFFFFFFF DUP2 GT ISZERO PUSH2 0x2C48 JUMPI PUSH2 0x2C47 PUSH2 0x482C JUMP JUMPDEST JUMPDEST PUSH1 0x40 MLOAD SWAP1 DUP1 DUP3 MSTORE DUP1 PUSH1 0x20 MUL PUSH1 0x20 ADD DUP3 ADD PUSH1 0x40 MSTORE DUP1 ISZERO PUSH2 0x2C7B JUMPI DUP2 PUSH1 0x20 ADD JUMPDEST PUSH1 0x60 DUP2 MSTORE PUSH1 0x20 ADD SWAP1 PUSH1 0x1 SWAP1 SUB SWAP1 DUP2 PUSH2 0x2C66 JUMPI SWAP1 POP JUMPDEST POP DUP13 DUP10 DUP10 DUP12 PUSH2 0x2C8A SWAP2 SWAP1 PUSH2 0x61AE JUMP JUMPDEST DUP15 PUSH1 0x40 MLOAD PUSH2 0x2CA0 SWAP10 SWAP9 SWAP8 SWAP7 SWAP6 SWAP5 SWAP4 SWAP3 SWAP2 SWAP1 PUSH2 0x62E4 JUMP JUMPDEST PUSH1 0x40 MLOAD DUP1 SWAP2 SUB SWAP1 LOG1 POP POP POP SWAP6 SWAP5 POP POP POP POP POP JUMP JUMPDEST PUSH1 0x60 PUSH2 0x2CE9 PUSH0 PUSH32 0x0 PUSH2 0x3C9B SWAP1 SWAP2 SWAP1 PUSH4 0xFFFFFFFF AND JUMP JUMPDEST SWAP1 POP SWAP1 JUMP JUMPDEST PUSH1 0x60 PUSH2 0x2D24 PUSH1 0x1 PUSH32 0x0 PUSH2 0x3C9B SWAP1 SWAP2 SWAP1 PUSH4 0xFFFFFFFF AND JUMP JUMPDEST SWAP1 POP SWAP1 JUMP JUMPDEST PUSH0 PUSH2 0x2D33 NUMBER PUSH2 0x27A1 JUMP JUMPDEST SWAP1 POP SWAP1 JUMP JUMPDEST PUSH0 PUSH2 0x2D41 PUSH2 0x1E8D JUMP JUMPDEST PUSH20 0xFFFFFFFFFFFFFFFFFFFFFFFFFFFFFFFFFFFFFFFF AND PUSH4 0x3A46B1A8 DUP6 DUP6 PUSH1 0x40 MLOAD DUP4 PUSH4 0xFFFFFFFF AND PUSH1 0xE0 SHL DUP2 MSTORE PUSH1 0x4 ADD PUSH2 0x2D7B SWAP3 SWAP2 SWAP1 PUSH2 0x6392 JUMP JUMPDEST PUSH1 0x20 PUSH1 0x40 MLOAD DUP1 DUP4 SUB DUP2 DUP7 GAS STATICCALL ISZERO DUP1 ISZERO PUSH2 0x2D96 JUMPI RETURNDATASIZE PUSH0 DUP1 RETURNDATACOPY RETURNDATASIZE PUSH0 REVERT JUMPDEST POP POP POP POP PUSH1 0x40 MLOAD RETURNDATASIZE PUSH1 0x1F NOT PUSH1 0x1F DUP3 ADD AND DUP3 ADD DUP1 PUSH1 0x40 MSTORE POP DUP2 ADD SWAP1 PUSH2 0x2DBA SWAP2 SWAP1 PUSH2 0x5EE3 JUMP JUMPDEST SWAP1 POP SWAP4 SWAP3 POP POP POP JUMP JUMPDEST PUSH0 DUP1 DUP3 PUSH0 ADD DUP1 SLOAD SWAP1 POP SWAP1 POP PUSH0 DUP2 EQ PUSH2 0x2E1B JUMPI PUSH2 0x2DED DUP4 PUSH0 ADD PUSH1 0x1 DUP4 PUSH2 0x2DE8 SWAP2 SWAP1 PUSH2 0x5B33 JUMP JUMPDEST PUSH2 0x3B26 JUMP JUMPDEST PUSH0 ADD PUSH1 0x6 SWAP1 SLOAD SWAP1 PUSH2 0x100 EXP SWAP1 DIV PUSH26 0xFFFFFFFFFFFFFFFFFFFFFFFFFFFFFFFFFFFFFFFFFFFFFFFFFFFF AND PUSH2 0x2E1D JUMP JUMPDEST PUSH0 JUMPDEST SWAP2 POP POP SWAP2 SWAP1 POP JUMP JUMPDEST PUSH32 0x8F74EA46EF7894F65EABFB5E6E695DE773A000B47C529AB559178069B226401 PUSH1 0x9 PUSH0 SWAP1 SLOAD SWAP1 PUSH2 0x100 EXP SWAP1 DIV PUSH20 0xFFFFFFFFFFFFFFFFFFFFFFFFFFFFFFFFFFFFFFFF AND DUP3 PUSH1 0x40 MLOAD PUSH2 0x2E77 SWAP3 SWAP2 SWAP1 PUSH2 0x63B9 JUMP JUMPDEST PUSH1 0x40 MLOAD DUP1 SWAP2 SUB SWAP1 LOG1 DUP1 PUSH1 0x9 PUSH0 PUSH2 0x100 EXP DUP2 SLOAD DUP2 PUSH20 0xFFFFFFFFFFFFFFFFFFFFFFFFFFFFFFFFFFFFFFFF MUL NOT AND SWAP1 DUP4 PUSH20 0xFFFFFFFFFFFFFFFFFFFFFFFFFFFFFFFFFFFFFFFF AND MUL OR SWAP1 SSTORE POP POP JUMP JUMPDEST PUSH0 PUSH1 0x1 SWAP1 POP SWAP2 SWAP1 POP JUMP JUMPDEST PUSH1 0x60 DUP3 PUSH2 0x2EE1 JUMPI PUSH2 0x2EDC DUP3 PUSH2 0x3D48 JUMP JUMPDEST PUSH2 0x2EE9 JUMP JUMPDEST DUP2 SWAP1 POP PUSH2 0x2EEA JUMP JUMPDEST JUMPDEST SWAP3 SWAP2 POP POP JUMP JUMPDEST PUSH1 0x60 PUSH1 0x40 MLOAD DUP1 PUSH1 0x20 ADD PUSH1 0x40 MSTORE DUP1 PUSH0 DUP2 MSTORE POP SWAP1 POP SWAP1 JUMP JUMPDEST CALLDATASIZE PUSH0 DUP1 CALLDATASIZE SWAP2 POP SWAP2 POP SWAP1 SWAP2 JUMP JUMPDEST PUSH0 DUP1 DUP3 PUSH0 ADD PUSH0 SWAP1 SLOAD SWAP1 PUSH2 0x100 EXP SWAP1 DIV PUSH16 0xFFFFFFFFFFFFFFFFFFFFFFFFFFFFFFFF AND SWAP1 POP DUP3 PUSH0 ADD PUSH1 0x10 SWAP1 SLOAD SWAP1 PUSH2 0x100 EXP SWAP1 DIV PUSH16 0xFFFFFFFFFFFFFFFFFFFFFFFFFFFFFFFF AND PUSH16 0xFFFFFFFFFFFFFFFFFFFFFFFFFFFFFFFF AND DUP2 PUSH16 0xFFFFFFFFFFFFFFFFFFFFFFFFFFFFFFFF AND SUB PUSH2 0x2FB1 JUMPI PUSH1 0x40 MLOAD PUSH32 0x75E52F4F00000000000000000000000000000000000000000000000000000000 DUP2 MSTORE PUSH1 0x4 ADD PUSH1 0x40 MLOAD DUP1 SWAP2 SUB SWAP1 REVERT JUMPDEST DUP3 PUSH1 0x1 ADD PUSH0 DUP3 PUSH16 0xFFFFFFFFFFFFFFFFFFFFFFFFFFFFFFFF AND PUSH16 0xFFFFFFFFFFFFFFFFFFFFFFFFFFFFFFFF AND DUP2 MSTORE PUSH1 0x20 ADD SWAP1 DUP2 MSTORE PUSH1 0x20 ADD PUSH0 KECCAK256 SLOAD SWAP2 POP DUP3 PUSH1 0x1 ADD PUSH0 DUP3 PUSH16 0xFFFFFFFFFFFFFFFFFFFFFFFFFFFFFFFF AND PUSH16 0xFFFFFFFFFFFFFFFFFFFFFFFFFFFFFFFF AND DUP2 MSTORE PUSH1 0x20 ADD SWAP1 DUP2 MSTORE PUSH1 0x20 ADD PUSH0 KECCAK256 PUSH0 SWAP1 SSTORE PUSH1 0x1 DUP2 ADD DUP4 PUSH0 ADD PUSH0 PUSH2 0x100 EXP DUP2 SLOAD DUP2 PUSH16 0xFFFFFFFFFFFFFFFFFFFFFFFFFFFFFFFF MUL NOT AND SWAP1 DUP4 PUSH16 0xFFFFFFFFFFFFFFFFFFFFFFFFFFFFFFFF AND MUL OR SWAP1 SSTORE POP POP SWAP2 SWAP1 POP JUMP JUMPDEST PUSH0 PUSH26 0xFFFFFFFFFFFFFFFFFFFFFFFFFFFFFFFFFFFFFFFFFFFFFFFFFFFF DUP1 AND DUP3 GT ISZERO PUSH2 0x30CC JUMPI PUSH1 0xD0 DUP3 PUSH1 0x40 MLOAD PUSH32 0x6DFCC65000000000000000000000000000000000000000000000000000000000 DUP2 MSTORE PUSH1 0x4 ADD PUSH2 0x30C3 SWAP3 SWAP2 SWAP1 PUSH2 0x6419 JUMP JUMPDEST PUSH1 0x40 MLOAD DUP1 SWAP2 SUB SWAP1 REVERT JUMPDEST DUP2 SWAP1 POP SWAP2 SWAP1 POP JUMP JUMPDEST PUSH0 DUP1 PUSH2 0x30E3 DUP6 PUSH0 ADD DUP6 DUP6 PUSH2 0x3D8C JUMP JUMPDEST SWAP2 POP SWAP2 POP SWAP4 POP SWAP4 SWAP2 POP POP JUMP JUMPDEST PUSH0 DUP1 PUSH1 0x9 PUSH0 SWAP1 SLOAD SWAP1 PUSH2 0x100 EXP SWAP1 DIV PUSH20 0xFFFFFFFFFFFFFFFFFFFFFFFFFFFFFFFFFFFFFFFF AND PUSH20 0xFFFFFFFFFFFFFFFFFFFFFFFFFFFFFFFFFFFFFFFF AND PUSH4 0xF27A0C92 PUSH1 0x40 MLOAD DUP2 PUSH4 0xFFFFFFFF AND PUSH1 0xE0 SHL DUP2 MSTORE PUSH1 0x4 ADD PUSH1 0x20 PUSH1 0x40 MLOAD DUP1 DUP4 SUB DUP2 DUP7 GAS STATICCALL ISZERO DUP1 ISZERO PUSH2 0x315B JUMPI RETURNDATASIZE PUSH0 DUP1 RETURNDATACOPY RETURNDATASIZE PUSH0 REVERT JUMPDEST POP POP POP POP PUSH1 0x40 MLOAD RETURNDATASIZE PUSH1 0x1F NOT PUSH1 0x1F DUP3 ADD AND DUP3 ADD DUP1 PUSH1 0x40 MSTORE POP DUP2 ADD SWAP1 PUSH2 0x317F SWAP2 SWAP1 PUSH2 0x5EE3 JUMP JUMPDEST SWAP1 POP PUSH0 PUSH2 0x318B DUP5 PUSH2 0x40F4 JUMP JUMPDEST SWAP1 POP PUSH1 0x9 PUSH0 SWAP1 SLOAD SWAP1 PUSH2 0x100 EXP SWAP1 DIV PUSH20 0xFFFFFFFFFFFFFFFFFFFFFFFFFFFFFFFFFFFFFFFF AND PUSH20 0xFFFFFFFFFFFFFFFFFFFFFFFFFFFFFFFFFFFFFFFF AND PUSH4 0xB1C5F427 DUP9 DUP9 DUP9 PUSH0 DUP7 PUSH1 0x40 MLOAD DUP7 PUSH4 0xFFFFFFFF AND PUSH1 0xE0 SHL DUP2 MSTORE PUSH1 0x4 ADD PUSH2 0x31EF SWAP6 SWAP5 SWAP4 SWAP3 SWAP2 SWAP1 PUSH2 0x6484 JUMP JUMPDEST PUSH1 0x20 PUSH1 0x40 MLOAD DUP1 DUP4 SUB DUP2 DUP7 GAS STATICCALL ISZERO DUP1 ISZERO PUSH2 0x320A JUMPI RETURNDATASIZE PUSH0 DUP1 RETURNDATACOPY RETURNDATASIZE PUSH0 REVERT JUMPDEST POP POP POP POP PUSH1 0x40 MLOAD RETURNDATASIZE PUSH1 0x1F NOT PUSH1 0x1F DUP3 ADD AND DUP3 ADD DUP1 PUSH1 0x40 MSTORE POP DUP2 ADD SWAP1 PUSH2 0x322E SWAP2 SWAP1 PUSH2 0x64FE JUMP JUMPDEST PUSH1 0xA PUSH0 DUP11 DUP2 MSTORE PUSH1 0x20 ADD SWAP1 DUP2 MSTORE PUSH1 0x20 ADD PUSH0 KECCAK256 DUP2 SWAP1 SSTORE POP PUSH1 0x9 PUSH0 SWAP1 SLOAD SWAP1 PUSH2 0x100 EXP SWAP1 DIV PUSH20 0xFFFFFFFFFFFFFFFFFFFFFFFFFFFFFFFFFFFFFFFF AND PUSH20 0xFFFFFFFFFFFFFFFFFFFFFFFFFFFFFFFFFFFFFFFF AND PUSH4 0x8F2A0BB0 DUP9 DUP9 DUP9 PUSH0 DUP7 DUP9 PUSH1 0x40 MLOAD DUP8 PUSH4 0xFFFFFFFF AND PUSH1 0xE0 SHL DUP2 MSTORE PUSH1 0x4 ADD PUSH2 0x32A7 SWAP7 SWAP6 SWAP5 SWAP4 SWAP3 SWAP2 SWAP1 PUSH2 0x6529 JUMP JUMPDEST PUSH0 PUSH1 0x40 MLOAD DUP1 DUP4 SUB DUP2 PUSH0 DUP8 DUP1 EXTCODESIZE ISZERO DUP1 ISZERO PUSH2 0x32BE JUMPI PUSH0 DUP1 REVERT JUMPDEST POP GAS CALL ISZERO DUP1 ISZERO PUSH2 0x32D0 JUMPI RETURNDATASIZE PUSH0 DUP1 RETURNDATACOPY RETURNDATASIZE PUSH0 REVERT JUMPDEST POP POP POP POP PUSH2 0x32E8 DUP3 TIMESTAMP PUSH2 0x32E3 SWAP2 SWAP1 PUSH2 0x61AE JUMP JUMPDEST PUSH2 0x27A1 JUMP JUMPDEST SWAP3 POP POP POP SWAP6 SWAP5 POP POP POP POP POP JUMP JUMPDEST PUSH1 0x9 PUSH0 SWAP1 SLOAD SWAP1 PUSH2 0x100 EXP SWAP1 DIV PUSH20 0xFFFFFFFFFFFFFFFFFFFFFFFFFFFFFFFFFFFFFFFF AND PUSH20 0xFFFFFFFFFFFFFFFFFFFFFFFFFFFFFFFFFFFFFFFF AND PUSH4 0xE38335E5 CALLVALUE DUP7 DUP7 DUP7 PUSH0 PUSH2 0x3340 DUP9 PUSH2 0x40F4 JUMP JUMPDEST PUSH1 0x40 MLOAD DUP8 PUSH4 0xFFFFFFFF AND PUSH1 0xE0 SHL DUP2 MSTORE PUSH1 0x4 ADD PUSH2 0x3360 SWAP6 SWAP5 SWAP4 SWAP3 SWAP2 SWAP1 PUSH2 0x6484 JUMP JUMPDEST PUSH0 PUSH1 0x40 MLOAD DUP1 DUP4 SUB DUP2 DUP6 DUP9 DUP1 EXTCODESIZE ISZERO DUP1 ISZERO PUSH2 0x3377 JUMPI PUSH0 DUP1 REVERT JUMPDEST POP GAS CALL ISZERO DUP1 ISZERO PUSH2 0x3389 JUMPI RETURNDATASIZE PUSH0 DUP1 RETURNDATACOPY RETURNDATASIZE PUSH0 REVERT JUMPDEST POP POP POP POP POP PUSH1 0xA PUSH0 DUP7 DUP2 MSTORE PUSH1 0x20 ADD SWAP1 DUP2 MSTORE PUSH1 0x20 ADD PUSH0 KECCAK256 PUSH0 SWAP1 SSTORE POP POP POP POP POP JUMP JUMPDEST PUSH0 DUP1 PUSH1 0x4 PUSH0 DUP5 DUP2 MSTORE PUSH1 0x20 ADD SWAP1 DUP2 MSTORE PUSH1 0x20 ADD PUSH0 KECCAK256 SWAP1 POP PUSH0 DUP2 PUSH0 ADD PUSH1 0x1E SWAP1 SLOAD SWAP1 PUSH2 0x100 EXP SWAP1 DIV PUSH1 0xFF AND SWAP1 POP PUSH0 DUP3 PUSH0 ADD PUSH1 0x1F SWAP1 SLOAD SWAP1 PUSH2 0x100 EXP SWAP1 DIV PUSH1 0xFF AND SWAP1 POP DUP2 ISZERO PUSH2 0x33F8 JUMPI PUSH1 0x7 SWAP4 POP POP POP POP PUSH2 0x34FB JUMP JUMPDEST DUP1 ISZERO PUSH2 0x340A JUMPI PUSH1 0x2 SWAP4 POP POP POP POP PUSH2 0x34FB JUMP JUMPDEST PUSH0 PUSH2 0x3414 DUP7 PUSH2 0x1145 JUMP JUMPDEST SWAP1 POP PUSH0 DUP2 SUB PUSH2 0x345A JUMPI DUP6 PUSH1 0x40 MLOAD PUSH32 0x6AD0607500000000000000000000000000000000000000000000000000000000 DUP2 MSTORE PUSH1 0x4 ADD PUSH2 0x3451 SWAP2 SWAP1 PUSH2 0x468A JUMP JUMPDEST PUSH1 0x40 MLOAD DUP1 SWAP2 SUB SWAP1 REVERT JUMPDEST PUSH0 PUSH2 0x3463 PUSH2 0x19DD JUMP JUMPDEST PUSH6 0xFFFFFFFFFFFF AND SWAP1 POP DUP1 DUP3 LT PUSH2 0x3481 JUMPI PUSH0 SWAP6 POP POP POP POP POP POP PUSH2 0x34FB JUMP JUMPDEST PUSH0 PUSH2 0x348B DUP9 PUSH2 0x1B90 JUMP JUMPDEST SWAP1 POP DUP2 DUP2 LT PUSH2 0x34A3 JUMPI PUSH1 0x1 SWAP7 POP POP POP POP POP POP POP PUSH2 0x34FB JUMP JUMPDEST PUSH2 0x34AC DUP9 PUSH2 0x4111 JUMP JUMPDEST ISZERO DUP1 PUSH2 0x34BE JUMPI POP PUSH2 0x34BC DUP9 PUSH2 0x4155 JUMP JUMPDEST ISZERO JUMPDEST ISZERO PUSH2 0x34D2 JUMPI PUSH1 0x3 SWAP7 POP POP POP POP POP POP POP PUSH2 0x34FB JUMP JUMPDEST PUSH0 PUSH2 0x34DC DUP10 PUSH2 0x1AD6 JUMP JUMPDEST SUB PUSH2 0x34F0 JUMPI PUSH1 0x4 SWAP7 POP POP POP POP POP POP POP PUSH2 0x34FB JUMP JUMPDEST PUSH1 0x5 SWAP7 POP POP POP POP POP POP POP JUMPDEST SWAP2 SWAP1 POP JUMP JUMPDEST PUSH0 DUP1 PUSH2 0x350E DUP7 DUP7 DUP7 DUP7 PUSH2 0x417C JUMP JUMPDEST SWAP1 POP PUSH0 PUSH1 0xA PUSH0 DUP4 DUP2 MSTORE PUSH1 0x20 ADD SWAP1 DUP2 MSTORE PUSH1 0x20 ADD PUSH0 KECCAK256 SLOAD SWAP1 POP PUSH0 DUP1 SHL DUP2 EQ PUSH2 0x35CA JUMPI PUSH1 0x9 PUSH0 SWAP1 SLOAD SWAP1 PUSH2 0x100 EXP SWAP1 DIV PUSH20 0xFFFFFFFFFFFFFFFFFFFFFFFFFFFFFFFFFFFFFFFF AND PUSH20 0xFFFFFFFFFFFFFFFFFFFFFFFFFFFFFFFFFFFFFFFF AND PUSH4 0xC4D252F5 DUP3 PUSH1 0x40 MLOAD DUP3 PUSH4 0xFFFFFFFF AND PUSH1 0xE0 SHL DUP2 MSTORE PUSH1 0x4 ADD PUSH2 0x3588 SWAP2 SWAP1 PUSH2 0x4D54 JUMP JUMPDEST PUSH0 PUSH1 0x40 MLOAD DUP1 DUP4 SUB DUP2 PUSH0 DUP8 DUP1 EXTCODESIZE ISZERO DUP1 ISZERO PUSH2 0x359F JUMPI PUSH0 DUP1 REVERT JUMPDEST POP GAS CALL ISZERO DUP1 ISZERO PUSH2 0x35B1 JUMPI RETURNDATASIZE PUSH0 DUP1 RETURNDATACOPY RETURNDATASIZE PUSH0 REVERT JUMPDEST POP POP POP POP PUSH1 0xA PUSH0 DUP4 DUP2 MSTORE PUSH1 0x20 ADD SWAP1 DUP2 MSTORE PUSH1 0x20 ADD PUSH0 KECCAK256 PUSH0 SWAP1 SSTORE JUMPDEST DUP2 SWAP3 POP POP POP SWAP5 SWAP4 POP POP POP POP JUMP JUMPDEST PUSH0 PUSH32 0x0 PUSH20 0xFFFFFFFFFFFFFFFFFFFFFFFFFFFFFFFFFFFFFFFF AND ADDRESS PUSH20 0xFFFFFFFFFFFFFFFFFFFFFFFFFFFFFFFFFFFFFFFF AND EQ DUP1 ISZERO PUSH2 0x3652 JUMPI POP PUSH32 0x0 CHAINID EQ JUMPDEST ISZERO PUSH2 0x367F JUMPI PUSH32 0x0 SWAP1 POP PUSH2 0x368A JUMP JUMPDEST PUSH2 0x3687 PUSH2 0x425E JUMP JUMPDEST SWAP1 POP JUMPDEST SWAP1 JUMP JUMPDEST PUSH0 PUSH1 0x40 MLOAD PUSH32 0x1901000000000000000000000000000000000000000000000000000000000000 DUP2 MSTORE DUP4 PUSH1 0x2 DUP3 ADD MSTORE DUP3 PUSH1 0x22 DUP3 ADD MSTORE PUSH1 0x42 DUP2 KECCAK256 SWAP2 POP POP SWAP3 SWAP2 POP POP JUMP JUMPDEST PUSH0 DUP1 PUSH0 PUSH1 0x41 DUP5 MLOAD SUB PUSH2 0x370D JUMPI PUSH0 DUP1 PUSH0 PUSH1 0x20 DUP8 ADD MLOAD SWAP3 POP PUSH1 0x40 DUP8 ADD MLOAD SWAP2 POP PUSH1 0x60 DUP8 ADD MLOAD PUSH0 BYTE SWAP1 POP PUSH2 0x36FF DUP9 DUP3 DUP6 DUP6 PUSH2 0x42F3 JUMP JUMPDEST SWAP6 POP SWAP6 POP SWAP6 POP POP POP POP PUSH2 0x371B JUMP JUMPDEST PUSH0 PUSH1 0x2 DUP6 MLOAD PUSH0 SHL SWAP3 POP SWAP3 POP SWAP3 POP JUMPDEST SWAP3 POP SWAP3 POP SWAP3 JUMP JUMPDEST PUSH0 DUP1 PUSH0 DUP6 PUSH20 0xFFFFFFFFFFFFFFFFFFFFFFFFFFFFFFFFFFFFFFFF AND DUP6 DUP6 PUSH1 0x40 MLOAD PUSH1 0x24 ADD PUSH2 0x374F SWAP3 SWAP2 SWAP1 PUSH2 0x659D JUMP JUMPDEST PUSH1 0x40 MLOAD PUSH1 0x20 DUP2 DUP4 SUB SUB DUP2 MSTORE SWAP1 PUSH1 0x40 MSTORE PUSH4 0x1626BA7E PUSH1 0xE0 SHL PUSH1 0x20 DUP3 ADD DUP1 MLOAD PUSH28 0xFFFFFFFFFFFFFFFFFFFFFFFFFFFFFFFFFFFFFFFFFFFFFFFFFFFFFFFF DUP4 DUP2 DUP4 AND OR DUP4 MSTORE POP POP POP POP PUSH1 0x40 MLOAD PUSH2 0x37A1 SWAP2 SWAP1 PUSH2 0x65FB JUMP JUMPDEST PUSH0 PUSH1 0x40 MLOAD DUP1 DUP4 SUB DUP2 DUP6 GAS STATICCALL SWAP2 POP POP RETURNDATASIZE DUP1 PUSH0 DUP2 EQ PUSH2 0x37D9 JUMPI PUSH1 0x40 MLOAD SWAP2 POP PUSH1 0x1F NOT PUSH1 0x3F RETURNDATASIZE ADD AND DUP3 ADD PUSH1 0x40 MSTORE RETURNDATASIZE DUP3 MSTORE RETURNDATASIZE PUSH0 PUSH1 0x20 DUP5 ADD RETURNDATACOPY PUSH2 0x37DE JUMP JUMPDEST PUSH1 0x60 SWAP2 POP JUMPDEST POP SWAP2 POP SWAP2 POP DUP2 DUP1 ISZERO PUSH2 0x37F2 JUMPI POP PUSH1 0x20 DUP2 MLOAD LT ISZERO JUMPDEST DUP1 ISZERO PUSH2 0x3836 JUMPI POP PUSH4 0x1626BA7E PUSH1 0xE0 SHL PUSH28 0xFFFFFFFFFFFFFFFFFFFFFFFFFFFFFFFFFFFFFFFFFFFFFFFFFFFFFFFF NOT AND DUP2 DUP1 PUSH1 0x20 ADD SWAP1 MLOAD DUP2 ADD SWAP1 PUSH2 0x3834 SWAP2 SWAP1 PUSH2 0x64FE JUMP JUMPDEST EQ JUMPDEST SWAP3 POP POP POP SWAP4 SWAP3 POP POP POP JUMP JUMPDEST PUSH0 PUSH1 0x7 PUSH0 DUP8 DUP2 MSTORE PUSH1 0x20 ADD SWAP1 DUP2 MSTORE PUSH1 0x20 ADD PUSH0 KECCAK256 SWAP1 POP DUP1 PUSH1 0x3 ADD PUSH0 DUP7 PUSH20 0xFFFFFFFFFFFFFFFFFFFFFFFFFFFFFFFFFFFFFFFF AND PUSH20 0xFFFFFFFFFFFFFFFFFFFFFFFFFFFFFFFFFFFFFFFF AND DUP2 MSTORE PUSH1 0x20 ADD SWAP1 DUP2 MSTORE PUSH1 0x20 ADD PUSH0 KECCAK256 PUSH0 SWAP1 SLOAD SWAP1 PUSH2 0x100 EXP SWAP1 DIV PUSH1 0xFF AND ISZERO PUSH2 0x38E3 JUMPI DUP5 PUSH1 0x40 MLOAD PUSH32 0x71C6AF4900000000000000000000000000000000000000000000000000000000 DUP2 MSTORE PUSH1 0x4 ADD PUSH2 0x38DA SWAP2 SWAP1 PUSH2 0x47E1 JUMP JUMPDEST PUSH1 0x40 MLOAD DUP1 SWAP2 SUB SWAP1 REVERT JUMPDEST PUSH1 0x1 DUP2 PUSH1 0x3 ADD PUSH0 DUP8 PUSH20 0xFFFFFFFFFFFFFFFFFFFFFFFFFFFFFFFFFFFFFFFF AND PUSH20 0xFFFFFFFFFFFFFFFFFFFFFFFFFFFFFFFFFFFFFFFF AND DUP2 MSTORE PUSH1 0x20 ADD SWAP1 DUP2 MSTORE PUSH1 0x20 ADD PUSH0 KECCAK256 PUSH0 PUSH2 0x100 EXP DUP2 SLOAD DUP2 PUSH1 0xFF MUL NOT AND SWAP1 DUP4 ISZERO ISZERO MUL OR SWAP1 SSTORE POP PUSH0 PUSH1 0x2 DUP2 GT ISZERO PUSH2 0x394D JUMPI PUSH2 0x394C PUSH2 0x4D6D JUMP JUMPDEST JUMPDEST PUSH1 0xFF AND DUP5 PUSH1 0xFF AND SUB PUSH2 0x3977 JUMPI DUP3 DUP2 PUSH0 ADD PUSH0 DUP3 DUP3 SLOAD PUSH2 0x396B SWAP2 SWAP1 PUSH2 0x61AE JUMP JUMPDEST SWAP3 POP POP DUP2 SWAP1 SSTORE POP PUSH2 0x3A28 JUMP JUMPDEST PUSH1 0x1 PUSH1 0x2 DUP2 GT ISZERO PUSH2 0x398B JUMPI PUSH2 0x398A PUSH2 0x4D6D JUMP JUMPDEST JUMPDEST PUSH1 0xFF AND DUP5 PUSH1 0xFF AND SUB PUSH2 0x39B6 JUMPI DUP3 DUP2 PUSH1 0x1 ADD PUSH0 DUP3 DUP3 SLOAD PUSH2 0x39AA SWAP2 SWAP1 PUSH2 0x61AE JUMP JUMPDEST SWAP3 POP POP DUP2 SWAP1 SSTORE POP PUSH2 0x3A27 JUMP JUMPDEST PUSH1 0x2 DUP1 DUP2 GT ISZERO PUSH2 0x39C9 JUMPI PUSH2 0x39C8 PUSH2 0x4D6D JUMP JUMPDEST JUMPDEST PUSH1 0xFF AND DUP5 PUSH1 0xFF AND SUB PUSH2 0x39F4 JUMPI DUP3 DUP2 PUSH1 0x2 ADD PUSH0 DUP3 DUP3 SLOAD PUSH2 0x39E8 SWAP2 SWAP1 PUSH2 0x61AE JUMP JUMPDEST SWAP3 POP POP DUP2 SWAP1 SSTORE POP PUSH2 0x3A26 JUMP JUMPDEST PUSH1 0x40 MLOAD PUSH32 0x6B337C200000000000000000000000000000000000000000000000000000000 DUP2 MSTORE PUSH1 0x4 ADD PUSH1 0x40 MLOAD DUP1 SWAP2 SUB SWAP1 REVERT JUMPDEST JUMPDEST JUMPDEST POP POP POP POP POP POP JUMP JUMPDEST PUSH0 DUP1 DUP3 SUB PUSH2 0x3A40 JUMPI PUSH0 SWAP1 POP PUSH2 0x3B21 JUMP JUMPDEST PUSH0 PUSH1 0x1 PUSH2 0x3A4C DUP5 PUSH2 0x43DA JUMP JUMPDEST SWAP1 SHR PUSH1 0x1 SWAP1 SHL SWAP1 POP PUSH1 0x1 DUP2 DUP5 DUP2 PUSH2 0x3A66 JUMPI PUSH2 0x3A65 PUSH2 0x5F4F JUMP JUMPDEST JUMPDEST DIV DUP3 ADD SWAP1 SHR SWAP1 POP PUSH1 0x1 DUP2 DUP5 DUP2 PUSH2 0x3A7F JUMPI PUSH2 0x3A7E PUSH2 0x5F4F JUMP JUMPDEST JUMPDEST DIV DUP3 ADD SWAP1 SHR SWAP1 POP PUSH1 0x1 DUP2 DUP5 DUP2 PUSH2 0x3A98 JUMPI PUSH2 0x3A97 PUSH2 0x5F4F JUMP JUMPDEST JUMPDEST DIV DUP3 ADD SWAP1 SHR SWAP1 POP PUSH1 0x1 DUP2 DUP5 DUP2 PUSH2 0x3AB1 JUMPI PUSH2 0x3AB0 PUSH2 0x5F4F JUMP JUMPDEST JUMPDEST DIV DUP3 ADD SWAP1 SHR SWAP1 POP PUSH1 0x1 DUP2 DUP5 DUP2 PUSH2 0x3ACA JUMPI PUSH2 0x3AC9 PUSH2 0x5F4F JUMP JUMPDEST JUMPDEST DIV DUP3 ADD SWAP1 SHR SWAP1 POP PUSH1 0x1 DUP2 DUP5 DUP2 PUSH2 0x3AE3 JUMPI PUSH2 0x3AE2 PUSH2 0x5F4F JUMP JUMPDEST JUMPDEST DIV DUP3 ADD SWAP1 SHR SWAP1 POP PUSH1 0x1 DUP2 DUP5 DUP2 PUSH2 0x3AFC JUMPI PUSH2 0x3AFB PUSH2 0x5F4F JUMP JUMPDEST JUMPDEST DIV DUP3 ADD SWAP1 SHR SWAP1 POP PUSH2 0x3B1D DUP2 DUP3 DUP6 DUP2 PUSH2 0x3B17 JUMPI PUSH2 0x3B16 PUSH2 0x5F4F JUMP JUMPDEST JUMPDEST DIV PUSH2 0x44B1 JUMP JUMPDEST SWAP2 POP POP JUMPDEST SWAP2 SWAP1 POP JUMP JUMPDEST PUSH0 DUP3 PUSH0 MSTORE DUP2 PUSH1 0x20 PUSH0 KECCAK256 ADD SWAP1 POP SWAP3 SWAP2 POP POP JUMP JUMPDEST PUSH0 JUMPDEST DUP2 DUP4 LT ISZERO PUSH2 0x3BA2 JUMPI PUSH0 PUSH2 0x3B4D DUP5 DUP5 PUSH2 0x44C9 JUMP JUMPDEST SWAP1 POP DUP5 PUSH6 0xFFFFFFFFFFFF AND PUSH2 0x3B62 DUP8 DUP4 PUSH2 0x3B26 JUMP JUMPDEST PUSH0 ADD PUSH0 SWAP1 SLOAD SWAP1 PUSH2 0x100 EXP SWAP1 DIV PUSH6 0xFFFFFFFFFFFF AND PUSH6 0xFFFFFFFFFFFF AND GT ISZERO PUSH2 0x3B8C JUMPI DUP1 SWAP3 POP PUSH2 0x3B9C JUMP JUMPDEST PUSH1 0x1 DUP2 PUSH2 0x3B99 SWAP2 SWAP1 PUSH2 0x61AE JUMP JUMPDEST SWAP4 POP JUMPDEST POP PUSH2 0x3B3A JUMP JUMPDEST DUP2 SWAP1 POP SWAP5 SWAP4 POP POP POP POP JUMP JUMPDEST PUSH0 DUP1 PUSH0 DUP4 PUSH1 0xF8 SHR SWAP1 POP DUP1 PUSH1 0xFF AND PUSH1 0x2F LT DUP1 ISZERO PUSH2 0x3BCC JUMPI POP PUSH1 0x3A DUP2 PUSH1 0xFF AND LT JUMPDEST ISZERO PUSH2 0x3BE1 JUMPI PUSH1 0x1 PUSH1 0x30 DUP3 SUB SWAP3 POP SWAP3 POP POP PUSH2 0x3C3F JUMP JUMPDEST DUP1 PUSH1 0xFF AND PUSH1 0x40 LT DUP1 ISZERO PUSH2 0x3BF7 JUMPI POP PUSH1 0x47 DUP2 PUSH1 0xFF AND LT JUMPDEST ISZERO PUSH2 0x3C0C JUMPI PUSH1 0x1 PUSH1 0x37 DUP3 SUB SWAP3 POP SWAP3 POP POP PUSH2 0x3C3F JUMP JUMPDEST DUP1 PUSH1 0xFF AND PUSH1 0x60 LT DUP1 ISZERO PUSH2 0x3C22 JUMPI POP PUSH1 0x67 DUP2 PUSH1 0xFF AND LT JUMPDEST ISZERO PUSH2 0x3C37 JUMPI PUSH1 0x1 PUSH1 0x57 DUP3 SUB SWAP3 POP SWAP3 POP POP PUSH2 0x3C3F JUMP JUMPDEST PUSH0 DUP1 SWAP3 POP SWAP3 POP POP JUMPDEST SWAP2 POP SWAP2 JUMP JUMPDEST PUSH0 PUSH4 0xFFFFFFFF DUP1 AND DUP3 GT ISZERO PUSH2 0x3C93 JUMPI PUSH1 0x20 DUP3 PUSH1 0x40 MLOAD PUSH32 0x6DFCC65000000000000000000000000000000000000000000000000000000000 DUP2 MSTORE PUSH1 0x4 ADD PUSH2 0x3C8A SWAP3 SWAP2 SWAP1 PUSH2 0x664A JUMP JUMPDEST PUSH1 0x40 MLOAD DUP1 SWAP2 SUB SWAP1 REVERT JUMPDEST DUP2 SWAP1 POP SWAP2 SWAP1 POP JUMP JUMPDEST PUSH1 0x60 PUSH1 0xFF PUSH0 SHL DUP4 EQ PUSH2 0x3CB7 JUMPI PUSH2 0x3CB0 DUP4 PUSH2 0x44EE JUMP JUMPDEST SWAP1 POP PUSH2 0x3D42 JUMP JUMPDEST DUP2 DUP1 SLOAD PUSH2 0x3CC3 SWAP1 PUSH2 0x58DB JUMP JUMPDEST DUP1 PUSH1 0x1F ADD PUSH1 0x20 DUP1 SWAP2 DIV MUL PUSH1 0x20 ADD PUSH1 0x40 MLOAD SWAP1 DUP2 ADD PUSH1 0x40 MSTORE DUP1 SWAP3 SWAP2 SWAP1 DUP2 DUP2 MSTORE PUSH1 0x20 ADD DUP3 DUP1 SLOAD PUSH2 0x3CEF SWAP1 PUSH2 0x58DB JUMP JUMPDEST DUP1 ISZERO PUSH2 0x3D3A JUMPI DUP1 PUSH1 0x1F LT PUSH2 0x3D11 JUMPI PUSH2 0x100 DUP1 DUP4 SLOAD DIV MUL DUP4 MSTORE SWAP2 PUSH1 0x20 ADD SWAP2 PUSH2 0x3D3A JUMP JUMPDEST DUP3 ADD SWAP2 SWAP1 PUSH0 MSTORE PUSH1 0x20 PUSH0 KECCAK256 SWAP1 JUMPDEST DUP2 SLOAD DUP2 MSTORE SWAP1 PUSH1 0x1 ADD SWAP1 PUSH1 0x20 ADD DUP1 DUP4 GT PUSH2 0x3D1D JUMPI DUP3 SWAP1 SUB PUSH1 0x1F AND DUP3 ADD SWAP2 JUMPDEST POP POP POP POP POP SWAP1 POP JUMPDEST SWAP3 SWAP2 POP POP JUMP JUMPDEST PUSH0 DUP2 MLOAD GT ISZERO PUSH2 0x3D5A JUMPI DUP1 MLOAD DUP1 DUP3 PUSH1 0x20 ADD REVERT JUMPDEST PUSH1 0x40 MLOAD PUSH32 0x1425EA4200000000000000000000000000000000000000000000000000000000 DUP2 MSTORE PUSH1 0x4 ADD PUSH1 0x40 MLOAD DUP1 SWAP2 SUB SWAP1 REVERT JUMPDEST PUSH0 DUP1 PUSH0 DUP6 DUP1 SLOAD SWAP1 POP SWAP1 POP PUSH0 DUP2 GT ISZERO PUSH2 0x400C JUMPI PUSH0 PUSH2 0x3DB5 DUP8 PUSH1 0x1 DUP5 PUSH2 0x3DB0 SWAP2 SWAP1 PUSH2 0x5B33 JUMP JUMPDEST PUSH2 0x3B26 JUMP JUMPDEST PUSH1 0x40 MLOAD DUP1 PUSH1 0x40 ADD PUSH1 0x40 MSTORE SWAP1 DUP2 PUSH0 DUP3 ADD PUSH0 SWAP1 SLOAD SWAP1 PUSH2 0x100 EXP SWAP1 DIV PUSH6 0xFFFFFFFFFFFF AND PUSH6 0xFFFFFFFFFFFF AND PUSH6 0xFFFFFFFFFFFF AND DUP2 MSTORE PUSH1 0x20 ADD PUSH0 DUP3 ADD PUSH1 0x6 SWAP1 SLOAD SWAP1 PUSH2 0x100 EXP SWAP1 DIV PUSH26 0xFFFFFFFFFFFFFFFFFFFFFFFFFFFFFFFFFFFFFFFFFFFFFFFFFFFF AND PUSH26 0xFFFFFFFFFFFFFFFFFFFFFFFFFFFFFFFFFFFFFFFFFFFFFFFFFFFF AND PUSH26 0xFFFFFFFFFFFFFFFFFFFFFFFFFFFFFFFFFFFFFFFFFFFFFFFFFFFF AND DUP2 MSTORE POP POP SWAP1 POP DUP6 PUSH6 0xFFFFFFFFFFFF AND DUP2 PUSH0 ADD MLOAD PUSH6 0xFFFFFFFFFFFF AND GT ISZERO PUSH2 0x3EA0 JUMPI PUSH1 0x40 MLOAD PUSH32 0x2520601D00000000000000000000000000000000000000000000000000000000 DUP2 MSTORE PUSH1 0x4 ADD PUSH1 0x40 MLOAD DUP1 SWAP2 SUB SWAP1 REVERT JUMPDEST DUP6 PUSH6 0xFFFFFFFFFFFF AND DUP2 PUSH0 ADD MLOAD PUSH6 0xFFFFFFFFFFFF AND SUB PUSH2 0x3F22 JUMPI DUP5 PUSH2 0x3ED1 DUP9 PUSH1 0x1 DUP6 PUSH2 0x3ECC SWAP2 SWAP1 PUSH2 0x5B33 JUMP JUMPDEST PUSH2 0x3B26 JUMP JUMPDEST PUSH0 ADD PUSH1 0x6 PUSH2 0x100 EXP DUP2 SLOAD DUP2 PUSH26 0xFFFFFFFFFFFFFFFFFFFFFFFFFFFFFFFFFFFFFFFFFFFFFFFFFFFF MUL NOT AND SWAP1 DUP4 PUSH26 0xFFFFFFFFFFFFFFFFFFFFFFFFFFFFFFFFFFFFFFFFFFFFFFFFFFFF AND MUL OR SWAP1 SSTORE POP PUSH2 0x3FFB JUMP JUMPDEST DUP7 PUSH1 0x40 MLOAD DUP1 PUSH1 0x40 ADD PUSH1 0x40 MSTORE DUP1 DUP9 PUSH6 0xFFFFFFFFFFFF AND DUP2 MSTORE PUSH1 0x20 ADD DUP8 PUSH26 0xFFFFFFFFFFFFFFFFFFFFFFFFFFFFFFFFFFFFFFFFFFFFFFFFFFFF AND DUP2 MSTORE POP SWAP1 DUP1 PUSH1 0x1 DUP2 SLOAD ADD DUP1 DUP3 SSTORE DUP1 SWAP2 POP POP PUSH1 0x1 SWAP1 SUB SWAP1 PUSH0 MSTORE PUSH1 0x20 PUSH0 KECCAK256 ADD PUSH0 SWAP1 SWAP2 SWAP1 SWAP2 SWAP1 SWAP2 POP PUSH0 DUP3 ADD MLOAD DUP2 PUSH0 ADD PUSH0 PUSH2 0x100 EXP DUP2 SLOAD DUP2 PUSH6 0xFFFFFFFFFFFF MUL NOT AND SWAP1 DUP4 PUSH6 0xFFFFFFFFFFFF AND MUL OR SWAP1 SSTORE POP PUSH1 0x20 DUP3 ADD MLOAD DUP2 PUSH0 ADD PUSH1 0x6 PUSH2 0x100 EXP DUP2 SLOAD DUP2 PUSH26 0xFFFFFFFFFFFFFFFFFFFFFFFFFFFFFFFFFFFFFFFFFFFFFFFFFFFF MUL NOT AND SWAP1 DUP4 PUSH26 0xFFFFFFFFFFFFFFFFFFFFFFFFFFFFFFFFFFFFFFFFFFFFFFFFFFFF AND MUL OR SWAP1 SSTORE POP POP POP JUMPDEST DUP1 PUSH1 0x20 ADD MLOAD DUP6 SWAP4 POP SWAP4 POP POP POP PUSH2 0x40EC JUMP JUMPDEST DUP6 PUSH1 0x40 MLOAD DUP1 PUSH1 0x40 ADD PUSH1 0x40 MSTORE DUP1 DUP8 PUSH6 0xFFFFFFFFFFFF AND DUP2 MSTORE PUSH1 0x20 ADD DUP7 PUSH26 0xFFFFFFFFFFFFFFFFFFFFFFFFFFFFFFFFFFFFFFFFFFFFFFFFFFFF AND DUP2 MSTORE POP SWAP1 DUP1 PUSH1 0x1 DUP2 SLOAD ADD DUP1 DUP3 SSTORE DUP1 SWAP2 POP POP PUSH1 0x1 SWAP1 SUB SWAP1 PUSH0 MSTORE PUSH1 0x20 PUSH0 KECCAK256 ADD PUSH0 SWAP1 SWAP2 SWAP1 SWAP2 SWAP1 SWAP2 POP PUSH0 DUP3 ADD MLOAD DUP2 PUSH0 ADD PUSH0 PUSH2 0x100 EXP DUP2 SLOAD DUP2 PUSH6 0xFFFFFFFFFFFF MUL NOT AND SWAP1 DUP4 PUSH6 0xFFFFFFFFFFFF AND MUL OR SWAP1 SSTORE POP PUSH1 0x20 DUP3 ADD MLOAD DUP2 PUSH0 ADD PUSH1 0x6 PUSH2 0x100 EXP DUP2 SLOAD DUP2 PUSH26 0xFFFFFFFFFFFFFFFFFFFFFFFFFFFFFFFFFFFFFFFFFFFFFFFFFFFF MUL NOT AND SWAP1 DUP4 PUSH26 0xFFFFFFFFFFFFFFFFFFFFFFFFFFFFFFFFFFFFFFFFFFFFFFFFFFFF AND MUL OR SWAP1 SSTORE POP POP POP PUSH0 DUP5 SWAP3 POP SWAP3 POP POP JUMPDEST SWAP4 POP SWAP4 SWAP2 POP POP JUMP JUMPDEST PUSH0 DUP2 ADDRESS PUSH1 0x60 SHL PUSH12 0xFFFFFFFFFFFFFFFFFFFFFFFF NOT AND XOR SWAP1 POP SWAP2 SWAP1 POP JUMP JUMPDEST PUSH0 DUP1 PUSH1 0x7 PUSH0 DUP5 DUP2 MSTORE PUSH1 0x20 ADD SWAP1 DUP2 MSTORE PUSH1 0x20 ADD PUSH0 KECCAK256 SWAP1 POP DUP1 PUSH1 0x2 ADD SLOAD DUP2 PUSH1 0x1 ADD SLOAD PUSH2 0x413A SWAP2 SWAP1 PUSH2 0x61AE JUMP JUMPDEST PUSH2 0x414B PUSH2 0x4146 DUP6 PUSH2 0x1145 JUMP JUMPDEST PUSH2 0x1DE1 JUMP JUMPDEST GT ISZERO SWAP2 POP POP SWAP2 SWAP1 POP JUMP JUMPDEST PUSH0 DUP1 PUSH1 0x7 PUSH0 DUP5 DUP2 MSTORE PUSH1 0x20 ADD SWAP1 DUP2 MSTORE PUSH1 0x20 ADD PUSH0 KECCAK256 SWAP1 POP DUP1 PUSH0 ADD SLOAD DUP2 PUSH1 0x1 ADD SLOAD GT SWAP2 POP POP SWAP2 SWAP1 POP JUMP JUMPDEST PUSH0 DUP1 PUSH2 0x418A DUP7 DUP7 DUP7 DUP7 PUSH2 0x1C83 JUMP JUMPDEST SWAP1 POP PUSH2 0x41EE DUP2 PUSH2 0x419A PUSH1 0x7 PUSH2 0x20FC JUMP JUMPDEST PUSH2 0x41A4 PUSH1 0x6 PUSH2 0x20FC JUMP JUMPDEST PUSH2 0x41AE PUSH1 0x2 PUSH2 0x20FC JUMP JUMPDEST PUSH1 0x1 DUP1 PUSH1 0x7 DUP1 DUP2 GT ISZERO PUSH2 0x41C4 JUMPI PUSH2 0x41C3 PUSH2 0x4D6D JUMP JUMPDEST JUMPDEST PUSH2 0x41CE SWAP2 SWAP1 PUSH2 0x6671 JUMP JUMPDEST PUSH1 0x2 PUSH2 0x41DA SWAP2 SWAP1 PUSH2 0x67D4 JUMP JUMPDEST PUSH2 0x41E4 SWAP2 SWAP1 PUSH2 0x5B33 JUMP JUMPDEST PUSH0 SHL XOR XOR XOR PUSH2 0x2120 JUMP JUMPDEST POP PUSH1 0x1 PUSH1 0x4 PUSH0 DUP4 DUP2 MSTORE PUSH1 0x20 ADD SWAP1 DUP2 MSTORE PUSH1 0x20 ADD PUSH0 KECCAK256 PUSH0 ADD PUSH1 0x1F PUSH2 0x100 EXP DUP2 SLOAD DUP2 PUSH1 0xFF MUL NOT AND SWAP1 DUP4 ISZERO ISZERO MUL OR SWAP1 SSTORE POP PUSH32 0x789CF55BE980739DAD1D0699B93B58E806B51C9D96619BFA8FE0A28ABAA7B30C DUP2 PUSH1 0x40 MLOAD PUSH2 0x424A SWAP2 SWAP1 PUSH2 0x468A JUMP JUMPDEST PUSH1 0x40 MLOAD DUP1 SWAP2 SUB SWAP1 LOG1 DUP1 SWAP2 POP POP SWAP5 SWAP4 POP POP POP POP JUMP JUMPDEST PUSH0 PUSH32 0x8B73C3C69BB8FE3D512ECC4CF759CC79239F7B179B0FFACAA9A75D522B39400F PUSH32 0x0 PUSH32 0x0 CHAINID ADDRESS PUSH1 0x40 MLOAD PUSH1 0x20 ADD PUSH2 0x42D8 SWAP6 SWAP5 SWAP4 SWAP3 SWAP2 SWAP1 PUSH2 0x681E JUMP JUMPDEST PUSH1 0x40 MLOAD PUSH1 0x20 DUP2 DUP4 SUB SUB DUP2 MSTORE SWAP1 PUSH1 0x40 MSTORE DUP1 MLOAD SWAP1 PUSH1 0x20 ADD KECCAK256 SWAP1 POP SWAP1 JUMP JUMPDEST PUSH0 DUP1 PUSH0 PUSH32 0x7FFFFFFFFFFFFFFFFFFFFFFFFFFFFFFF5D576E7357A4501DDFE92F46681B20A0 DUP5 PUSH0 SHR GT ISZERO PUSH2 0x432F JUMPI PUSH0 PUSH1 0x3 DUP6 SWAP3 POP SWAP3 POP SWAP3 POP PUSH2 0x43D0 JUMP JUMPDEST PUSH0 PUSH1 0x1 DUP9 DUP9 DUP9 DUP9 PUSH1 0x40 MLOAD PUSH0 DUP2 MSTORE PUSH1 0x20 ADD PUSH1 0x40 MSTORE PUSH1 0x40 MLOAD PUSH2 0x4352 SWAP5 SWAP4 SWAP3 SWAP2 SWAP1 PUSH2 0x686F JUMP JUMPDEST PUSH1 0x20 PUSH1 0x40 MLOAD PUSH1 0x20 DUP2 SUB SWAP1 DUP1 DUP5 SUB SWAP1 DUP6 GAS STATICCALL ISZERO DUP1 ISZERO PUSH2 0x4372 JUMPI RETURNDATASIZE PUSH0 DUP1 RETURNDATACOPY RETURNDATASIZE PUSH0 REVERT JUMPDEST POP POP POP PUSH1 0x20 PUSH1 0x40 MLOAD SUB MLOAD SWAP1 POP PUSH0 PUSH20 0xFFFFFFFFFFFFFFFFFFFFFFFFFFFFFFFFFFFFFFFF AND DUP2 PUSH20 0xFFFFFFFFFFFFFFFFFFFFFFFFFFFFFFFFFFFFFFFF AND SUB PUSH2 0x43C3 JUMPI PUSH0 PUSH1 0x1 PUSH0 DUP1 SHL SWAP4 POP SWAP4 POP SWAP4 POP POP PUSH2 0x43D0 JUMP JUMPDEST DUP1 PUSH0 DUP1 PUSH0 SHL SWAP4 POP SWAP4 POP SWAP4 POP POP JUMPDEST SWAP5 POP SWAP5 POP SWAP5 SWAP2 POP POP JUMP JUMPDEST PUSH0 DUP1 PUSH0 SWAP1 POP PUSH0 PUSH1 0x80 DUP5 SWAP1 SHR GT ISZERO PUSH2 0x43F9 JUMPI PUSH1 0x80 DUP4 SWAP1 SHR SWAP3 POP PUSH1 0x80 DUP2 ADD SWAP1 POP JUMPDEST PUSH0 PUSH1 0x40 DUP5 SWAP1 SHR GT ISZERO PUSH2 0x4413 JUMPI PUSH1 0x40 DUP4 SWAP1 SHR SWAP3 POP PUSH1 0x40 DUP2 ADD SWAP1 POP JUMPDEST PUSH0 PUSH1 0x20 DUP5 SWAP1 SHR GT ISZERO PUSH2 0x442D JUMPI PUSH1 0x20 DUP4 SWAP1 SHR SWAP3 POP PUSH1 0x20 DUP2 ADD SWAP1 POP JUMPDEST PUSH0 PUSH1 0x10 DUP5 SWAP1 SHR GT ISZERO PUSH2 0x4447 JUMPI PUSH1 0x10 DUP4 SWAP1 SHR SWAP3 POP PUSH1 0x10 DUP2 ADD SWAP1 POP JUMPDEST PUSH0 PUSH1 0x8 DUP5 SWAP1 SHR GT ISZERO PUSH2 0x4461 JUMPI PUSH1 0x8 DUP4 SWAP1 SHR SWAP3 POP PUSH1 0x8 DUP2 ADD SWAP1 POP JUMPDEST PUSH0 PUSH1 0x4 DUP5 SWAP1 SHR GT ISZERO PUSH2 0x447B JUMPI PUSH1 0x4 DUP4 SWAP1 SHR SWAP3 POP PUSH1 0x4 DUP2 ADD SWAP1 POP JUMPDEST PUSH0 PUSH1 0x2 DUP5 SWAP1 SHR GT ISZERO PUSH2 0x4495 JUMPI PUSH1 0x2 DUP4 SWAP1 SHR SWAP3 POP PUSH1 0x2 DUP2 ADD SWAP1 POP JUMPDEST PUSH0 PUSH1 0x1 DUP5 SWAP1 SHR GT ISZERO PUSH2 0x44A8 JUMPI PUSH1 0x1 DUP2 ADD SWAP1 POP JUMPDEST DUP1 SWAP2 POP POP SWAP2 SWAP1 POP JUMP JUMPDEST PUSH0 DUP2 DUP4 LT PUSH2 0x44BF JUMPI DUP2 PUSH2 0x44C1 JUMP JUMPDEST DUP3 JUMPDEST SWAP1 POP SWAP3 SWAP2 POP POP JUMP JUMPDEST PUSH0 PUSH1 0x2 DUP3 DUP5 XOR PUSH2 0x44D9 SWAP2 SWAP1 PUSH2 0x5F7C JUMP JUMPDEST DUP3 DUP5 AND PUSH2 0x44E6 SWAP2 SWAP1 PUSH2 0x61AE JUMP JUMPDEST SWAP1 POP SWAP3 SWAP2 POP POP JUMP JUMPDEST PUSH1 0x60 PUSH0 PUSH2 0x44FA DUP4 PUSH2 0x4560 JUMP JUMPDEST SWAP1 POP PUSH0 PUSH1 0x20 PUSH8 0xFFFFFFFFFFFFFFFF DUP2 GT ISZERO PUSH2 0x4518 JUMPI PUSH2 0x4517 PUSH2 0x482C JUMP JUMPDEST JUMPDEST PUSH1 0x40 MLOAD SWAP1 DUP1 DUP3 MSTORE DUP1 PUSH1 0x1F ADD PUSH1 0x1F NOT AND PUSH1 0x20 ADD DUP3 ADD PUSH1 0x40 MSTORE DUP1 ISZERO PUSH2 0x454A JUMPI DUP2 PUSH1 0x20 ADD PUSH1 0x1 DUP3 MUL DUP1 CALLDATASIZE DUP4 CALLDATACOPY DUP1 DUP3 ADD SWAP2 POP POP SWAP1 POP JUMPDEST POP SWAP1 POP DUP2 DUP2 MSTORE DUP4 PUSH1 0x20 DUP3 ADD MSTORE DUP1 SWAP3 POP POP POP SWAP2 SWAP1 POP JUMP JUMPDEST PUSH0 DUP1 PUSH1 0xFF DUP4 PUSH0 SHR AND SWAP1 POP PUSH1 0x1F DUP2 GT ISZERO PUSH2 0x45A5 JUMPI PUSH1 0x40 MLOAD PUSH32 0xB3512B0C00000000000000000000000000000000000000000000000000000000 DUP2 MSTORE PUSH1 0x4 ADD PUSH1 0x40 MLOAD DUP1 SWAP2 SUB SWAP1 REVERT JUMPDEST DUP1 SWAP2 POP POP SWAP2 SWAP1 POP JUMP JUMPDEST PUSH0 PUSH1 0x40 MLOAD SWAP1 POP SWAP1 JUMP JUMPDEST PUSH0 DUP1 REVERT JUMPDEST PUSH0 DUP1 REVERT JUMPDEST PUSH0 PUSH32 0xFFFFFFFF00000000000000000000000000000000000000000000000000000000 DUP3 AND SWAP1 POP SWAP2 SWAP1 POP JUMP JUMPDEST PUSH2 0x45F3 DUP2 PUSH2 0x45BF JUMP JUMPDEST DUP2 EQ PUSH2 0x45FD JUMPI PUSH0 DUP1 REVERT JUMPDEST POP JUMP JUMPDEST PUSH0 DUP2 CALLDATALOAD SWAP1 POP PUSH2 0x460E DUP2 PUSH2 0x45EA JUMP JUMPDEST SWAP3 SWAP2 POP POP JUMP JUMPDEST PUSH0 PUSH1 0x20 DUP3 DUP5 SUB SLT ISZERO PUSH2 0x4629 JUMPI PUSH2 0x4628 PUSH2 0x45B7 JUMP JUMPDEST JUMPDEST PUSH0 PUSH2 0x4636 DUP5 DUP3 DUP6 ADD PUSH2 0x4600 JUMP JUMPDEST SWAP2 POP POP SWAP3 SWAP2 POP POP JUMP JUMPDEST PUSH0 DUP2 ISZERO ISZERO SWAP1 POP SWAP2 SWAP1 POP JUMP JUMPDEST PUSH2 0x4653 DUP2 PUSH2 0x463F JUMP JUMPDEST DUP3 MSTORE POP POP JUMP JUMPDEST PUSH0 PUSH1 0x20 DUP3 ADD SWAP1 POP PUSH2 0x466C PUSH0 DUP4 ADD DUP5 PUSH2 0x464A JUMP JUMPDEST SWAP3 SWAP2 POP POP JUMP JUMPDEST PUSH0 DUP2 SWAP1 POP SWAP2 SWAP1 POP JUMP JUMPDEST PUSH2 0x4684 DUP2 PUSH2 0x4672 JUMP JUMPDEST DUP3 MSTORE POP POP JUMP JUMPDEST PUSH0 PUSH1 0x20 DUP3 ADD SWAP1 POP PUSH2 0x469D PUSH0 DUP4 ADD DUP5 PUSH2 0x467B JUMP JUMPDEST SWAP3 SWAP2 POP POP JUMP JUMPDEST PUSH2 0x46AC DUP2 PUSH2 0x4672 JUMP JUMPDEST DUP2 EQ PUSH2 0x46B6 JUMPI PUSH0 DUP1 REVERT JUMPDEST POP JUMP JUMPDEST PUSH0 DUP2 CALLDATALOAD SWAP1 POP PUSH2 0x46C7 DUP2 PUSH2 0x46A3 JUMP JUMPDEST SWAP3 SWAP2 POP POP JUMP JUMPDEST PUSH0 PUSH1 0x20 DUP3 DUP5 SUB SLT ISZERO PUSH2 0x46E2 JUMPI PUSH2 0x46E1 PUSH2 0x45B7 JUMP JUMPDEST JUMPDEST PUSH0 PUSH2 0x46EF DUP5 DUP3 DUP6 ADD PUSH2 0x46B9 JUMP JUMPDEST SWAP2 POP POP SWAP3 SWAP2 POP POP JUMP JUMPDEST PUSH0 DUP2 MLOAD SWAP1 POP SWAP2 SWAP1 POP JUMP JUMPDEST PUSH0 DUP3 DUP3 MSTORE PUSH1 0x20 DUP3 ADD SWAP1 POP SWAP3 SWAP2 POP POP JUMP JUMPDEST PUSH0 JUMPDEST DUP4 DUP2 LT ISZERO PUSH2 0x472F JUMPI DUP1 DUP3 ADD MLOAD DUP2 DUP5 ADD MSTORE PUSH1 0x20 DUP2 ADD SWAP1 POP PUSH2 0x4714 JUMP JUMPDEST PUSH0 DUP5 DUP5 ADD MSTORE POP POP POP POP JUMP JUMPDEST PUSH0 PUSH1 0x1F NOT PUSH1 0x1F DUP4 ADD AND SWAP1 POP SWAP2 SWAP1 POP JUMP JUMPDEST PUSH0 PUSH2 0x4754 DUP3 PUSH2 0x46F8 JUMP JUMPDEST PUSH2 0x475E DUP2 DUP6 PUSH2 0x4702 JUMP JUMPDEST SWAP4 POP PUSH2 0x476E DUP2 DUP6 PUSH1 0x20 DUP7 ADD PUSH2 0x4712 JUMP JUMPDEST PUSH2 0x4777 DUP2 PUSH2 0x473A JUMP JUMPDEST DUP5 ADD SWAP2 POP POP SWAP3 SWAP2 POP POP JUMP JUMPDEST PUSH0 PUSH1 0x20 DUP3 ADD SWAP1 POP DUP2 DUP2 SUB PUSH0 DUP4 ADD MSTORE PUSH2 0x479A DUP2 DUP5 PUSH2 0x474A JUMP JUMPDEST SWAP1 POP SWAP3 SWAP2 POP POP JUMP JUMPDEST PUSH0 PUSH20 0xFFFFFFFFFFFFFFFFFFFFFFFFFFFFFFFFFFFFFFFF DUP3 AND SWAP1 POP SWAP2 SWAP1 POP JUMP JUMPDEST PUSH0 PUSH2 0x47CB DUP3 PUSH2 0x47A2 JUMP JUMPDEST SWAP1 POP SWAP2 SWAP1 POP JUMP JUMPDEST PUSH2 0x47DB DUP2 PUSH2 0x47C1 JUMP JUMPDEST DUP3 MSTORE POP POP JUMP JUMPDEST PUSH0 PUSH1 0x20 DUP3 ADD SWAP1 POP PUSH2 0x47F4 PUSH0 DUP4 ADD DUP5 PUSH2 0x47D2 JUMP JUMPDEST SWAP3 SWAP2 POP POP JUMP JUMPDEST PUSH2 0x4803 DUP2 PUSH2 0x47C1 JUMP JUMPDEST DUP2 EQ PUSH2 0x480D JUMPI PUSH0 DUP1 REVERT JUMPDEST POP JUMP JUMPDEST PUSH0 DUP2 CALLDATALOAD SWAP1 POP PUSH2 0x481E DUP2 PUSH2 0x47FA JUMP JUMPDEST SWAP3 SWAP2 POP POP JUMP JUMPDEST PUSH0 DUP1 REVERT JUMPDEST PUSH0 DUP1 REVERT JUMPDEST PUSH32 0x4E487B7100000000000000000000000000000000000000000000000000000000 PUSH0 MSTORE PUSH1 0x41 PUSH1 0x4 MSTORE PUSH1 0x24 PUSH0 REVERT JUMPDEST PUSH2 0x4862 DUP3 PUSH2 0x473A JUMP JUMPDEST DUP2 ADD DUP2 DUP2 LT PUSH8 0xFFFFFFFFFFFFFFFF DUP3 GT OR ISZERO PUSH2 0x4881 JUMPI PUSH2 0x4880 PUSH2 0x482C JUMP JUMPDEST JUMPDEST DUP1 PUSH1 0x40 MSTORE POP POP POP JUMP JUMPDEST PUSH0 PUSH2 0x4893 PUSH2 0x45AE JUMP JUMPDEST SWAP1 POP PUSH2 0x489F DUP3 DUP3 PUSH2 0x4859 JUMP JUMPDEST SWAP2 SWAP1 POP JUMP JUMPDEST PUSH0 PUSH8 0xFFFFFFFFFFFFFFFF DUP3 GT ISZERO PUSH2 0x48BE JUMPI PUSH2 0x48BD PUSH2 0x482C JUMP JUMPDEST JUMPDEST PUSH2 0x48C7 DUP3 PUSH2 0x473A JUMP JUMPDEST SWAP1 POP PUSH1 0x20 DUP2 ADD SWAP1 POP SWAP2 SWAP1 POP JUMP JUMPDEST DUP3 DUP2 DUP4 CALLDATACOPY PUSH0 DUP4 DUP4 ADD MSTORE POP POP POP JUMP JUMPDEST PUSH0 PUSH2 0x48F4 PUSH2 0x48EF DUP5 PUSH2 0x48A4 JUMP JUMPDEST PUSH2 0x488A JUMP JUMPDEST SWAP1 POP DUP3 DUP2 MSTORE PUSH1 0x20 DUP2 ADD DUP5 DUP5 DUP5 ADD GT ISZERO PUSH2 0x4910 JUMPI PUSH2 0x490F PUSH2 0x4828 JUMP JUMPDEST JUMPDEST PUSH2 0x491B DUP5 DUP3 DUP6 PUSH2 0x48D4 JUMP JUMPDEST POP SWAP4 SWAP3 POP POP POP JUMP JUMPDEST PUSH0 DUP3 PUSH1 0x1F DUP4 ADD SLT PUSH2 0x4937 JUMPI PUSH2 0x4936 PUSH2 0x4824 JUMP JUMPDEST JUMPDEST DUP2 CALLDATALOAD PUSH2 0x4947 DUP5 DUP3 PUSH1 0x20 DUP7 ADD PUSH2 0x48E2 JUMP JUMPDEST SWAP2 POP POP SWAP3 SWAP2 POP POP JUMP JUMPDEST PUSH0 DUP1 PUSH0 DUP1 PUSH1 0x80 DUP6 DUP8 SUB SLT ISZERO PUSH2 0x4968 JUMPI PUSH2 0x4967 PUSH2 0x45B7 JUMP JUMPDEST JUMPDEST PUSH0 PUSH2 0x4975 DUP8 DUP3 DUP9 ADD PUSH2 0x4810 JUMP JUMPDEST SWAP5 POP POP PUSH1 0x20 PUSH2 0x4986 DUP8 DUP3 DUP9 ADD PUSH2 0x4810 JUMP JUMPDEST SWAP4 POP POP PUSH1 0x40 PUSH2 0x4997 DUP8 DUP3 DUP9 ADD PUSH2 0x46B9 JUMP JUMPDEST SWAP3 POP POP PUSH1 0x60 DUP6 ADD CALLDATALOAD PUSH8 0xFFFFFFFFFFFFFFFF DUP2 GT ISZERO PUSH2 0x49B8 JUMPI PUSH2 0x49B7 PUSH2 0x45BB JUMP JUMPDEST JUMPDEST PUSH2 0x49C4 DUP8 DUP3 DUP9 ADD PUSH2 0x4923 JUMP JUMPDEST SWAP2 POP POP SWAP3 SWAP6 SWAP2 SWAP5 POP SWAP3 POP JUMP JUMPDEST PUSH2 0x49D9 DUP2 PUSH2 0x45BF JUMP JUMPDEST DUP3 MSTORE POP POP JUMP JUMPDEST PUSH0 PUSH1 0x20 DUP3 ADD SWAP1 POP PUSH2 0x49F2 PUSH0 DUP4 ADD DUP5 PUSH2 0x49D0 JUMP JUMPDEST SWAP3 SWAP2 POP POP JUMP JUMPDEST PUSH0 PUSH8 0xFFFFFFFFFFFFFFFF DUP3 GT ISZERO PUSH2 0x4A12 JUMPI PUSH2 0x4A11 PUSH2 0x482C JUMP JUMPDEST JUMPDEST PUSH1 0x20 DUP3 MUL SWAP1 POP PUSH1 0x20 DUP2 ADD SWAP1 POP SWAP2 SWAP1 POP JUMP JUMPDEST PUSH0 DUP1 REVERT JUMPDEST PUSH0 PUSH2 0x4A39 PUSH2 0x4A34 DUP5 PUSH2 0x49F8 JUMP JUMPDEST PUSH2 0x488A JUMP JUMPDEST SWAP1 POP DUP1 DUP4 DUP3 MSTORE PUSH1 0x20 DUP3 ADD SWAP1 POP PUSH1 0x20 DUP5 MUL DUP4 ADD DUP6 DUP2 GT ISZERO PUSH2 0x4A5C JUMPI PUSH2 0x4A5B PUSH2 0x4A23 JUMP JUMPDEST JUMPDEST DUP4 JUMPDEST DUP2 DUP2 LT ISZERO PUSH2 0x4A85 JUMPI DUP1 PUSH2 0x4A71 DUP9 DUP3 PUSH2 0x4810 JUMP JUMPDEST DUP5 MSTORE PUSH1 0x20 DUP5 ADD SWAP4 POP POP PUSH1 0x20 DUP2 ADD SWAP1 POP PUSH2 0x4A5E JUMP JUMPDEST POP POP POP SWAP4 SWAP3 POP POP POP JUMP JUMPDEST PUSH0 DUP3 PUSH1 0x1F DUP4 ADD SLT PUSH2 0x4AA3 JUMPI PUSH2 0x4AA2 PUSH2 0x4824 JUMP JUMPDEST JUMPDEST DUP2 CALLDATALOAD PUSH2 0x4AB3 DUP5 DUP3 PUSH1 0x20 DUP7 ADD PUSH2 0x4A27 JUMP JUMPDEST SWAP2 POP POP SWAP3 SWAP2 POP POP JUMP JUMPDEST PUSH0 PUSH8 0xFFFFFFFFFFFFFFFF DUP3 GT ISZERO PUSH2 0x4AD6 JUMPI PUSH2 0x4AD5 PUSH2 0x482C JUMP JUMPDEST JUMPDEST PUSH1 0x20 DUP3 MUL SWAP1 POP PUSH1 0x20 DUP2 ADD SWAP1 POP SWAP2 SWAP1 POP JUMP JUMPDEST PUSH0 PUSH2 0x4AF9 PUSH2 0x4AF4 DUP5 PUSH2 0x4ABC JUMP JUMPDEST PUSH2 0x488A JUMP JUMPDEST SWAP1 POP DUP1 DUP4 DUP3 MSTORE PUSH1 0x20 DUP3 ADD SWAP1 POP PUSH1 0x20 DUP5 MUL DUP4 ADD DUP6 DUP2 GT ISZERO PUSH2 0x4B1C JUMPI PUSH2 0x4B1B PUSH2 0x4A23 JUMP JUMPDEST JUMPDEST DUP4 JUMPDEST DUP2 DUP2 LT ISZERO PUSH2 0x4B45 JUMPI DUP1 PUSH2 0x4B31 DUP9 DUP3 PUSH2 0x46B9 JUMP JUMPDEST DUP5 MSTORE PUSH1 0x20 DUP5 ADD SWAP4 POP POP PUSH1 0x20 DUP2 ADD SWAP1 POP PUSH2 0x4B1E JUMP JUMPDEST POP POP POP SWAP4 SWAP3 POP POP POP JUMP JUMPDEST PUSH0 DUP3 PUSH1 0x1F DUP4 ADD SLT PUSH2 0x4B63 JUMPI PUSH2 0x4B62 PUSH2 0x4824 JUMP JUMPDEST JUMPDEST DUP2 CALLDATALOAD PUSH2 0x4B73 DUP5 DUP3 PUSH1 0x20 DUP7 ADD PUSH2 0x4AE7 JUMP JUMPDEST SWAP2 POP POP SWAP3 SWAP2 POP POP JUMP JUMPDEST PUSH0 PUSH8 0xFFFFFFFFFFFFFFFF DUP3 GT ISZERO PUSH2 0x4B96 JUMPI PUSH2 0x4B95 PUSH2 0x482C JUMP JUMPDEST JUMPDEST PUSH1 0x20 DUP3 MUL SWAP1 POP PUSH1 0x20 DUP2 ADD SWAP1 POP SWAP2 SWAP1 POP JUMP JUMPDEST PUSH0 PUSH2 0x4BB9 PUSH2 0x4BB4 DUP5 PUSH2 0x4B7C JUMP JUMPDEST PUSH2 0x488A JUMP JUMPDEST SWAP1 POP DUP1 DUP4 DUP3 MSTORE PUSH1 0x20 DUP3 ADD SWAP1 POP PUSH1 0x20 DUP5 MUL DUP4 ADD DUP6 DUP2 GT ISZERO PUSH2 0x4BDC JUMPI PUSH2 0x4BDB PUSH2 0x4A23 JUMP JUMPDEST JUMPDEST DUP4 JUMPDEST DUP2 DUP2 LT ISZERO PUSH2 0x4C23 JUMPI DUP1 CALLDATALOAD PUSH8 0xFFFFFFFFFFFFFFFF DUP2 GT ISZERO PUSH2 0x4C01 JUMPI PUSH2 0x4C00 PUSH2 0x4824 JUMP JUMPDEST JUMPDEST DUP1 DUP7 ADD PUSH2 0x4C0E DUP10 DUP3 PUSH2 0x4923 JUMP JUMPDEST DUP6 MSTORE PUSH1 0x20 DUP6 ADD SWAP5 POP POP POP PUSH1 0x20 DUP2 ADD SWAP1 POP PUSH2 0x4BDE JUMP JUMPDEST POP POP POP SWAP4 SWAP3 POP POP POP JUMP JUMPDEST PUSH0 DUP3 PUSH1 0x1F DUP4 ADD SLT PUSH2 0x4C41 JUMPI PUSH2 0x4C40 PUSH2 0x4824 JUMP JUMPDEST JUMPDEST DUP2 CALLDATALOAD PUSH2 0x4C51 DUP5 DUP3 PUSH1 0x20 DUP7 ADD PUSH2 0x4BA7 JUMP JUMPDEST SWAP2 POP POP SWAP3 SWAP2 POP POP JUMP JUMPDEST PUSH0 DUP2 SWAP1 POP SWAP2 SWAP1 POP JUMP JUMPDEST PUSH2 0x4C6C DUP2 PUSH2 0x4C5A JUMP JUMPDEST DUP2 EQ PUSH2 0x4C76 JUMPI PUSH0 DUP1 REVERT JUMPDEST POP JUMP JUMPDEST PUSH0 DUP2 CALLDATALOAD SWAP1 POP PUSH2 0x4C87 DUP2 PUSH2 0x4C63 JUMP JUMPDEST SWAP3 SWAP2 POP POP JUMP JUMPDEST PUSH0 DUP1 PUSH0 DUP1 PUSH1 0x80 DUP6 DUP8 SUB SLT ISZERO PUSH2 0x4CA5 JUMPI PUSH2 0x4CA4 PUSH2 0x45B7 JUMP JUMPDEST JUMPDEST PUSH0 DUP6 ADD CALLDATALOAD PUSH8 0xFFFFFFFFFFFFFFFF DUP2 GT ISZERO PUSH2 0x4CC2 JUMPI PUSH2 0x4CC1 PUSH2 0x45BB JUMP JUMPDEST JUMPDEST PUSH2 0x4CCE DUP8 DUP3 DUP9 ADD PUSH2 0x4A8F JUMP JUMPDEST SWAP5 POP POP PUSH1 0x20 DUP6 ADD CALLDATALOAD PUSH8 0xFFFFFFFFFFFFFFFF DUP2 GT ISZERO PUSH2 0x4CEF JUMPI PUSH2 0x4CEE PUSH2 0x45BB JUMP JUMPDEST JUMPDEST PUSH2 0x4CFB DUP8 DUP3 DUP9 ADD PUSH2 0x4B4F JUMP JUMPDEST SWAP4 POP POP PUSH1 0x40 DUP6 ADD CALLDATALOAD PUSH8 0xFFFFFFFFFFFFFFFF DUP2 GT ISZERO PUSH2 0x4D1C JUMPI PUSH2 0x4D1B PUSH2 0x45BB JUMP JUMPDEST JUMPDEST PUSH2 0x4D28 DUP8 DUP3 DUP9 ADD PUSH2 0x4C2D JUMP JUMPDEST SWAP3 POP POP PUSH1 0x60 PUSH2 0x4D39 DUP8 DUP3 DUP9 ADD PUSH2 0x4C79 JUMP JUMPDEST SWAP2 POP POP SWAP3 SWAP6 SWAP2 SWAP5 POP SWAP3 POP JUMP JUMPDEST PUSH2 0x4D4E DUP2 PUSH2 0x4C5A JUMP JUMPDEST DUP3 MSTORE POP POP JUMP JUMPDEST PUSH0 PUSH1 0x20 DUP3 ADD SWAP1 POP PUSH2 0x4D67 PUSH0 DUP4 ADD DUP5 PUSH2 0x4D45 JUMP JUMPDEST SWAP3 SWAP2 POP POP JUMP JUMPDEST PUSH32 0x4E487B7100000000000000000000000000000000000000000000000000000000 PUSH0 MSTORE PUSH1 0x21 PUSH1 0x4 MSTORE PUSH1 0x24 PUSH0 REVERT JUMPDEST PUSH1 0x8 DUP2 LT PUSH2 0x4DAB JUMPI PUSH2 0x4DAA PUSH2 0x4D6D JUMP JUMPDEST JUMPDEST POP JUMP JUMPDEST PUSH0 DUP2 SWAP1 POP PUSH2 0x4DBB DUP3 PUSH2 0x4D9A JUMP JUMPDEST SWAP2 SWAP1 POP JUMP JUMPDEST PUSH0 PUSH2 0x4DCA DUP3 PUSH2 0x4DAE JUMP JUMPDEST SWAP1 POP SWAP2 SWAP1 POP JUMP JUMPDEST PUSH2 0x4DDA DUP2 PUSH2 0x4DC0 JUMP JUMPDEST DUP3 MSTORE POP POP JUMP JUMPDEST PUSH0 PUSH1 0x20 DUP3 ADD SWAP1 POP PUSH2 0x4DF3 PUSH0 DUP4 ADD DUP5 PUSH2 0x4DD1 JUMP JUMPDEST SWAP3 SWAP2 POP POP JUMP JUMPDEST PUSH0 DUP1 PUSH1 0x40 DUP4 DUP6 SUB SLT ISZERO PUSH2 0x4E0F JUMPI PUSH2 0x4E0E PUSH2 0x45B7 JUMP JUMPDEST JUMPDEST PUSH0 PUSH2 0x4E1C DUP6 DUP3 DUP7 ADD PUSH2 0x46B9 JUMP JUMPDEST SWAP3 POP POP PUSH1 0x20 PUSH2 0x4E2D DUP6 DUP3 DUP7 ADD PUSH2 0x4810 JUMP JUMPDEST SWAP2 POP POP SWAP3 POP SWAP3 SWAP1 POP JUMP JUMPDEST PUSH0 PUSH1 0x60 DUP3 ADD SWAP1 POP PUSH2 0x4E4A PUSH0 DUP4 ADD DUP7 PUSH2 0x467B JUMP JUMPDEST PUSH2 0x4E57 PUSH1 0x20 DUP4 ADD DUP6 PUSH2 0x467B JUMP JUMPDEST PUSH2 0x4E64 PUSH1 0x40 DUP4 ADD DUP5 PUSH2 0x467B JUMP JUMPDEST SWAP5 SWAP4 POP POP POP POP JUMP JUMPDEST PUSH0 PUSH1 0xFF DUP3 AND SWAP1 POP SWAP2 SWAP1 POP JUMP JUMPDEST PUSH2 0x4E81 DUP2 PUSH2 0x4E6C JUMP JUMPDEST DUP2 EQ PUSH2 0x4E8B JUMPI PUSH0 DUP1 REVERT JUMPDEST POP JUMP JUMPDEST PUSH0 DUP2 CALLDATALOAD SWAP1 POP PUSH2 0x4E9C DUP2 PUSH2 0x4E78 JUMP JUMPDEST SWAP3 SWAP2 POP POP JUMP JUMPDEST PUSH0 DUP1 PUSH1 0x40 DUP4 DUP6 SUB SLT ISZERO PUSH2 0x4EB8 JUMPI PUSH2 0x4EB7 PUSH2 0x45B7 JUMP JUMPDEST JUMPDEST PUSH0 PUSH2 0x4EC5 DUP6 DUP3 DUP7 ADD PUSH2 0x46B9 JUMP JUMPDEST SWAP3 POP POP PUSH1 0x20 PUSH2 0x4ED6 DUP6 DUP3 DUP7 ADD PUSH2 0x4E8E JUMP JUMPDEST SWAP2 POP POP SWAP3 POP SWAP3 SWAP1 POP JUMP JUMPDEST PUSH0 DUP1 REVERT JUMPDEST PUSH0 DUP1 DUP4 PUSH1 0x1F DUP5 ADD SLT PUSH2 0x4EF9 JUMPI PUSH2 0x4EF8 PUSH2 0x4824 JUMP JUMPDEST JUMPDEST DUP3 CALLDATALOAD SWAP1 POP PUSH8 0xFFFFFFFFFFFFFFFF DUP2 GT ISZERO PUSH2 0x4F16 JUMPI PUSH2 0x4F15 PUSH2 0x4EE0 JUMP JUMPDEST JUMPDEST PUSH1 0x20 DUP4 ADD SWAP2 POP DUP4 PUSH1 0x1 DUP3 MUL DUP4 ADD GT ISZERO PUSH2 0x4F32 JUMPI PUSH2 0x4F31 PUSH2 0x4A23 JUMP JUMPDEST JUMPDEST SWAP3 POP SWAP3 SWAP1 POP JUMP JUMPDEST PUSH0 DUP1 PUSH0 DUP1 PUSH0 DUP1 PUSH0 PUSH1 0xC0 DUP9 DUP11 SUB SLT ISZERO PUSH2 0x4F54 JUMPI PUSH2 0x4F53 PUSH2 0x45B7 JUMP JUMPDEST JUMPDEST PUSH0 PUSH2 0x4F61 DUP11 DUP3 DUP12 ADD PUSH2 0x46B9 JUMP JUMPDEST SWAP8 POP POP PUSH1 0x20 PUSH2 0x4F72 DUP11 DUP3 DUP12 ADD PUSH2 0x4E8E JUMP JUMPDEST SWAP7 POP POP PUSH1 0x40 PUSH2 0x4F83 DUP11 DUP3 DUP12 ADD PUSH2 0x4810 JUMP JUMPDEST SWAP6 POP POP PUSH1 0x60 DUP9 ADD CALLDATALOAD PUSH8 0xFFFFFFFFFFFFFFFF DUP2 GT ISZERO PUSH2 0x4FA4 JUMPI PUSH2 0x4FA3 PUSH2 0x45BB JUMP JUMPDEST JUMPDEST PUSH2 0x4FB0 DUP11 DUP3 DUP12 ADD PUSH2 0x4EE4 JUMP JUMPDEST SWAP5 POP SWAP5 POP POP PUSH1 0x80 DUP9 ADD CALLDATALOAD PUSH8 0xFFFFFFFFFFFFFFFF DUP2 GT ISZERO PUSH2 0x4FD3 JUMPI PUSH2 0x4FD2 PUSH2 0x45BB JUMP JUMPDEST JUMPDEST PUSH2 0x4FDF DUP11 DUP3 DUP12 ADD PUSH2 0x4923 JUMP JUMPDEST SWAP3 POP POP PUSH1 0xA0 DUP9 ADD CALLDATALOAD PUSH8 0xFFFFFFFFFFFFFFFF DUP2 GT ISZERO PUSH2 0x5000 JUMPI PUSH2 0x4FFF PUSH2 0x45BB JUMP JUMPDEST JUMPDEST PUSH2 0x500C DUP11 DUP3 DUP12 ADD PUSH2 0x4923 JUMP JUMPDEST SWAP2 POP POP SWAP3 SWAP6 SWAP9 SWAP2 SWAP5 SWAP8 POP SWAP3 SWAP6 POP JUMP JUMPDEST PUSH0 DUP1 PUSH0 DUP1 PUSH0 PUSH1 0x80 DUP7 DUP9 SUB SLT ISZERO PUSH2 0x5034 JUMPI PUSH2 0x5033 PUSH2 0x45B7 JUMP JUMPDEST JUMPDEST PUSH0 PUSH2 0x5041 DUP9 DUP3 DUP10 ADD PUSH2 0x46B9 JUMP JUMPDEST SWAP6 POP POP PUSH1 0x20 PUSH2 0x5052 DUP9 DUP3 DUP10 ADD PUSH2 0x4E8E JUMP JUMPDEST SWAP5 POP POP PUSH1 0x40 DUP7 ADD CALLDATALOAD PUSH8 0xFFFFFFFFFFFFFFFF DUP2 GT ISZERO PUSH2 0x5073 JUMPI PUSH2 0x5072 PUSH2 0x45BB JUMP JUMPDEST JUMPDEST PUSH2 0x507F DUP9 DUP3 DUP10 ADD PUSH2 0x4EE4 JUMP JUMPDEST SWAP4 POP SWAP4 POP POP PUSH1 0x60 DUP7 ADD CALLDATALOAD PUSH8 0xFFFFFFFFFFFFFFFF DUP2 GT ISZERO PUSH2 0x50A2 JUMPI PUSH2 0x50A1 PUSH2 0x45BB JUMP JUMPDEST JUMPDEST PUSH2 0x50AE DUP9 DUP3 DUP10 ADD PUSH2 0x4923 JUMP JUMPDEST SWAP2 POP POP SWAP3 SWAP6 POP SWAP3 SWAP6 SWAP1 SWAP4 POP JUMP JUMPDEST PUSH0 DUP1 PUSH0 DUP1 PUSH1 0x60 DUP6 DUP8 SUB SLT ISZERO PUSH2 0x50D3 JUMPI PUSH2 0x50D2 PUSH2 0x45B7 JUMP JUMPDEST JUMPDEST PUSH0 PUSH2 0x50E0 DUP8 DUP3 DUP9 ADD PUSH2 0x46B9 JUMP JUMPDEST SWAP5 POP POP PUSH1 0x20 PUSH2 0x50F1 DUP8 DUP3 DUP9 ADD PUSH2 0x4E8E JUMP JUMPDEST SWAP4 POP POP PUSH1 0x40 DUP6 ADD CALLDATALOAD PUSH8 0xFFFFFFFFFFFFFFFF DUP2 GT ISZERO PUSH2 0x5112 JUMPI PUSH2 0x5111 PUSH2 0x45BB JUMP JUMPDEST JUMPDEST PUSH2 0x511E DUP8 DUP3 DUP9 ADD PUSH2 0x4EE4 JUMP JUMPDEST SWAP3 POP SWAP3 POP POP SWAP3 SWAP6 SWAP2 SWAP5 POP SWAP3 POP JUMP JUMPDEST PUSH0 PUSH8 0xFFFFFFFFFFFFFFFF DUP3 GT ISZERO PUSH2 0x5146 JUMPI PUSH2 0x5145 PUSH2 0x482C JUMP JUMPDEST JUMPDEST PUSH2 0x514F DUP3 PUSH2 0x473A JUMP JUMPDEST SWAP1 POP PUSH1 0x20 DUP2 ADD SWAP1 POP SWAP2 SWAP1 POP JUMP JUMPDEST PUSH0 PUSH2 0x516E PUSH2 0x5169 DUP5 PUSH2 0x512C JUMP JUMPDEST PUSH2 0x488A JUMP JUMPDEST SWAP1 POP DUP3 DUP2 MSTORE PUSH1 0x20 DUP2 ADD DUP5 DUP5 DUP5 ADD GT ISZERO PUSH2 0x518A JUMPI PUSH2 0x5189 PUSH2 0x4828 JUMP JUMPDEST JUMPDEST PUSH2 0x5195 DUP5 DUP3 DUP6 PUSH2 0x48D4 JUMP JUMPDEST POP SWAP4 SWAP3 POP POP POP JUMP JUMPDEST PUSH0 DUP3 PUSH1 0x1F DUP4 ADD SLT PUSH2 0x51B1 JUMPI PUSH2 0x51B0 PUSH2 0x4824 JUMP JUMPDEST JUMPDEST DUP2 CALLDATALOAD PUSH2 0x51C1 DUP5 DUP3 PUSH1 0x20 DUP7 ADD PUSH2 0x515C JUMP JUMPDEST SWAP2 POP POP SWAP3 SWAP2 POP POP JUMP JUMPDEST PUSH0 DUP1 PUSH0 DUP1 PUSH1 0x80 DUP6 DUP8 SUB SLT ISZERO PUSH2 0x51E2 JUMPI PUSH2 0x51E1 PUSH2 0x45B7 JUMP JUMPDEST JUMPDEST PUSH0 DUP6 ADD CALLDATALOAD PUSH8 0xFFFFFFFFFFFFFFFF DUP2 GT ISZERO PUSH2 0x51FF JUMPI PUSH2 0x51FE PUSH2 0x45BB JUMP JUMPDEST JUMPDEST PUSH2 0x520B DUP8 DUP3 DUP9 ADD PUSH2 0x4A8F JUMP JUMPDEST SWAP5 POP POP PUSH1 0x20 DUP6 ADD CALLDATALOAD PUSH8 0xFFFFFFFFFFFFFFFF DUP2 GT ISZERO PUSH2 0x522C JUMPI PUSH2 0x522B PUSH2 0x45BB JUMP JUMPDEST JUMPDEST PUSH2 0x5238 DUP8 DUP3 DUP9 ADD PUSH2 0x4B4F JUMP JUMPDEST SWAP4 POP POP PUSH1 0x40 DUP6 ADD CALLDATALOAD PUSH8 0xFFFFFFFFFFFFFFFF DUP2 GT ISZERO PUSH2 0x5259 JUMPI PUSH2 0x5258 PUSH2 0x45BB JUMP JUMPDEST JUMPDEST PUSH2 0x5265 DUP8 DUP3 DUP9 ADD PUSH2 0x4C2D JUMP JUMPDEST SWAP3 POP POP PUSH1 0x60 DUP6 ADD CALLDATALOAD PUSH8 0xFFFFFFFFFFFFFFFF DUP2 GT ISZERO PUSH2 0x5286 JUMPI PUSH2 0x5285 PUSH2 0x45BB JUMP JUMPDEST JUMPDEST PUSH2 0x5292 DUP8 DUP3 DUP9 ADD PUSH2 0x519D JUMP JUMPDEST SWAP2 POP POP SWAP3 SWAP6 SWAP2 SWAP5 POP SWAP3 POP JUMP JUMPDEST PUSH0 PUSH1 0x20 DUP3 DUP5 SUB SLT ISZERO PUSH2 0x52B3 JUMPI PUSH2 0x52B2 PUSH2 0x45B7 JUMP JUMPDEST JUMPDEST PUSH0 PUSH2 0x52C0 DUP5 DUP3 DUP6 ADD PUSH2 0x4810 JUMP JUMPDEST SWAP2 POP POP SWAP3 SWAP2 POP POP JUMP JUMPDEST PUSH0 PUSH32 0xFF00000000000000000000000000000000000000000000000000000000000000 DUP3 AND SWAP1 POP SWAP2 SWAP1 POP JUMP JUMPDEST PUSH2 0x52FD DUP2 PUSH2 0x52C9 JUMP JUMPDEST DUP3 MSTORE POP POP JUMP JUMPDEST PUSH0 DUP2 MLOAD SWAP1 POP SWAP2 SWAP1 POP JUMP JUMPDEST PUSH0 DUP3 DUP3 MSTORE PUSH1 0x20 DUP3 ADD SWAP1 POP SWAP3 SWAP2 POP POP JUMP JUMPDEST PUSH0 DUP2 SWAP1 POP PUSH1 0x20 DUP3 ADD SWAP1 POP SWAP2 SWAP1 POP JUMP JUMPDEST PUSH2 0x5335 DUP2 PUSH2 0x4672 JUMP JUMPDEST DUP3 MSTORE POP POP JUMP JUMPDEST PUSH0 PUSH2 0x5346 DUP4 DUP4 PUSH2 0x532C JUMP JUMPDEST PUSH1 0x20 DUP4 ADD SWAP1 POP SWAP3 SWAP2 POP POP JUMP JUMPDEST PUSH0 PUSH1 0x20 DUP3 ADD SWAP1 POP SWAP2 SWAP1 POP JUMP JUMPDEST PUSH0 PUSH2 0x5368 DUP3 PUSH2 0x5303 JUMP JUMPDEST PUSH2 0x5372 DUP2 DUP6 PUSH2 0x530D JUMP JUMPDEST SWAP4 POP PUSH2 0x537D DUP4 PUSH2 0x531D JUMP JUMPDEST DUP1 PUSH0 JUMPDEST DUP4 DUP2 LT ISZERO PUSH2 0x53AD JUMPI DUP2 MLOAD PUSH2 0x5394 DUP9 DUP3 PUSH2 0x533B JUMP JUMPDEST SWAP8 POP PUSH2 0x539F DUP4 PUSH2 0x5352 JUMP JUMPDEST SWAP3 POP POP PUSH1 0x1 DUP2 ADD SWAP1 POP PUSH2 0x5380 JUMP JUMPDEST POP DUP6 SWAP4 POP POP POP POP SWAP3 SWAP2 POP POP JUMP JUMPDEST PUSH0 PUSH1 0xE0 DUP3 ADD SWAP1 POP PUSH2 0x53CD PUSH0 DUP4 ADD DUP11 PUSH2 0x52F4 JUMP JUMPDEST DUP2 DUP2 SUB PUSH1 0x20 DUP4 ADD MSTORE PUSH2 0x53DF DUP2 DUP10 PUSH2 0x474A JUMP JUMPDEST SWAP1 POP DUP2 DUP2 SUB PUSH1 0x40 DUP4 ADD MSTORE PUSH2 0x53F3 DUP2 DUP9 PUSH2 0x474A JUMP JUMPDEST SWAP1 POP PUSH2 0x5402 PUSH1 0x60 DUP4 ADD DUP8 PUSH2 0x467B JUMP JUMPDEST PUSH2 0x540F PUSH1 0x80 DUP4 ADD DUP7 PUSH2 0x47D2 JUMP JUMPDEST PUSH2 0x541C PUSH1 0xA0 DUP4 ADD DUP6 PUSH2 0x4D45 JUMP JUMPDEST DUP2 DUP2 SUB PUSH1 0xC0 DUP4 ADD MSTORE PUSH2 0x542E DUP2 DUP5 PUSH2 0x535E JUMP JUMPDEST SWAP1 POP SWAP9 SWAP8 POP POP POP POP POP POP POP POP JUMP JUMPDEST PUSH0 DUP1 PUSH0 DUP1 PUSH1 0x80 DUP6 DUP8 SUB SLT ISZERO PUSH2 0x5454 JUMPI PUSH2 0x5453 PUSH2 0x45B7 JUMP JUMPDEST JUMPDEST PUSH0 PUSH2 0x5461 DUP8 DUP3 DUP9 ADD PUSH2 0x46B9 JUMP JUMPDEST SWAP5 POP POP PUSH1 0x20 PUSH2 0x5472 DUP8 DUP3 DUP9 ADD PUSH2 0x4E8E JUMP JUMPDEST SWAP4 POP POP PUSH1 0x40 PUSH2 0x5483 DUP8 DUP3 DUP9 ADD PUSH2 0x4810 JUMP JUMPDEST SWAP3 POP POP PUSH1 0x60 DUP6 ADD CALLDATALOAD PUSH8 0xFFFFFFFFFFFFFFFF DUP2 GT ISZERO PUSH2 0x54A4 JUMPI PUSH2 0x54A3 PUSH2 0x45BB JUMP JUMPDEST JUMPDEST PUSH2 0x54B0 DUP8 DUP3 DUP9 ADD PUSH2 0x4923 JUMP JUMPDEST SWAP2 POP POP SWAP3 SWAP6 SWAP2 SWAP5 POP SWAP3 POP JUMP JUMPDEST PUSH0 PUSH6 0xFFFFFFFFFFFF DUP3 AND SWAP1 POP SWAP2 SWAP1 POP JUMP JUMPDEST PUSH2 0x54D6 DUP2 PUSH2 0x54BC JUMP JUMPDEST DUP3 MSTORE POP POP JUMP JUMPDEST PUSH0 PUSH1 0x20 DUP3 ADD SWAP1 POP PUSH2 0x54EF PUSH0 DUP4 ADD DUP5 PUSH2 0x54CD JUMP JUMPDEST SWAP3 SWAP2 POP POP JUMP JUMPDEST PUSH0 DUP1 PUSH0 PUSH1 0x60 DUP5 DUP7 SUB SLT ISZERO PUSH2 0x550C JUMPI PUSH2 0x550B PUSH2 0x45B7 JUMP JUMPDEST JUMPDEST PUSH0 PUSH2 0x5519 DUP7 DUP3 DUP8 ADD PUSH2 0x4810 JUMP JUMPDEST SWAP4 POP POP PUSH1 0x20 PUSH2 0x552A DUP7 DUP3 DUP8 ADD PUSH2 0x46B9 JUMP JUMPDEST SWAP3 POP POP PUSH1 0x40 DUP5 ADD CALLDATALOAD PUSH8 0xFFFFFFFFFFFFFFFF DUP2 GT ISZERO PUSH2 0x554B JUMPI PUSH2 0x554A PUSH2 0x45BB JUMP JUMPDEST JUMPDEST PUSH2 0x5557 DUP7 DUP3 DUP8 ADD PUSH2 0x4923 JUMP JUMPDEST SWAP2 POP POP SWAP3 POP SWAP3 POP SWAP3 JUMP JUMPDEST PUSH0 PUSH2 0x556B DUP3 PUSH2 0x47A2 JUMP JUMPDEST SWAP1 POP SWAP2 SWAP1 POP JUMP JUMPDEST PUSH0 PUSH2 0x557C DUP3 PUSH2 0x5561 JUMP JUMPDEST SWAP1 POP SWAP2 SWAP1 POP JUMP JUMPDEST PUSH2 0x558C DUP2 PUSH2 0x5572 JUMP JUMPDEST DUP2 EQ PUSH2 0x5596 JUMPI PUSH0 DUP1 REVERT JUMPDEST POP JUMP JUMPDEST PUSH0 DUP2 CALLDATALOAD SWAP1 POP PUSH2 0x55A7 DUP2 PUSH2 0x5583 JUMP JUMPDEST SWAP3 SWAP2 POP POP JUMP JUMPDEST PUSH0 PUSH1 0x20 DUP3 DUP5 SUB SLT ISZERO PUSH2 0x55C2 JUMPI PUSH2 0x55C1 PUSH2 0x45B7 JUMP JUMPDEST JUMPDEST PUSH0 PUSH2 0x55CF DUP5 DUP3 DUP6 ADD PUSH2 0x5599 JUMP JUMPDEST SWAP2 POP POP SWAP3 SWAP2 POP POP JUMP JUMPDEST PUSH0 DUP1 PUSH0 DUP1 PUSH0 PUSH1 0xA0 DUP7 DUP9 SUB SLT ISZERO PUSH2 0x55F1 JUMPI PUSH2 0x55F0 PUSH2 0x45B7 JUMP JUMPDEST JUMPDEST PUSH0 PUSH2 0x55FE DUP9 DUP3 DUP10 ADD PUSH2 0x4810 JUMP JUMPDEST SWAP6 POP POP PUSH1 0x20 PUSH2 0x560F DUP9 DUP3 DUP10 ADD PUSH2 0x4810 JUMP JUMPDEST SWAP5 POP POP PUSH1 0x40 DUP7 ADD CALLDATALOAD PUSH8 0xFFFFFFFFFFFFFFFF DUP2 GT ISZERO PUSH2 0x5630 JUMPI PUSH2 0x562F PUSH2 0x45BB JUMP JUMPDEST JUMPDEST PUSH2 0x563C DUP9 DUP3 DUP10 ADD PUSH2 0x4B4F JUMP JUMPDEST SWAP4 POP POP PUSH1 0x60 DUP7 ADD CALLDATALOAD PUSH8 0xFFFFFFFFFFFFFFFF DUP2 GT ISZERO PUSH2 0x565D JUMPI PUSH2 0x565C PUSH2 0x45BB JUMP JUMPDEST JUMPDEST PUSH2 0x5669 DUP9 DUP3 DUP10 ADD PUSH2 0x4B4F JUMP JUMPDEST SWAP3 POP POP PUSH1 0x80 DUP7 ADD CALLDATALOAD PUSH8 0xFFFFFFFFFFFFFFFF DUP2 GT ISZERO PUSH2 0x568A JUMPI PUSH2 0x5689 PUSH2 0x45BB JUMP JUMPDEST JUMPDEST PUSH2 0x5696 DUP9 DUP3 DUP10 ADD PUSH2 0x4923 JUMP JUMPDEST SWAP2 POP POP SWAP3 SWAP6 POP SWAP3 SWAP6 SWAP1 SWAP4 POP JUMP JUMPDEST PUSH0 DUP1 DUP4 PUSH1 0x1F DUP5 ADD SLT PUSH2 0x56B8 JUMPI PUSH2 0x56B7 PUSH2 0x4824 JUMP JUMPDEST JUMPDEST DUP3 CALLDATALOAD SWAP1 POP PUSH8 0xFFFFFFFFFFFFFFFF DUP2 GT ISZERO PUSH2 0x56D5 JUMPI PUSH2 0x56D4 PUSH2 0x4EE0 JUMP JUMPDEST JUMPDEST PUSH1 0x20 DUP4 ADD SWAP2 POP DUP4 PUSH1 0x1 DUP3 MUL DUP4 ADD GT ISZERO PUSH2 0x56F1 JUMPI PUSH2 0x56F0 PUSH2 0x4A23 JUMP JUMPDEST JUMPDEST SWAP3 POP SWAP3 SWAP1 POP JUMP JUMPDEST PUSH0 DUP1 PUSH0 DUP1 PUSH1 0x60 DUP6 DUP8 SUB SLT ISZERO PUSH2 0x5710 JUMPI PUSH2 0x570F PUSH2 0x45B7 JUMP JUMPDEST JUMPDEST PUSH0 PUSH2 0x571D DUP8 DUP3 DUP9 ADD PUSH2 0x4810 JUMP JUMPDEST SWAP5 POP POP PUSH1 0x20 PUSH2 0x572E DUP8 DUP3 DUP9 ADD PUSH2 0x46B9 JUMP JUMPDEST SWAP4 POP POP PUSH1 0x40 DUP6 ADD CALLDATALOAD PUSH8 0xFFFFFFFFFFFFFFFF DUP2 GT ISZERO PUSH2 0x574F JUMPI PUSH2 0x574E PUSH2 0x45BB JUMP JUMPDEST JUMPDEST PUSH2 0x575B DUP8 DUP3 DUP9 ADD PUSH2 0x56A3 JUMP JUMPDEST SWAP3 POP SWAP3 POP POP SWAP3 SWAP6 SWAP2 SWAP5 POP SWAP3 POP JUMP JUMPDEST PUSH0 DUP1 PUSH1 0x40 DUP4 DUP6 SUB SLT ISZERO PUSH2 0x577F JUMPI PUSH2 0x577E PUSH2 0x45B7 JUMP JUMPDEST JUMPDEST PUSH0 PUSH2 0x578C DUP6 DUP3 DUP7 ADD PUSH2 0x4810 JUMP JUMPDEST SWAP3 POP POP PUSH1 0x20 PUSH2 0x579D DUP6 DUP3 DUP7 ADD PUSH2 0x46B9 JUMP JUMPDEST SWAP2 POP POP SWAP3 POP SWAP3 SWAP1 POP JUMP JUMPDEST PUSH0 DUP1 PUSH0 DUP1 PUSH0 PUSH1 0xA0 DUP7 DUP9 SUB SLT ISZERO PUSH2 0x57C0 JUMPI PUSH2 0x57BF PUSH2 0x45B7 JUMP JUMPDEST JUMPDEST PUSH0 PUSH2 0x57CD DUP9 DUP3 DUP10 ADD PUSH2 0x4810 JUMP JUMPDEST SWAP6 POP POP PUSH1 0x20 PUSH2 0x57DE DUP9 DUP3 DUP10 ADD PUSH2 0x4810 JUMP JUMPDEST SWAP5 POP POP PUSH1 0x40 PUSH2 0x57EF DUP9 DUP3 DUP10 ADD PUSH2 0x46B9 JUMP JUMPDEST SWAP4 POP POP PUSH1 0x60 PUSH2 0x5800 DUP9 DUP3 DUP10 ADD PUSH2 0x46B9 JUMP JUMPDEST SWAP3 POP POP PUSH1 0x80 DUP7 ADD CALLDATALOAD PUSH8 0xFFFFFFFFFFFFFFFF DUP2 GT ISZERO PUSH2 0x5821 JUMPI PUSH2 0x5820 PUSH2 0x45BB JUMP JUMPDEST JUMPDEST PUSH2 0x582D DUP9 DUP3 DUP10 ADD PUSH2 0x4923 JUMP JUMPDEST SWAP2 POP POP SWAP3 SWAP6 POP SWAP3 SWAP6 SWAP1 SWAP4 POP JUMP JUMPDEST PUSH0 DUP2 SWAP1 POP SWAP2 SWAP1 POP JUMP JUMPDEST PUSH0 PUSH2 0x585D PUSH2 0x5858 PUSH2 0x5853 DUP5 PUSH2 0x47A2 JUMP JUMPDEST PUSH2 0x583A JUMP JUMPDEST PUSH2 0x47A2 JUMP JUMPDEST SWAP1 POP SWAP2 SWAP1 POP JUMP JUMPDEST PUSH0 PUSH2 0x586E DUP3 PUSH2 0x5843 JUMP JUMPDEST SWAP1 POP SWAP2 SWAP1 POP JUMP JUMPDEST PUSH0 PUSH2 0x587F DUP3 PUSH2 0x5864 JUMP JUMPDEST SWAP1 POP SWAP2 SWAP1 POP JUMP JUMPDEST PUSH2 0x588F DUP2 PUSH2 0x5875 JUMP JUMPDEST DUP3 MSTORE POP POP JUMP JUMPDEST PUSH0 PUSH1 0x20 DUP3 ADD SWAP1 POP PUSH2 0x58A8 PUSH0 DUP4 ADD DUP5 PUSH2 0x5886 JUMP JUMPDEST SWAP3 SWAP2 POP POP JUMP JUMPDEST PUSH32 0x4E487B7100000000000000000000000000000000000000000000000000000000 PUSH0 MSTORE PUSH1 0x22 PUSH1 0x4 MSTORE PUSH1 0x24 PUSH0 REVERT JUMPDEST PUSH0 PUSH1 0x2 DUP3 DIV SWAP1 POP PUSH1 0x1 DUP3 AND DUP1 PUSH2 0x58F2 JUMPI PUSH1 0x7F DUP3 AND SWAP2 POP JUMPDEST PUSH1 0x20 DUP3 LT DUP2 SUB PUSH2 0x5905 JUMPI PUSH2 0x5904 PUSH2 0x58AE JUMP JUMPDEST JUMPDEST POP SWAP2 SWAP1 POP JUMP JUMPDEST PUSH0 PUSH2 0x5925 PUSH2 0x5920 PUSH2 0x591B DUP5 PUSH2 0x54BC JUMP JUMPDEST PUSH2 0x583A JUMP JUMPDEST PUSH2 0x4672 JUMP JUMPDEST SWAP1 POP SWAP2 SWAP1 POP JUMP JUMPDEST PUSH2 0x5935 DUP2 PUSH2 0x590B JUMP JUMPDEST DUP3 MSTORE POP POP JUMP JUMPDEST PUSH0 PUSH1 0x40 DUP3 ADD SWAP1 POP PUSH2 0x594E PUSH0 DUP4 ADD DUP6 PUSH2 0x467B JUMP JUMPDEST PUSH2 0x595B PUSH1 0x20 DUP4 ADD DUP5 PUSH2 0x592C JUMP JUMPDEST SWAP4 SWAP3 POP POP POP JUMP JUMPDEST PUSH32 0x4E487B7100000000000000000000000000000000000000000000000000000000 PUSH0 MSTORE PUSH1 0x32 PUSH1 0x4 MSTORE PUSH1 0x24 PUSH0 REVERT JUMPDEST PUSH0 PUSH2 0x59A1 PUSH2 0x599C DUP5 PUSH2 0x512C JUMP JUMPDEST PUSH2 0x488A JUMP JUMPDEST SWAP1 POP DUP3 DUP2 MSTORE PUSH1 0x20 DUP2 ADD DUP5 DUP5 DUP5 ADD GT ISZERO PUSH2 0x59BD JUMPI PUSH2 0x59BC PUSH2 0x4828 JUMP JUMPDEST JUMPDEST PUSH2 0x59C8 DUP5 DUP3 DUP6 PUSH2 0x4712 JUMP JUMPDEST POP SWAP4 SWAP3 POP POP POP JUMP JUMPDEST PUSH0 DUP3 PUSH1 0x1F DUP4 ADD SLT PUSH2 0x59E4 JUMPI PUSH2 0x59E3 PUSH2 0x4824 JUMP JUMPDEST JUMPDEST DUP2 MLOAD PUSH2 0x59F4 DUP5 DUP3 PUSH1 0x20 DUP7 ADD PUSH2 0x598F JUMP JUMPDEST SWAP2 POP POP SWAP3 SWAP2 POP POP JUMP JUMPDEST PUSH0 PUSH1 0x20 DUP3 DUP5 SUB SLT ISZERO PUSH2 0x5A12 JUMPI PUSH2 0x5A11 PUSH2 0x45B7 JUMP JUMPDEST JUMPDEST PUSH0 DUP3 ADD MLOAD PUSH8 0xFFFFFFFFFFFFFFFF DUP2 GT ISZERO PUSH2 0x5A2F JUMPI PUSH2 0x5A2E PUSH2 0x45BB JUMP JUMPDEST JUMPDEST PUSH2 0x5A3B DUP5 DUP3 DUP6 ADD PUSH2 0x59D0 JUMP JUMPDEST SWAP2 POP POP SWAP3 SWAP2 POP POP JUMP JUMPDEST PUSH0 DUP2 SWAP1 POP SWAP3 SWAP2 POP POP JUMP JUMPDEST PUSH0 PUSH2 0x5A59 DUP4 DUP6 PUSH2 0x5A44 JUMP JUMPDEST SWAP4 POP PUSH2 0x5A66 DUP4 DUP6 DUP5 PUSH2 0x48D4 JUMP JUMPDEST DUP3 DUP5 ADD SWAP1 POP SWAP4 SWAP3 POP POP POP JUMP JUMPDEST PUSH0 PUSH2 0x5A7E DUP3 DUP5 DUP7 PUSH2 0x5A4E JUMP JUMPDEST SWAP2 POP DUP2 SWAP1 POP SWAP4 SWAP3 POP POP POP JUMP JUMPDEST PUSH2 0x5A93 DUP2 PUSH2 0x4E6C JUMP JUMPDEST DUP3 MSTORE POP POP JUMP JUMPDEST PUSH0 PUSH1 0xE0 DUP3 ADD SWAP1 POP PUSH2 0x5AAC PUSH0 DUP4 ADD DUP11 PUSH2 0x4D45 JUMP JUMPDEST PUSH2 0x5AB9 PUSH1 0x20 DUP4 ADD DUP10 PUSH2 0x467B JUMP JUMPDEST PUSH2 0x5AC6 PUSH1 0x40 DUP4 ADD DUP9 PUSH2 0x5A8A JUMP JUMPDEST PUSH2 0x5AD3 PUSH1 0x60 DUP4 ADD DUP8 PUSH2 0x47D2 JUMP JUMPDEST PUSH2 0x5AE0 PUSH1 0x80 DUP4 ADD DUP7 PUSH2 0x467B JUMP JUMPDEST PUSH2 0x5AED PUSH1 0xA0 DUP4 ADD DUP6 PUSH2 0x4D45 JUMP JUMPDEST PUSH2 0x5AFA PUSH1 0xC0 DUP4 ADD DUP5 PUSH2 0x4D45 JUMP JUMPDEST SWAP9 SWAP8 POP POP POP POP POP POP POP POP JUMP JUMPDEST PUSH32 0x4E487B7100000000000000000000000000000000000000000000000000000000 PUSH0 MSTORE PUSH1 0x11 PUSH1 0x4 MSTORE PUSH1 0x24 PUSH0 REVERT JUMPDEST PUSH0 PUSH2 0x5B3D DUP3 PUSH2 0x4672 JUMP JUMPDEST SWAP2 POP PUSH2 0x5B48 DUP4 PUSH2 0x4672 JUMP JUMPDEST SWAP3 POP DUP3 DUP3 SUB SWAP1 POP DUP2 DUP2 GT ISZERO PUSH2 0x5B60 JUMPI PUSH2 0x5B5F PUSH2 0x5B06 JUMP JUMPDEST JUMPDEST SWAP3 SWAP2 POP POP JUMP JUMPDEST PUSH0 PUSH2 0x5B70 DUP3 PUSH2 0x54BC JUMP JUMPDEST SWAP2 POP PUSH2 0x5B7B DUP4 PUSH2 0x54BC JUMP JUMPDEST SWAP3 POP DUP3 DUP3 SUB SWAP1 POP PUSH6 0xFFFFFFFFFFFF DUP2 GT ISZERO PUSH2 0x5B99 JUMPI PUSH2 0x5B98 PUSH2 0x5B06 JUMP JUMPDEST JUMPDEST SWAP3 SWAP2 POP POP JUMP JUMPDEST PUSH0 PUSH1 0x60 DUP3 ADD SWAP1 POP PUSH2 0x5BB2 PUSH0 DUP4 ADD DUP7 PUSH2 0x47D2 JUMP JUMPDEST PUSH2 0x5BBF PUSH1 0x20 DUP4 ADD DUP6 PUSH2 0x467B JUMP JUMPDEST PUSH2 0x5BCC PUSH1 0x40 DUP4 ADD DUP5 PUSH2 0x467B JUMP JUMPDEST SWAP5 SWAP4 POP POP POP POP JUMP JUMPDEST PUSH0 PUSH1 0xA0 DUP3 ADD SWAP1 POP PUSH2 0x5BE7 PUSH0 DUP4 ADD DUP9 PUSH2 0x4D45 JUMP JUMPDEST PUSH2 0x5BF4 PUSH1 0x20 DUP4 ADD DUP8 PUSH2 0x467B JUMP JUMPDEST PUSH2 0x5C01 PUSH1 0x40 DUP4 ADD DUP7 PUSH2 0x5A8A JUMP JUMPDEST PUSH2 0x5C0E PUSH1 0x60 DUP4 ADD DUP6 PUSH2 0x47D2 JUMP JUMPDEST PUSH2 0x5C1B PUSH1 0x80 DUP4 ADD DUP5 PUSH2 0x467B JUMP JUMPDEST SWAP7 SWAP6 POP POP POP POP POP POP JUMP JUMPDEST PUSH2 0x5C2E DUP2 PUSH2 0x54BC JUMP JUMPDEST DUP2 EQ PUSH2 0x5C38 JUMPI PUSH0 DUP1 REVERT JUMPDEST POP JUMP JUMPDEST PUSH0 DUP2 MLOAD SWAP1 POP PUSH2 0x5C49 DUP2 PUSH2 0x5C25 JUMP JUMPDEST SWAP3 SWAP2 POP POP JUMP JUMPDEST PUSH0 PUSH1 0x20 DUP3 DUP5 SUB SLT ISZERO PUSH2 0x5C64 JUMPI PUSH2 0x5C63 PUSH2 0x45B7 JUMP JUMPDEST JUMPDEST PUSH0 PUSH2 0x5C71 DUP5 DUP3 DUP6 ADD PUSH2 0x5C3B JUMP JUMPDEST SWAP2 POP POP SWAP3 SWAP2 POP POP JUMP JUMPDEST PUSH0 PUSH2 0x5C84 DUP3 PUSH2 0x54BC JUMP JUMPDEST SWAP2 POP PUSH2 0x5C8F DUP4 PUSH2 0x54BC JUMP JUMPDEST SWAP3 POP DUP3 DUP3 ADD SWAP1 POP PUSH6 0xFFFFFFFFFFFF DUP2 GT ISZERO PUSH2 0x5CAD JUMPI PUSH2 0x5CAC PUSH2 0x5B06 JUMP JUMPDEST JUMPDEST SWAP3 SWAP2 POP POP JUMP JUMPDEST PUSH0 DUP2 MLOAD SWAP1 POP SWAP2 SWAP1 POP JUMP JUMPDEST PUSH0 DUP3 DUP3 MSTORE PUSH1 0x20 DUP3 ADD SWAP1 POP SWAP3 SWAP2 POP POP JUMP JUMPDEST PUSH0 DUP2 SWAP1 POP PUSH1 0x20 DUP3 ADD SWAP1 POP SWAP2 SWAP1 POP JUMP JUMPDEST PUSH2 0x5CE5 DUP2 PUSH2 0x47C1 JUMP JUMPDEST DUP3 MSTORE POP POP JUMP JUMPDEST PUSH0 PUSH2 0x5CF6 DUP4 DUP4 PUSH2 0x5CDC JUMP JUMPDEST PUSH1 0x20 DUP4 ADD SWAP1 POP SWAP3 SWAP2 POP POP JUMP JUMPDEST PUSH0 PUSH1 0x20 DUP3 ADD SWAP1 POP SWAP2 SWAP1 POP JUMP JUMPDEST PUSH0 PUSH2 0x5D18 DUP3 PUSH2 0x5CB3 JUMP JUMPDEST PUSH2 0x5D22 DUP2 DUP6 PUSH2 0x5CBD JUMP JUMPDEST SWAP4 POP PUSH2 0x5D2D DUP4 PUSH2 0x5CCD JUMP JUMPDEST DUP1 PUSH0 JUMPDEST DUP4 DUP2 LT ISZERO PUSH2 0x5D5D JUMPI DUP2 MLOAD PUSH2 0x5D44 DUP9 DUP3 PUSH2 0x5CEB JUMP JUMPDEST SWAP8 POP PUSH2 0x5D4F DUP4 PUSH2 0x5D02 JUMP JUMPDEST SWAP3 POP POP PUSH1 0x1 DUP2 ADD SWAP1 POP PUSH2 0x5D30 JUMP JUMPDEST POP DUP6 SWAP4 POP POP POP POP SWAP3 SWAP2 POP POP JUMP JUMPDEST PUSH0 DUP2 MLOAD SWAP1 POP SWAP2 SWAP1 POP JUMP JUMPDEST PUSH0 DUP3 DUP3 MSTORE PUSH1 0x20 DUP3 ADD SWAP1 POP SWAP3 SWAP2 POP POP JUMP JUMPDEST PUSH0 DUP2 SWAP1 POP PUSH1 0x20 DUP3 ADD SWAP1 POP SWAP2 SWAP1 POP JUMP JUMPDEST PUSH0 DUP2 MLOAD SWAP1 POP SWAP2 SWAP1 POP JUMP JUMPDEST PUSH0 DUP3 DUP3 MSTORE PUSH1 0x20 DUP3 ADD SWAP1 POP SWAP3 SWAP2 POP POP JUMP JUMPDEST PUSH0 PUSH2 0x5DB7 DUP3 PUSH2 0x5D93 JUMP JUMPDEST PUSH2 0x5DC1 DUP2 DUP6 PUSH2 0x5D9D JUMP JUMPDEST SWAP4 POP PUSH2 0x5DD1 DUP2 DUP6 PUSH1 0x20 DUP7 ADD PUSH2 0x4712 JUMP JUMPDEST PUSH2 0x5DDA DUP2 PUSH2 0x473A JUMP JUMPDEST DUP5 ADD SWAP2 POP POP SWAP3 SWAP2 POP POP JUMP JUMPDEST PUSH0 PUSH2 0x5DF0 DUP4 DUP4 PUSH2 0x5DAD JUMP JUMPDEST SWAP1 POP SWAP3 SWAP2 POP POP JUMP JUMPDEST PUSH0 PUSH1 0x20 DUP3 ADD SWAP1 POP SWAP2 SWAP1 POP JUMP JUMPDEST PUSH0 PUSH2 0x5E0E DUP3 PUSH2 0x5D6A JUMP JUMPDEST PUSH2 0x5E18 DUP2 DUP6 PUSH2 0x5D74 JUMP JUMPDEST SWAP4 POP DUP4 PUSH1 0x20 DUP3 MUL DUP6 ADD PUSH2 0x5E2A DUP6 PUSH2 0x5D84 JUMP JUMPDEST DUP1 PUSH0 JUMPDEST DUP6 DUP2 LT ISZERO PUSH2 0x5E65 JUMPI DUP5 DUP5 SUB DUP10 MSTORE DUP2 MLOAD PUSH2 0x5E46 DUP6 DUP3 PUSH2 0x5DE5 JUMP JUMPDEST SWAP5 POP PUSH2 0x5E51 DUP4 PUSH2 0x5DF8 JUMP JUMPDEST SWAP3 POP PUSH1 0x20 DUP11 ADD SWAP10 POP POP PUSH1 0x1 DUP2 ADD SWAP1 POP PUSH2 0x5E2D JUMP JUMPDEST POP DUP3 SWAP8 POP DUP8 SWAP6 POP POP POP POP POP POP SWAP3 SWAP2 POP POP JUMP JUMPDEST PUSH0 PUSH1 0x80 DUP3 ADD SWAP1 POP DUP2 DUP2 SUB PUSH0 DUP4 ADD MSTORE PUSH2 0x5E8F DUP2 DUP8 PUSH2 0x5D0E JUMP JUMPDEST SWAP1 POP DUP2 DUP2 SUB PUSH1 0x20 DUP4 ADD MSTORE PUSH2 0x5EA3 DUP2 DUP7 PUSH2 0x535E JUMP JUMPDEST SWAP1 POP DUP2 DUP2 SUB PUSH1 0x40 DUP4 ADD MSTORE PUSH2 0x5EB7 DUP2 DUP6 PUSH2 0x5E04 JUMP JUMPDEST SWAP1 POP PUSH2 0x5EC6 PUSH1 0x60 DUP4 ADD DUP5 PUSH2 0x4D45 JUMP JUMPDEST SWAP6 SWAP5 POP POP POP POP POP JUMP JUMPDEST PUSH0 DUP2 MLOAD SWAP1 POP PUSH2 0x5EDD DUP2 PUSH2 0x46A3 JUMP JUMPDEST SWAP3 SWAP2 POP POP JUMP JUMPDEST PUSH0 PUSH1 0x20 DUP3 DUP5 SUB SLT ISZERO PUSH2 0x5EF8 JUMPI PUSH2 0x5EF7 PUSH2 0x45B7 JUMP JUMPDEST JUMPDEST PUSH0 PUSH2 0x5F05 DUP5 DUP3 DUP6 ADD PUSH2 0x5ECF JUMP JUMPDEST SWAP2 POP POP SWAP3 SWAP2 POP POP JUMP JUMPDEST PUSH0 PUSH2 0x5F18 DUP3 PUSH2 0x4672 JUMP JUMPDEST SWAP2 POP PUSH2 0x5F23 DUP4 PUSH2 0x4672 JUMP JUMPDEST SWAP3 POP DUP3 DUP3 MUL PUSH2 0x5F31 DUP2 PUSH2 0x4672 JUMP JUMPDEST SWAP2 POP DUP3 DUP3 DIV DUP5 EQ DUP4 ISZERO OR PUSH2 0x5F48 JUMPI PUSH2 0x5F47 PUSH2 0x5B06 JUMP JUMPDEST JUMPDEST POP SWAP3 SWAP2 POP POP JUMP JUMPDEST PUSH32 0x4E487B7100000000000000000000000000000000000000000000000000000000 PUSH0 MSTORE PUSH1 0x12 PUSH1 0x4 MSTORE PUSH1 0x24 PUSH0 REVERT JUMPDEST PUSH0 PUSH2 0x5F86 DUP3 PUSH2 0x4672 JUMP JUMPDEST SWAP2 POP PUSH2 0x5F91 DUP4 PUSH2 0x4672 JUMP JUMPDEST SWAP3 POP DUP3 PUSH2 0x5FA1 JUMPI PUSH2 0x5FA0 PUSH2 0x5F4F JUMP JUMPDEST JUMPDEST DUP3 DUP3 DIV SWAP1 POP SWAP3 SWAP2 POP POP JUMP JUMPDEST PUSH0 PUSH1 0x40 DUP3 ADD SWAP1 POP PUSH2 0x5FBF PUSH0 DUP4 ADD DUP6 PUSH2 0x467B JUMP JUMPDEST PUSH2 0x5FCC PUSH1 0x20 DUP4 ADD DUP5 PUSH2 0x467B JUMP JUMPDEST SWAP4 SWAP3 POP POP POP JUMP JUMPDEST PUSH0 PUSH1 0x60 DUP3 ADD SWAP1 POP PUSH2 0x5FE6 PUSH0 DUP4 ADD DUP7 PUSH2 0x467B JUMP JUMPDEST PUSH2 0x5FF3 PUSH1 0x20 DUP4 ADD DUP6 PUSH2 0x4DD1 JUMP JUMPDEST PUSH2 0x6000 PUSH1 0x40 DUP4 ADD DUP5 PUSH2 0x4D45 JUMP JUMPDEST SWAP5 SWAP4 POP POP POP POP JUMP JUMPDEST PUSH2 0x6011 DUP2 PUSH2 0x463F JUMP JUMPDEST DUP2 EQ PUSH2 0x601B JUMPI PUSH0 DUP1 REVERT JUMPDEST POP JUMP JUMPDEST PUSH0 DUP2 MLOAD SWAP1 POP PUSH2 0x602C DUP2 PUSH2 0x6008 JUMP JUMPDEST SWAP3 SWAP2 POP POP JUMP JUMPDEST PUSH0 PUSH1 0x20 DUP3 DUP5 SUB SLT ISZERO PUSH2 0x6047 JUMPI PUSH2 0x6046 PUSH2 0x45B7 JUMP JUMPDEST JUMPDEST PUSH0 PUSH2 0x6054 DUP5 DUP3 DUP6 ADD PUSH2 0x601E JUMP JUMPDEST SWAP2 POP POP SWAP3 SWAP2 POP POP JUMP JUMPDEST PUSH0 PUSH1 0x80 DUP3 ADD SWAP1 POP PUSH2 0x6070 PUSH0 DUP4 ADD DUP8 PUSH2 0x467B JUMP JUMPDEST PUSH2 0x607D PUSH1 0x20 DUP4 ADD DUP7 PUSH2 0x5A8A JUMP JUMPDEST PUSH2 0x608A PUSH1 0x40 DUP4 ADD DUP6 PUSH2 0x467B JUMP JUMPDEST DUP2 DUP2 SUB PUSH1 0x60 DUP4 ADD MSTORE PUSH2 0x609C DUP2 DUP5 PUSH2 0x474A JUMP JUMPDEST SWAP1 POP SWAP6 SWAP5 POP POP POP POP POP JUMP JUMPDEST PUSH0 DUP3 DUP3 MSTORE PUSH1 0x20 DUP3 ADD SWAP1 POP SWAP3 SWAP2 POP POP JUMP JUMPDEST PUSH0 PUSH2 0x60C1 DUP3 PUSH2 0x5D93 JUMP JUMPDEST PUSH2 0x60CB DUP2 DUP6 PUSH2 0x60A7 JUMP JUMPDEST SWAP4 POP PUSH2 0x60DB DUP2 DUP6 PUSH1 0x20 DUP7 ADD PUSH2 0x4712 JUMP JUMPDEST PUSH2 0x60E4 DUP2 PUSH2 0x473A JUMP JUMPDEST DUP5 ADD SWAP2 POP POP SWAP3 SWAP2 POP POP JUMP JUMPDEST PUSH0 PUSH1 0xA0 DUP3 ADD SWAP1 POP PUSH2 0x6102 PUSH0 DUP4 ADD DUP9 PUSH2 0x467B JUMP JUMPDEST PUSH2 0x610F PUSH1 0x20 DUP4 ADD DUP8 PUSH2 0x5A8A JUMP JUMPDEST PUSH2 0x611C PUSH1 0x40 DUP4 ADD DUP7 PUSH2 0x467B JUMP JUMPDEST DUP2 DUP2 SUB PUSH1 0x60 DUP4 ADD MSTORE PUSH2 0x612E DUP2 DUP6 PUSH2 0x474A JUMP JUMPDEST SWAP1 POP DUP2 DUP2 SUB PUSH1 0x80 DUP4 ADD MSTORE PUSH2 0x6142 DUP2 DUP5 PUSH2 0x60B7 JUMP JUMPDEST SWAP1 POP SWAP7 SWAP6 POP POP POP POP POP POP JUMP JUMPDEST PUSH0 DUP2 SWAP1 POP SWAP2 SWAP1 POP JUMP JUMPDEST PUSH0 PUSH2 0x6171 PUSH2 0x616C PUSH2 0x6167 DUP5 PUSH2 0x614E JUMP JUMPDEST PUSH2 0x583A JUMP JUMPDEST PUSH2 0x4E6C JUMP JUMPDEST SWAP1 POP SWAP2 SWAP1 POP JUMP JUMPDEST PUSH2 0x6181 DUP2 PUSH2 0x6157 JUMP JUMPDEST DUP3 MSTORE POP POP JUMP JUMPDEST PUSH0 PUSH1 0x40 DUP3 ADD SWAP1 POP PUSH2 0x619A PUSH0 DUP4 ADD DUP6 PUSH2 0x6178 JUMP JUMPDEST PUSH2 0x61A7 PUSH1 0x20 DUP4 ADD DUP5 PUSH2 0x467B JUMP JUMPDEST SWAP4 SWAP3 POP POP POP JUMP JUMPDEST PUSH0 PUSH2 0x61B8 DUP3 PUSH2 0x4672 JUMP JUMPDEST SWAP2 POP PUSH2 0x61C3 DUP4 PUSH2 0x4672 JUMP JUMPDEST SWAP3 POP DUP3 DUP3 ADD SWAP1 POP DUP1 DUP3 GT ISZERO PUSH2 0x61DB JUMPI PUSH2 0x61DA PUSH2 0x5B06 JUMP JUMPDEST JUMPDEST SWAP3 SWAP2 POP POP JUMP JUMPDEST PUSH0 DUP2 MLOAD SWAP1 POP SWAP2 SWAP1 POP JUMP JUMPDEST PUSH0 DUP3 DUP3 MSTORE PUSH1 0x20 DUP3 ADD SWAP1 POP SWAP3 SWAP2 POP POP JUMP JUMPDEST PUSH0 DUP2 SWAP1 POP PUSH1 0x20 DUP3 ADD SWAP1 POP SWAP2 SWAP1 POP JUMP JUMPDEST PUSH0 DUP3 DUP3 MSTORE PUSH1 0x20 DUP3 ADD SWAP1 POP SWAP3 SWAP2 POP POP JUMP JUMPDEST PUSH0 PUSH2 0x6224 DUP3 PUSH2 0x46F8 JUMP JUMPDEST PUSH2 0x622E DUP2 DUP6 PUSH2 0x620A JUMP JUMPDEST SWAP4 POP PUSH2 0x623E DUP2 DUP6 PUSH1 0x20 DUP7 ADD PUSH2 0x4712 JUMP JUMPDEST PUSH2 0x6247 DUP2 PUSH2 0x473A JUMP JUMPDEST DUP5 ADD SWAP2 POP POP SWAP3 SWAP2 POP POP JUMP JUMPDEST PUSH0 PUSH2 0x625D DUP4 DUP4 PUSH2 0x621A JUMP JUMPDEST SWAP1 POP SWAP3 SWAP2 POP POP JUMP JUMPDEST PUSH0 PUSH1 0x20 DUP3 ADD SWAP1 POP SWAP2 SWAP1 POP JUMP JUMPDEST PUSH0 PUSH2 0x627B DUP3 PUSH2 0x61E1 JUMP JUMPDEST PUSH2 0x6285 DUP2 DUP6 PUSH2 0x61EB JUMP JUMPDEST SWAP4 POP DUP4 PUSH1 0x20 DUP3 MUL DUP6 ADD PUSH2 0x6297 DUP6 PUSH2 0x61FB JUMP JUMPDEST DUP1 PUSH0 JUMPDEST DUP6 DUP2 LT ISZERO PUSH2 0x62D2 JUMPI DUP5 DUP5 SUB DUP10 MSTORE DUP2 MLOAD PUSH2 0x62B3 DUP6 DUP3 PUSH2 0x6252 JUMP JUMPDEST SWAP5 POP PUSH2 0x62BE DUP4 PUSH2 0x6265 JUMP JUMPDEST SWAP3 POP PUSH1 0x20 DUP11 ADD SWAP10 POP POP PUSH1 0x1 DUP2 ADD SWAP1 POP PUSH2 0x629A JUMP JUMPDEST POP DUP3 SWAP8 POP DUP8 SWAP6 POP POP POP POP POP POP SWAP3 SWAP2 POP POP JUMP JUMPDEST PUSH0 PUSH2 0x120 DUP3 ADD SWAP1 POP PUSH2 0x62F8 PUSH0 DUP4 ADD DUP13 PUSH2 0x467B JUMP JUMPDEST PUSH2 0x6305 PUSH1 0x20 DUP4 ADD DUP12 PUSH2 0x47D2 JUMP JUMPDEST DUP2 DUP2 SUB PUSH1 0x40 DUP4 ADD MSTORE PUSH2 0x6317 DUP2 DUP11 PUSH2 0x5D0E JUMP JUMPDEST SWAP1 POP DUP2 DUP2 SUB PUSH1 0x60 DUP4 ADD MSTORE PUSH2 0x632B DUP2 DUP10 PUSH2 0x535E JUMP JUMPDEST SWAP1 POP DUP2 DUP2 SUB PUSH1 0x80 DUP4 ADD MSTORE PUSH2 0x633F DUP2 DUP9 PUSH2 0x6271 JUMP JUMPDEST SWAP1 POP DUP2 DUP2 SUB PUSH1 0xA0 DUP4 ADD MSTORE PUSH2 0x6353 DUP2 DUP8 PUSH2 0x5E04 JUMP JUMPDEST SWAP1 POP PUSH2 0x6362 PUSH1 0xC0 DUP4 ADD DUP7 PUSH2 0x467B JUMP JUMPDEST PUSH2 0x636F PUSH1 0xE0 DUP4 ADD DUP6 PUSH2 0x467B JUMP JUMPDEST DUP2 DUP2 SUB PUSH2 0x100 DUP4 ADD MSTORE PUSH2 0x6382 DUP2 DUP5 PUSH2 0x474A JUMP JUMPDEST SWAP1 POP SWAP11 SWAP10 POP POP POP POP POP POP POP POP POP POP JUMP JUMPDEST PUSH0 PUSH1 0x40 DUP3 ADD SWAP1 POP PUSH2 0x63A5 PUSH0 DUP4 ADD DUP6 PUSH2 0x47D2 JUMP JUMPDEST PUSH2 0x63B2 PUSH1 0x20 DUP4 ADD DUP5 PUSH2 0x467B JUMP JUMPDEST SWAP4 SWAP3 POP POP POP JUMP JUMPDEST PUSH0 PUSH1 0x40 DUP3 ADD SWAP1 POP PUSH2 0x63CC PUSH0 DUP4 ADD DUP6 PUSH2 0x47D2 JUMP JUMPDEST PUSH2 0x63D9 PUSH1 0x20 DUP4 ADD DUP5 PUSH2 0x47D2 JUMP JUMPDEST SWAP4 SWAP3 POP POP POP JUMP JUMPDEST PUSH0 DUP2 SWAP1 POP SWAP2 SWAP1 POP JUMP JUMPDEST PUSH0 PUSH2 0x6403 PUSH2 0x63FE PUSH2 0x63F9 DUP5 PUSH2 0x63E0 JUMP JUMPDEST PUSH2 0x583A JUMP JUMPDEST PUSH2 0x4E6C JUMP JUMPDEST SWAP1 POP SWAP2 SWAP1 POP JUMP JUMPDEST PUSH2 0x6413 DUP2 PUSH2 0x63E9 JUMP JUMPDEST DUP3 MSTORE POP POP JUMP JUMPDEST PUSH0 PUSH1 0x40 DUP3 ADD SWAP1 POP PUSH2 0x642C PUSH0 DUP4 ADD DUP6 PUSH2 0x640A JUMP JUMPDEST PUSH2 0x6439 PUSH1 0x20 DUP4 ADD DUP5 PUSH2 0x467B JUMP JUMPDEST SWAP4 SWAP3 POP POP POP JUMP JUMPDEST PUSH0 DUP2 SWAP1 POP SWAP2 SWAP1 POP JUMP JUMPDEST PUSH0 DUP2 PUSH0 SHL SWAP1 POP SWAP2 SWAP1 POP JUMP JUMPDEST PUSH0 PUSH2 0x646E PUSH2 0x6469 PUSH2 0x6464 DUP5 PUSH2 0x6440 JUMP JUMPDEST PUSH2 0x6449 JUMP JUMPDEST PUSH2 0x4C5A JUMP JUMPDEST SWAP1 POP SWAP2 SWAP1 POP JUMP JUMPDEST PUSH2 0x647E DUP2 PUSH2 0x6454 JUMP JUMPDEST DUP3 MSTORE POP POP JUMP JUMPDEST PUSH0 PUSH1 0xA0 DUP3 ADD SWAP1 POP DUP2 DUP2 SUB PUSH0 DUP4 ADD MSTORE PUSH2 0x649C DUP2 DUP9 PUSH2 0x5D0E JUMP JUMPDEST SWAP1 POP DUP2 DUP2 SUB PUSH1 0x20 DUP4 ADD MSTORE PUSH2 0x64B0 DUP2 DUP8 PUSH2 0x535E JUMP JUMPDEST SWAP1 POP DUP2 DUP2 SUB PUSH1 0x40 DUP4 ADD MSTORE PUSH2 0x64C4 DUP2 DUP7 PUSH2 0x5E04 JUMP JUMPDEST SWAP1 POP PUSH2 0x64D3 PUSH1 0x60 DUP4 ADD DUP6 PUSH2 0x6475 JUMP JUMPDEST PUSH2 0x64E0 PUSH1 0x80 DUP4 ADD DUP5 PUSH2 0x4D45 JUMP JUMPDEST SWAP7 SWAP6 POP POP POP POP POP POP JUMP JUMPDEST PUSH0 DUP2 MLOAD SWAP1 POP PUSH2 0x64F8 DUP2 PUSH2 0x4C63 JUMP JUMPDEST SWAP3 SWAP2 POP POP JUMP JUMPDEST PUSH0 PUSH1 0x20 DUP3 DUP5 SUB SLT ISZERO PUSH2 0x6513 JUMPI PUSH2 0x6512 PUSH2 0x45B7 JUMP JUMPDEST JUMPDEST PUSH0 PUSH2 0x6520 DUP5 DUP3 DUP6 ADD PUSH2 0x64EA JUMP JUMPDEST SWAP2 POP POP SWAP3 SWAP2 POP POP JUMP JUMPDEST PUSH0 PUSH1 0xC0 DUP3 ADD SWAP1 POP DUP2 DUP2 SUB PUSH0 DUP4 ADD MSTORE PUSH2 0x6541 DUP2 DUP10 PUSH2 0x5D0E JUMP JUMPDEST SWAP1 POP DUP2 DUP2 SUB PUSH1 0x20 DUP4 ADD MSTORE PUSH2 0x6555 DUP2 DUP9 PUSH2 0x535E JUMP JUMPDEST SWAP1 POP DUP2 DUP2 SUB PUSH1 0x40 DUP4 ADD MSTORE PUSH2 0x6569 DUP2 DUP8 PUSH2 0x5E04 JUMP JUMPDEST SWAP1 POP PUSH2 0x6578 PUSH1 0x60 DUP4 ADD DUP7 PUSH2 0x6475 JUMP JUMPDEST PUSH2 0x6585 PUSH1 0x80 DUP4 ADD DUP6 PUSH2 0x4D45 JUMP JUMPDEST PUSH2 0x6592 PUSH1 0xA0 DUP4 ADD DUP5 PUSH2 0x467B JUMP JUMPDEST SWAP8 SWAP7 POP POP POP POP POP POP POP JUMP JUMPDEST PUSH0 PUSH1 0x40 DUP3 ADD SWAP1 POP PUSH2 0x65B0 PUSH0 DUP4 ADD DUP6 PUSH2 0x4D45 JUMP JUMPDEST DUP2 DUP2 SUB PUSH1 0x20 DUP4 ADD MSTORE PUSH2 0x65C2 DUP2 DUP5 PUSH2 0x60B7 JUMP JUMPDEST SWAP1 POP SWAP4 SWAP3 POP POP POP JUMP JUMPDEST PUSH0 PUSH2 0x65D5 DUP3 PUSH2 0x5D93 JUMP JUMPDEST PUSH2 0x65DF DUP2 DUP6 PUSH2 0x5A44 JUMP JUMPDEST SWAP4 POP PUSH2 0x65EF DUP2 DUP6 PUSH1 0x20 DUP7 ADD PUSH2 0x4712 JUMP JUMPDEST DUP1 DUP5 ADD SWAP2 POP POP SWAP3 SWAP2 POP POP JUMP JUMPDEST PUSH0 PUSH2 0x6606 DUP3 DUP5 PUSH2 0x65CB JUMP JUMPDEST SWAP2 POP DUP2 SWAP1 POP SWAP3 SWAP2 POP POP JUMP JUMPDEST PUSH0 DUP2 SWAP1 POP SWAP2 SWAP1 POP JUMP JUMPDEST PUSH0 PUSH2 0x6634 PUSH2 0x662F PUSH2 0x662A DUP5 PUSH2 0x6611 JUMP JUMPDEST PUSH2 0x583A JUMP JUMPDEST PUSH2 0x4E6C JUMP JUMPDEST SWAP1 POP SWAP2 SWAP1 POP JUMP JUMPDEST PUSH2 0x6644 DUP2 PUSH2 0x661A JUMP JUMPDEST DUP3 MSTORE POP POP JUMP JUMPDEST PUSH0 PUSH1 0x40 DUP3 ADD SWAP1 POP PUSH2 0x665D PUSH0 DUP4 ADD DUP6 PUSH2 0x663B JUMP JUMPDEST PUSH2 0x666A PUSH1 0x20 DUP4 ADD DUP5 PUSH2 0x467B JUMP JUMPDEST SWAP4 SWAP3 POP POP POP JUMP JUMPDEST PUSH0 PUSH2 0x667B DUP3 PUSH2 0x4E6C JUMP JUMPDEST SWAP2 POP PUSH2 0x6686 DUP4 PUSH2 0x4E6C JUMP JUMPDEST SWAP3 POP DUP3 DUP3 ADD SWAP1 POP PUSH1 0xFF DUP2 GT ISZERO PUSH2 0x669F JUMPI PUSH2 0x669E PUSH2 0x5B06 JUMP JUMPDEST JUMPDEST SWAP3 SWAP2 POP POP JUMP JUMPDEST PUSH0 DUP2 PUSH1 0x1 SHR SWAP1 POP SWAP2 SWAP1 POP JUMP JUMPDEST PUSH0 DUP1 DUP3 SWAP2 POP DUP4 SWAP1 POP JUMPDEST PUSH1 0x1 DUP6 GT ISZERO PUSH2 0x66FA JUMPI DUP1 DUP7 DIV DUP2 GT ISZERO PUSH2 0x66D6 JUMPI PUSH2 0x66D5 PUSH2 0x5B06 JUMP JUMPDEST JUMPDEST PUSH1 0x1 DUP6 AND ISZERO PUSH2 0x66E5 JUMPI DUP1 DUP3 MUL SWAP2 POP JUMPDEST DUP1 DUP2 MUL SWAP1 POP PUSH2 0x66F3 DUP6 PUSH2 0x66A5 JUMP JUMPDEST SWAP5 POP PUSH2 0x66BA JUMP JUMPDEST SWAP5 POP SWAP5 SWAP3 POP POP POP JUMP JUMPDEST PUSH0 DUP3 PUSH2 0x6712 JUMPI PUSH1 0x1 SWAP1 POP PUSH2 0x67CD JUMP JUMPDEST DUP2 PUSH2 0x671F JUMPI PUSH0 SWAP1 POP PUSH2 0x67CD JUMP JUMPDEST DUP2 PUSH1 0x1 DUP2 EQ PUSH2 0x6735 JUMPI PUSH1 0x2 DUP2 EQ PUSH2 0x673F JUMPI PUSH2 0x676E JUMP JUMPDEST PUSH1 0x1 SWAP2 POP POP PUSH2 0x67CD JUMP JUMPDEST PUSH1 0xFF DUP5 GT ISZERO PUSH2 0x6751 JUMPI PUSH2 0x6750 PUSH2 0x5B06 JUMP JUMPDEST JUMPDEST DUP4 PUSH1 0x2 EXP SWAP2 POP DUP5 DUP3 GT ISZERO PUSH2 0x6768 JUMPI PUSH2 0x6767 PUSH2 0x5B06 JUMP JUMPDEST JUMPDEST POP PUSH2 0x67CD JUMP JUMPDEST POP PUSH1 0x20 DUP4 LT PUSH2 0x133 DUP4 LT AND PUSH1 0x4E DUP5 LT PUSH1 0xB DUP5 LT AND OR ISZERO PUSH2 0x67A3 JUMPI DUP3 DUP3 EXP SWAP1 POP DUP4 DUP2 GT ISZERO PUSH2 0x679E JUMPI PUSH2 0x679D PUSH2 0x5B06 JUMP JUMPDEST JUMPDEST PUSH2 0x67CD JUMP JUMPDEST PUSH2 0x67B0 DUP5 DUP5 DUP5 PUSH1 0x1 PUSH2 0x66B1 JUMP JUMPDEST SWAP3 POP SWAP1 POP DUP2 DUP5 DIV DUP2 GT ISZERO PUSH2 0x67C7 JUMPI PUSH2 0x67C6 PUSH2 0x5B06 JUMP JUMPDEST JUMPDEST DUP2 DUP2 MUL SWAP1 POP JUMPDEST SWAP4 SWAP3 POP POP POP JUMP JUMPDEST PUSH0 PUSH2 0x67DE DUP3 PUSH2 0x4672 JUMP JUMPDEST SWAP2 POP PUSH2 0x67E9 DUP4 PUSH2 0x4E6C JUMP JUMPDEST SWAP3 POP PUSH2 0x6816 PUSH32 0xFFFFFFFFFFFFFFFFFFFFFFFFFFFFFFFFFFFFFFFFFFFFFFFFFFFFFFFFFFFFFFFF DUP5 DUP5 PUSH2 0x6703 JUMP JUMPDEST SWAP1 POP SWAP3 SWAP2 POP POP JUMP JUMPDEST PUSH0 PUSH1 0xA0 DUP3 ADD SWAP1 POP PUSH2 0x6831 PUSH0 DUP4 ADD DUP9 PUSH2 0x4D45 JUMP JUMPDEST PUSH2 0x683E PUSH1 0x20 DUP4 ADD DUP8 PUSH2 0x4D45 JUMP JUMPDEST PUSH2 0x684B PUSH1 0x40 DUP4 ADD DUP7 PUSH2 0x4D45 JUMP JUMPDEST PUSH2 0x6858 PUSH1 0x60 DUP4 ADD DUP6 PUSH2 0x467B JUMP JUMPDEST PUSH2 0x6865 PUSH1 0x80 DUP4 ADD DUP5 PUSH2 0x47D2 JUMP JUMPDEST SWAP7 SWAP6 POP POP POP POP POP POP JUMP JUMPDEST PUSH0 PUSH1 0x80 DUP3 ADD SWAP1 POP PUSH2 0x6882 PUSH0 DUP4 ADD DUP8 PUSH2 0x4D45 JUMP JUMPDEST PUSH2 0x688F PUSH1 0x20 DUP4 ADD DUP7 PUSH2 0x5A8A JUMP JUMPDEST PUSH2 0x689C PUSH1 0x40 DUP4 ADD DUP6 PUSH2 0x4D45 JUMP JUMPDEST PUSH2 0x68A9 PUSH1 0x60 DUP4 ADD DUP5 PUSH2 0x4D45 JUMP JUMPDEST SWAP6 SWAP5 POP POP POP POP POP JUMP INVALID LOG2 PUSH5 0x6970667358 0x22 SLT KECCAK256 0xFC 0x5E DUP10 0x28 PUSH0 PUSH1 0x96 SHL SWAP13 KECCAK256 0xDA SELFBALANCE PUSH5 0xCF25254692 0xD5 0xD6 0x1E PUSH7 0x63D8EC2D2F5520 SWAP9 LOG0 DUP16 PUSH5 0x736F6C6343 STOP ADDMOD AND STOP CALLER "
		},
		"gasEstimates": {
			"creation": {
				"codeDepositCost": "5371200",
				"executionCost": "infinite",
				"totalCost": "infinite"
			},
			"external": {
				"BALLOT_TYPEHASH()": "391",
				"CLOCK_MODE()": "infinite",
				"COUNTING_MODE()": "infinite",
				"EXTENDED_BALLOT_TYPEHASH()": "459",
				"cancel(address[],uint256[],bytes[],bytes32)": "infinite",
				"castVote(uint256,uint8)": "infinite",
				"castVoteBySig(uint256,uint8,address,bytes)": "infinite",
				"castVoteWithReason(uint256,uint8,string)": "infinite",
				"castVoteWithReasonAndParams(uint256,uint8,string,bytes)": "infinite",
				"castVoteWithReasonAndParamsBySig(uint256,uint8,address,string,bytes,bytes)": "infinite",
				"clock()": "infinite",
				"eip712Domain()": "infinite",
				"execute(address[],uint256[],bytes[],bytes32)": "infinite",
				"getVotes(address,uint256)": "infinite",
				"getVotesWithParams(address,uint256,bytes)": "infinite",
				"hasVoted(uint256,address)": "3191",
				"hashProposal(address[],uint256[],bytes[],bytes32)": "infinite",
				"name()": "infinite",
				"nonces(address)": "2897",
				"onERC1155BatchReceived(address,address,uint256[],uint256[],bytes)": "infinite",
				"onERC1155Received(address,address,uint256,uint256,bytes)": "infinite",
				"onERC721Received(address,address,uint256,bytes)": "infinite",
				"proposalDeadline(uint256)": "infinite",
				"proposalEta(uint256)": "infinite",
				"proposalNeedsQueuing(uint256)": "774",
				"proposalProposer(uint256)": "2992",
				"proposalSnapshot(uint256)": "infinite",
				"proposalThreshold()": "369",
				"proposalVotes(uint256)": "infinite",
				"propose(address[],uint256[],bytes[],string)": "infinite",
				"queue(address[],uint256[],bytes[],bytes32)": "infinite",
				"quorum(uint256)": "infinite",
				"quorumDenominator()": "377",
				"quorumNumerator()": "infinite",
				"quorumNumerator(uint256)": "infinite",
				"relay(address,uint256,bytes)": "infinite",
				"state(uint256)": "infinite",
				"supportsInterface(bytes4)": "810",
				"timelock()": "2670",
				"token()": "infinite",
				"updateQuorumNumerator(uint256)": "infinite",
				"updateTimelock(address)": "infinite",
				"version()": "infinite",
				"votingDelay()": "488",
				"votingPeriod()": "401"
			},
			"internal": {
				"_cancel(address[] memory,uint256[] memory,bytes memory[] memory,bytes32)": "infinite",
				"_executeOperations(uint256,address[] memory,uint256[] memory,bytes memory[] memory,bytes32)": "infinite",
				"_executor()": "2191",
				"_queueOperations(uint256,address[] memory,uint256[] memory,bytes memory[] memory,bytes32)": "infinite"
			}
		},
		"methodIdentifiers": {
			"BALLOT_TYPEHASH()": "deaaa7cc",
			"CLOCK_MODE()": "4bf5d7e9",
			"COUNTING_MODE()": "dd4e2ba5",
			"EXTENDED_BALLOT_TYPEHASH()": "2fe3e261",
			"cancel(address[],uint256[],bytes[],bytes32)": "452115d6",
			"castVote(uint256,uint8)": "56781388",
			"castVoteBySig(uint256,uint8,address,bytes)": "8ff262e3",
			"castVoteWithReason(uint256,uint8,string)": "7b3c71d3",
			"castVoteWithReasonAndParams(uint256,uint8,string,bytes)": "5f398a14",
			"castVoteWithReasonAndParamsBySig(uint256,uint8,address,string,bytes,bytes)": "5b8d0e0d",
			"clock()": "91ddadf4",
			"eip712Domain()": "84b0196e",
			"execute(address[],uint256[],bytes[],bytes32)": "2656227d",
			"getVotes(address,uint256)": "eb9019d4",
			"getVotesWithParams(address,uint256,bytes)": "9a802a6d",
			"hasVoted(uint256,address)": "43859632",
			"hashProposal(address[],uint256[],bytes[],bytes32)": "c59057e4",
			"name()": "06fdde03",
			"nonces(address)": "7ecebe00",
			"onERC1155BatchReceived(address,address,uint256[],uint256[],bytes)": "bc197c81",
			"onERC1155Received(address,address,uint256,uint256,bytes)": "f23a6e61",
			"onERC721Received(address,address,uint256,bytes)": "150b7a02",
			"proposalDeadline(uint256)": "c01f9e37",
			"proposalEta(uint256)": "ab58fb8e",
			"proposalNeedsQueuing(uint256)": "a9a95294",
			"proposalProposer(uint256)": "143489d0",
			"proposalSnapshot(uint256)": "2d63f693",
			"proposalThreshold()": "b58131b0",
			"proposalVotes(uint256)": "544ffc9c",
			"propose(address[],uint256[],bytes[],string)": "7d5e81e2",
			"queue(address[],uint256[],bytes[],bytes32)": "160cbed7",
			"quorum(uint256)": "f8ce560a",
			"quorumDenominator()": "97c3d334",
			"quorumNumerator()": "a7713a70",
			"quorumNumerator(uint256)": "60c4247f",
			"relay(address,uint256,bytes)": "c28bc2fa",
			"state(uint256)": "3e4f49e6",
			"supportsInterface(bytes4)": "01ffc9a7",
			"timelock()": "d33219b4",
			"token()": "fc0c546a",
			"updateQuorumNumerator(uint256)": "06f3f9e6",
			"updateTimelock(address)": "a890c910",
			"version()": "54fd4d50",
			"votingDelay()": "3932abb1",
			"votingPeriod()": "02a251a3"
		}
	},
	"abi": [
		{
			"inputs": [
				{
					"internalType": "contract IVotes",
					"name": "_token",
					"type": "address"
				},
				{
					"internalType": "contract TimelockController",
					"name": "_timelock",
					"type": "address"
				}
			],
			"stateMutability": "nonpayable",
			"type": "constructor"
		},
		{
			"inputs": [],
			"name": "CheckpointUnorderedInsertion",
			"type": "error"
		},
		{
			"inputs": [],
			"name": "FailedInnerCall",
			"type": "error"
		},
		{
			"inputs": [
				{
					"internalType": "address",
					"name": "voter",
					"type": "address"
				}
			],
			"name": "GovernorAlreadyCastVote",
			"type": "error"
		},
		{
			"inputs": [
				{
					"internalType": "uint256",
					"name": "proposalId",
					"type": "uint256"
				}
			],
			"name": "GovernorAlreadyQueuedProposal",
			"type": "error"
		},
		{
			"inputs": [],
			"name": "GovernorDisabledDeposit",
			"type": "error"
		},
		{
			"inputs": [
				{
					"internalType": "address",
					"name": "proposer",
					"type": "address"
				},
				{
					"internalType": "uint256",
					"name": "votes",
					"type": "uint256"
				},
				{
					"internalType": "uint256",
					"name": "threshold",
					"type": "uint256"
				}
			],
			"name": "GovernorInsufficientProposerVotes",
			"type": "error"
		},
		{
			"inputs": [
				{
					"internalType": "uint256",
					"name": "targets",
					"type": "uint256"
				},
				{
					"internalType": "uint256",
					"name": "calldatas",
					"type": "uint256"
				},
				{
					"internalType": "uint256",
					"name": "values",
					"type": "uint256"
				}
			],
			"name": "GovernorInvalidProposalLength",
			"type": "error"
		},
		{
			"inputs": [
				{
					"internalType": "uint256",
					"name": "quorumNumerator",
					"type": "uint256"
				},
				{
					"internalType": "uint256",
					"name": "quorumDenominator",
					"type": "uint256"
				}
			],
			"name": "GovernorInvalidQuorumFraction",
			"type": "error"
		},
		{
			"inputs": [
				{
					"internalType": "address",
					"name": "voter",
					"type": "address"
				}
			],
			"name": "GovernorInvalidSignature",
			"type": "error"
		},
		{
			"inputs": [],
			"name": "GovernorInvalidVoteType",
			"type": "error"
		},
		{
			"inputs": [
				{
					"internalType": "uint256",
					"name": "votingPeriod",
					"type": "uint256"
				}
			],
			"name": "GovernorInvalidVotingPeriod",
			"type": "error"
		},
		{
			"inputs": [
				{
					"internalType": "uint256",
					"name": "proposalId",
					"type": "uint256"
				}
			],
			"name": "GovernorNonexistentProposal",
			"type": "error"
		},
		{
			"inputs": [
				{
					"internalType": "uint256",
					"name": "proposalId",
					"type": "uint256"
				}
			],
			"name": "GovernorNotQueuedProposal",
			"type": "error"
		},
		{
			"inputs": [
				{
					"internalType": "address",
					"name": "account",
					"type": "address"
				}
			],
			"name": "GovernorOnlyExecutor",
			"type": "error"
		},
		{
			"inputs": [
				{
					"internalType": "address",
					"name": "account",
					"type": "address"
				}
			],
			"name": "GovernorOnlyProposer",
			"type": "error"
		},
		{
			"inputs": [],
			"name": "GovernorQueueNotImplemented",
			"type": "error"
		},
		{
			"inputs": [
				{
					"internalType": "address",
					"name": "proposer",
					"type": "address"
				}
			],
			"name": "GovernorRestrictedProposer",
			"type": "error"
		},
		{
			"inputs": [
				{
					"internalType": "uint256",
					"name": "proposalId",
					"type": "uint256"
				},
				{
					"internalType": "enum IGovernor.ProposalState",
					"name": "current",
					"type": "uint8"
				},
				{
					"internalType": "bytes32",
					"name": "expectedStates",
					"type": "bytes32"
				}
			],
			"name": "GovernorUnexpectedProposalState",
			"type": "error"
		},
		{
			"inputs": [
				{
					"internalType": "address",
					"name": "account",
					"type": "address"
				},
				{
					"internalType": "uint256",
					"name": "currentNonce",
					"type": "uint256"
				}
			],
			"name": "InvalidAccountNonce",
			"type": "error"
		},
		{
			"inputs": [],
			"name": "InvalidShortString",
			"type": "error"
		},
		{
			"inputs": [],
			"name": "QueueEmpty",
			"type": "error"
		},
		{
			"inputs": [],
			"name": "QueueFull",
			"type": "error"
		},
		{
			"inputs": [
				{
					"internalType": "uint8",
					"name": "bits",
					"type": "uint8"
				},
				{
					"internalType": "uint256",
					"name": "value",
					"type": "uint256"
				}
			],
			"name": "SafeCastOverflowedUintDowncast",
			"type": "error"
		},
		{
			"inputs": [
				{
					"internalType": "string",
					"name": "str",
					"type": "string"
				}
			],
			"name": "StringTooLong",
			"type": "error"
		},
		{
			"anonymous": false,
			"inputs": [],
			"name": "EIP712DomainChanged",
			"type": "event"
		},
		{
			"anonymous": false,
			"inputs": [
				{
					"indexed": false,
					"internalType": "uint256",
					"name": "proposalId",
					"type": "uint256"
				}
			],
			"name": "ProposalCanceled",
			"type": "event"
		},
		{
			"anonymous": false,
			"inputs": [
				{
					"indexed": false,
					"internalType": "uint256",
					"name": "proposalId",
					"type": "uint256"
				},
				{
					"indexed": false,
					"internalType": "address",
					"name": "proposer",
					"type": "address"
				},
				{
					"indexed": false,
					"internalType": "address[]",
					"name": "targets",
					"type": "address[]"
				},
				{
					"indexed": false,
					"internalType": "uint256[]",
					"name": "values",
					"type": "uint256[]"
				},
				{
					"indexed": false,
					"internalType": "string[]",
					"name": "signatures",
					"type": "string[]"
				},
				{
					"indexed": false,
					"internalType": "bytes[]",
					"name": "calldatas",
					"type": "bytes[]"
				},
				{
					"indexed": false,
					"internalType": "uint256",
					"name": "voteStart",
					"type": "uint256"
				},
				{
					"indexed": false,
					"internalType": "uint256",
					"name": "voteEnd",
					"type": "uint256"
				},
				{
					"indexed": false,
					"internalType": "string",
					"name": "description",
					"type": "string"
				}
			],
			"name": "ProposalCreated",
			"type": "event"
		},
		{
			"anonymous": false,
			"inputs": [
				{
					"indexed": false,
					"internalType": "uint256",
					"name": "proposalId",
					"type": "uint256"
				}
			],
			"name": "ProposalExecuted",
			"type": "event"
		},
		{
			"anonymous": false,
			"inputs": [
				{
					"indexed": false,
					"internalType": "uint256",
					"name": "proposalId",
					"type": "uint256"
				},
				{
					"indexed": false,
					"internalType": "uint256",
					"name": "etaSeconds",
					"type": "uint256"
				}
			],
			"name": "ProposalQueued",
			"type": "event"
		},
		{
			"anonymous": false,
			"inputs": [
				{
					"indexed": false,
					"internalType": "uint256",
					"name": "oldQuorumNumerator",
					"type": "uint256"
				},
				{
					"indexed": false,
					"internalType": "uint256",
					"name": "newQuorumNumerator",
					"type": "uint256"
				}
			],
			"name": "QuorumNumeratorUpdated",
			"type": "event"
		},
		{
			"anonymous": false,
			"inputs": [
				{
					"indexed": false,
					"internalType": "address",
					"name": "oldTimelock",
					"type": "address"
				},
				{
					"indexed": false,
					"internalType": "address",
					"name": "newTimelock",
					"type": "address"
				}
			],
			"name": "TimelockChange",
			"type": "event"
		},
		{
			"anonymous": false,
			"inputs": [
				{
					"indexed": true,
					"internalType": "address",
					"name": "voter",
					"type": "address"
				},
				{
					"indexed": false,
					"internalType": "uint256",
					"name": "proposalId",
					"type": "uint256"
				},
				{
					"indexed": false,
					"internalType": "uint8",
					"name": "support",
					"type": "uint8"
				},
				{
					"indexed": false,
					"internalType": "uint256",
					"name": "weight",
					"type": "uint256"
				},
				{
					"indexed": false,
					"internalType": "string",
					"name": "reason",
					"type": "string"
				}
			],
			"name": "VoteCast",
			"type": "event"
		},
		{
			"anonymous": false,
			"inputs": [
				{
					"indexed": true,
					"internalType": "address",
					"name": "voter",
					"type": "address"
				},
				{
					"indexed": false,
					"internalType": "uint256",
					"name": "proposalId",
					"type": "uint256"
				},
				{
					"indexed": false,
					"internalType": "uint8",
					"name": "support",
					"type": "uint8"
				},
				{
					"indexed": false,
					"internalType": "uint256",
					"name": "weight",
					"type": "uint256"
				},
				{
					"indexed": false,
					"internalType": "string",
					"name": "reason",
					"type": "string"
				},
				{
					"indexed": false,
					"internalType": "bytes",
					"name": "params",
					"type": "bytes"
				}
			],
			"name": "VoteCastWithParams",
			"type": "event"
		},
		{
			"inputs": [],
			"name": "BALLOT_TYPEHASH",
			"outputs": [
				{
					"internalType": "bytes32",
					"name": "",
					"type": "bytes32"
				}
			],
			"stateMutability": "view",
			"type": "function"
		},
		{
			"inputs": [],
			"name": "CLOCK_MODE",
			"outputs": [
				{
					"internalType": "string",
					"name": "",
					"type": "string"
				}
			],
			"stateMutability": "view",
			"type": "function"
		},
		{
			"inputs": [],
			"name": "COUNTING_MODE",
			"outputs": [
				{
					"internalType": "string",
					"name": "",
					"type": "string"
				}
			],
			"stateMutability": "pure",
			"type": "function"
		},
		{
			"inputs": [],
			"name": "EXTENDED_BALLOT_TYPEHASH",
			"outputs": [
				{
					"internalType": "bytes32",
					"name": "",
					"type": "bytes32"
				}
			],
			"stateMutability": "view",
			"type": "function"
		},
		{
			"inputs": [
				{
					"internalType": "address[]",
					"name": "targets",
					"type": "address[]"
				},
				{
					"internalType": "uint256[]",
					"name": "values",
					"type": "uint256[]"
				},
				{
					"internalType": "bytes[]",
					"name": "calldatas",
					"type": "bytes[]"
				},
				{
					"internalType": "bytes32",
					"name": "descriptionHash",
					"type": "bytes32"
				}
			],
			"name": "cancel",
			"outputs": [
				{
					"internalType": "uint256",
					"name": "",
					"type": "uint256"
				}
			],
			"stateMutability": "nonpayable",
			"type": "function"
		},
		{
			"inputs": [
				{
					"internalType": "uint256",
					"name": "proposalId",
					"type": "uint256"
				},
				{
					"internalType": "uint8",
					"name": "support",
					"type": "uint8"
				}
			],
			"name": "castVote",
			"outputs": [
				{
					"internalType": "uint256",
					"name": "",
					"type": "uint256"
				}
			],
			"stateMutability": "nonpayable",
			"type": "function"
		},
		{
			"inputs": [
				{
					"internalType": "uint256",
					"name": "proposalId",
					"type": "uint256"
				},
				{
					"internalType": "uint8",
					"name": "support",
					"type": "uint8"
				},
				{
					"internalType": "address",
					"name": "voter",
					"type": "address"
				},
				{
					"internalType": "bytes",
					"name": "signature",
					"type": "bytes"
				}
			],
			"name": "castVoteBySig",
			"outputs": [
				{
					"internalType": "uint256",
					"name": "",
					"type": "uint256"
				}
			],
			"stateMutability": "nonpayable",
			"type": "function"
		},
		{
			"inputs": [
				{
					"internalType": "uint256",
					"name": "proposalId",
					"type": "uint256"
				},
				{
					"internalType": "uint8",
					"name": "support",
					"type": "uint8"
				},
				{
					"internalType": "string",
					"name": "reason",
					"type": "string"
				}
			],
			"name": "castVoteWithReason",
			"outputs": [
				{
					"internalType": "uint256",
					"name": "",
					"type": "uint256"
				}
			],
			"stateMutability": "nonpayable",
			"type": "function"
		},
		{
			"inputs": [
				{
					"internalType": "uint256",
					"name": "proposalId",
					"type": "uint256"
				},
				{
					"internalType": "uint8",
					"name": "support",
					"type": "uint8"
				},
				{
					"internalType": "string",
					"name": "reason",
					"type": "string"
				},
				{
					"internalType": "bytes",
					"name": "params",
					"type": "bytes"
				}
			],
			"name": "castVoteWithReasonAndParams",
			"outputs": [
				{
					"internalType": "uint256",
					"name": "",
					"type": "uint256"
				}
			],
			"stateMutability": "nonpayable",
			"type": "function"
		},
		{
			"inputs": [
				{
					"internalType": "uint256",
					"name": "proposalId",
					"type": "uint256"
				},
				{
					"internalType": "uint8",
					"name": "support",
					"type": "uint8"
				},
				{
					"internalType": "address",
					"name": "voter",
					"type": "address"
				},
				{
					"internalType": "string",
					"name": "reason",
					"type": "string"
				},
				{
					"internalType": "bytes",
					"name": "params",
					"type": "bytes"
				},
				{
					"internalType": "bytes",
					"name": "signature",
					"type": "bytes"
				}
			],
			"name": "castVoteWithReasonAndParamsBySig",
			"outputs": [
				{
					"internalType": "uint256",
					"name": "",
					"type": "uint256"
				}
			],
			"stateMutability": "nonpayable",
			"type": "function"
		},
		{
			"inputs": [],
			"name": "clock",
			"outputs": [
				{
					"internalType": "uint48",
					"name": "",
					"type": "uint48"
				}
			],
			"stateMutability": "view",
			"type": "function"
		},
		{
			"inputs": [],
			"name": "eip712Domain",
			"outputs": [
				{
					"internalType": "bytes1",
					"name": "fields",
					"type": "bytes1"
				},
				{
					"internalType": "string",
					"name": "name",
					"type": "string"
				},
				{
					"internalType": "string",
					"name": "version",
					"type": "string"
				},
				{
					"internalType": "uint256",
					"name": "chainId",
					"type": "uint256"
				},
				{
					"internalType": "address",
					"name": "verifyingContract",
					"type": "address"
				},
				{
					"internalType": "bytes32",
					"name": "salt",
					"type": "bytes32"
				},
				{
					"internalType": "uint256[]",
					"name": "extensions",
					"type": "uint256[]"
				}
			],
			"stateMutability": "view",
			"type": "function"
		},
		{
			"inputs": [
				{
					"internalType": "address[]",
					"name": "targets",
					"type": "address[]"
				},
				{
					"internalType": "uint256[]",
					"name": "values",
					"type": "uint256[]"
				},
				{
					"internalType": "bytes[]",
					"name": "calldatas",
					"type": "bytes[]"
				},
				{
					"internalType": "bytes32",
					"name": "descriptionHash",
					"type": "bytes32"
				}
			],
			"name": "execute",
			"outputs": [
				{
					"internalType": "uint256",
					"name": "",
					"type": "uint256"
				}
			],
			"stateMutability": "payable",
			"type": "function"
		},
		{
			"inputs": [
				{
					"internalType": "address",
					"name": "account",
					"type": "address"
				},
				{
					"internalType": "uint256",
					"name": "timepoint",
					"type": "uint256"
				}
			],
			"name": "getVotes",
			"outputs": [
				{
					"internalType": "uint256",
					"name": "",
					"type": "uint256"
				}
			],
			"stateMutability": "view",
			"type": "function"
		},
		{
			"inputs": [
				{
					"internalType": "address",
					"name": "account",
					"type": "address"
				},
				{
					"internalType": "uint256",
					"name": "timepoint",
					"type": "uint256"
				},
				{
					"internalType": "bytes",
					"name": "params",
					"type": "bytes"
				}
			],
			"name": "getVotesWithParams",
			"outputs": [
				{
					"internalType": "uint256",
					"name": "",
					"type": "uint256"
				}
			],
			"stateMutability": "view",
			"type": "function"
		},
		{
			"inputs": [
				{
					"internalType": "uint256",
					"name": "proposalId",
					"type": "uint256"
				},
				{
					"internalType": "address",
					"name": "account",
					"type": "address"
				}
			],
			"name": "hasVoted",
			"outputs": [
				{
					"internalType": "bool",
					"name": "",
					"type": "bool"
				}
			],
			"stateMutability": "view",
			"type": "function"
		},
		{
			"inputs": [
				{
					"internalType": "address[]",
					"name": "targets",
					"type": "address[]"
				},
				{
					"internalType": "uint256[]",
					"name": "values",
					"type": "uint256[]"
				},
				{
					"internalType": "bytes[]",
					"name": "calldatas",
					"type": "bytes[]"
				},
				{
					"internalType": "bytes32",
					"name": "descriptionHash",
					"type": "bytes32"
				}
			],
			"name": "hashProposal",
			"outputs": [
				{
					"internalType": "uint256",
					"name": "",
					"type": "uint256"
				}
			],
			"stateMutability": "pure",
			"type": "function"
		},
		{
			"inputs": [],
			"name": "name",
			"outputs": [
				{
					"internalType": "string",
					"name": "",
					"type": "string"
				}
			],
			"stateMutability": "view",
			"type": "function"
		},
		{
			"inputs": [
				{
					"internalType": "address",
					"name": "owner",
					"type": "address"
				}
			],
			"name": "nonces",
			"outputs": [
				{
					"internalType": "uint256",
					"name": "",
					"type": "uint256"
				}
			],
			"stateMutability": "view",
			"type": "function"
		},
		{
			"inputs": [
				{
					"internalType": "address",
					"name": "",
					"type": "address"
				},
				{
					"internalType": "address",
					"name": "",
					"type": "address"
				},
				{
					"internalType": "uint256[]",
					"name": "",
					"type": "uint256[]"
				},
				{
					"internalType": "uint256[]",
					"name": "",
					"type": "uint256[]"
				},
				{
					"internalType": "bytes",
					"name": "",
					"type": "bytes"
				}
			],
			"name": "onERC1155BatchReceived",
			"outputs": [
				{
					"internalType": "bytes4",
					"name": "",
					"type": "bytes4"
				}
			],
			"stateMutability": "nonpayable",
			"type": "function"
		},
		{
			"inputs": [
				{
					"internalType": "address",
					"name": "",
					"type": "address"
				},
				{
					"internalType": "address",
					"name": "",
					"type": "address"
				},
				{
					"internalType": "uint256",
					"name": "",
					"type": "uint256"
				},
				{
					"internalType": "uint256",
					"name": "",
					"type": "uint256"
				},
				{
					"internalType": "bytes",
					"name": "",
					"type": "bytes"
				}
			],
			"name": "onERC1155Received",
			"outputs": [
				{
					"internalType": "bytes4",
					"name": "",
					"type": "bytes4"
				}
			],
			"stateMutability": "nonpayable",
			"type": "function"
		},
		{
			"inputs": [
				{
					"internalType": "address",
					"name": "",
					"type": "address"
				},
				{
					"internalType": "address",
					"name": "",
					"type": "address"
				},
				{
					"internalType": "uint256",
					"name": "",
					"type": "uint256"
				},
				{
					"internalType": "bytes",
					"name": "",
					"type": "bytes"
				}
			],
			"name": "onERC721Received",
			"outputs": [
				{
					"internalType": "bytes4",
					"name": "",
					"type": "bytes4"
				}
			],
			"stateMutability": "nonpayable",
			"type": "function"
		},
		{
			"inputs": [
				{
					"internalType": "uint256",
					"name": "proposalId",
					"type": "uint256"
				}
			],
			"name": "proposalDeadline",
			"outputs": [
				{
					"internalType": "uint256",
					"name": "",
					"type": "uint256"
				}
			],
			"stateMutability": "view",
			"type": "function"
		},
		{
			"inputs": [
				{
					"internalType": "uint256",
					"name": "proposalId",
					"type": "uint256"
				}
			],
			"name": "proposalEta",
			"outputs": [
				{
					"internalType": "uint256",
					"name": "",
					"type": "uint256"
				}
			],
			"stateMutability": "view",
			"type": "function"
		},
		{
			"inputs": [
				{
					"internalType": "uint256",
					"name": "proposalId",
					"type": "uint256"
				}
			],
			"name": "proposalNeedsQueuing",
			"outputs": [
				{
					"internalType": "bool",
					"name": "",
					"type": "bool"
				}
			],
			"stateMutability": "view",
			"type": "function"
		},
		{
			"inputs": [
				{
					"internalType": "uint256",
					"name": "proposalId",
					"type": "uint256"
				}
			],
			"name": "proposalProposer",
			"outputs": [
				{
					"internalType": "address",
					"name": "",
					"type": "address"
				}
			],
			"stateMutability": "view",
			"type": "function"
		},
		{
			"inputs": [
				{
					"internalType": "uint256",
					"name": "proposalId",
					"type": "uint256"
				}
			],
			"name": "proposalSnapshot",
			"outputs": [
				{
					"internalType": "uint256",
					"name": "",
					"type": "uint256"
				}
			],
			"stateMutability": "view",
			"type": "function"
		},
		{
			"inputs": [],
			"name": "proposalThreshold",
			"outputs": [
				{
					"internalType": "uint256",
					"name": "",
					"type": "uint256"
				}
			],
			"stateMutability": "view",
			"type": "function"
		},
		{
			"inputs": [
				{
					"internalType": "uint256",
					"name": "proposalId",
					"type": "uint256"
				}
			],
			"name": "proposalVotes",
			"outputs": [
				{
					"internalType": "uint256",
					"name": "againstVotes",
					"type": "uint256"
				},
				{
					"internalType": "uint256",
					"name": "forVotes",
					"type": "uint256"
				},
				{
					"internalType": "uint256",
					"name": "abstainVotes",
					"type": "uint256"
				}
			],
			"stateMutability": "view",
			"type": "function"
		},
		{
			"inputs": [
				{
					"internalType": "address[]",
					"name": "targets",
					"type": "address[]"
				},
				{
					"internalType": "uint256[]",
					"name": "values",
					"type": "uint256[]"
				},
				{
					"internalType": "bytes[]",
					"name": "calldatas",
					"type": "bytes[]"
				},
				{
					"internalType": "string",
					"name": "description",
					"type": "string"
				}
			],
			"name": "propose",
			"outputs": [
				{
					"internalType": "uint256",
					"name": "",
					"type": "uint256"
				}
			],
			"stateMutability": "nonpayable",
			"type": "function"
		},
		{
			"inputs": [
				{
					"internalType": "address[]",
					"name": "targets",
					"type": "address[]"
				},
				{
					"internalType": "uint256[]",
					"name": "values",
					"type": "uint256[]"
				},
				{
					"internalType": "bytes[]",
					"name": "calldatas",
					"type": "bytes[]"
				},
				{
					"internalType": "bytes32",
					"name": "descriptionHash",
					"type": "bytes32"
				}
			],
			"name": "queue",
			"outputs": [
				{
					"internalType": "uint256",
					"name": "",
					"type": "uint256"
				}
			],
			"stateMutability": "nonpayable",
			"type": "function"
		},
		{
			"inputs": [
				{
					"internalType": "uint256",
					"name": "timepoint",
					"type": "uint256"
				}
			],
			"name": "quorum",
			"outputs": [
				{
					"internalType": "uint256",
					"name": "",
					"type": "uint256"
				}
			],
			"stateMutability": "view",
			"type": "function"
		},
		{
			"inputs": [],
			"name": "quorumDenominator",
			"outputs": [
				{
					"internalType": "uint256",
					"name": "",
					"type": "uint256"
				}
			],
			"stateMutability": "view",
			"type": "function"
		},
		{
			"inputs": [
				{
					"internalType": "uint256",
					"name": "timepoint",
					"type": "uint256"
				}
			],
			"name": "quorumNumerator",
			"outputs": [
				{
					"internalType": "uint256",
					"name": "",
					"type": "uint256"
				}
			],
			"stateMutability": "view",
			"type": "function"
		},
		{
			"inputs": [],
			"name": "quorumNumerator",
			"outputs": [
				{
					"internalType": "uint256",
					"name": "",
					"type": "uint256"
				}
			],
			"stateMutability": "view",
			"type": "function"
		},
		{
			"inputs": [
				{
					"internalType": "address",
					"name": "target",
					"type": "address"
				},
				{
					"internalType": "uint256",
					"name": "value",
					"type": "uint256"
				},
				{
					"internalType": "bytes",
					"name": "data",
					"type": "bytes"
				}
			],
			"name": "relay",
			"outputs": [],
			"stateMutability": "payable",
			"type": "function"
		},
		{
			"inputs": [
				{
					"internalType": "uint256",
					"name": "proposalId",
					"type": "uint256"
				}
			],
			"name": "state",
			"outputs": [
				{
					"internalType": "enum IGovernor.ProposalState",
					"name": "",
					"type": "uint8"
				}
			],
			"stateMutability": "view",
			"type": "function"
		},
		{
			"inputs": [
				{
					"internalType": "bytes4",
					"name": "interfaceId",
					"type": "bytes4"
				}
			],
			"name": "supportsInterface",
			"outputs": [
				{
					"internalType": "bool",
					"name": "",
					"type": "bool"
				}
			],
			"stateMutability": "view",
			"type": "function"
		},
		{
			"inputs": [],
			"name": "timelock",
			"outputs": [
				{
					"internalType": "address",
					"name": "",
					"type": "address"
				}
			],
			"stateMutability": "view",
			"type": "function"
		},
		{
			"inputs": [],
			"name": "token",
			"outputs": [
				{
					"internalType": "contract IERC5805",
					"name": "",
					"type": "address"
				}
			],
			"stateMutability": "view",
			"type": "function"
		},
		{
			"inputs": [
				{
					"internalType": "uint256",
					"name": "newQuorumNumerator",
					"type": "uint256"
				}
			],
			"name": "updateQuorumNumerator",
			"outputs": [],
			"stateMutability": "nonpayable",
			"type": "function"
		},
		{
			"inputs": [
				{
					"internalType": "contract TimelockController",
					"name": "newTimelock",
					"type": "address"
				}
			],
			"name": "updateTimelock",
			"outputs": [],
			"stateMutability": "nonpayable",
			"type": "function"
		},
		{
			"inputs": [],
			"name": "version",
			"outputs": [
				{
					"internalType": "string",
					"name": "",
					"type": "string"
				}
			],
			"stateMutability": "view",
			"type": "function"
		},
		{
			"inputs": [],
			"name": "votingDelay",
			"outputs": [
				{
					"internalType": "uint256",
					"name": "",
					"type": "uint256"
				}
			],
			"stateMutability": "pure",
			"type": "function"
		},
		{
			"inputs": [],
			"name": "votingPeriod",
			"outputs": [
				{
					"internalType": "uint256",
					"name": "",
					"type": "uint256"
				}
			],
			"stateMutability": "pure",
			"type": "function"
		},
		{
			"stateMutability": "payable",
			"type": "receive"
		}
	]
}